{"src/blockchain/contracts/CheckWeights.sol":{"CheckWeights":{"abi":[{"inputs":[],"stateMutability":"nonpayable","type":"constructor"},{"anonymous":false,"inputs":[{"indexed":false,"internalType":"uint256","name":"round","type":"uint256"},{"indexed":false,"internalType":"uint256","name":"federatedCid","type":"uint256"}],"name":"WroteWeightsOfRoundForClient","type":"event"},{"inputs":[{"internalType":"string","name":"_weights","type":"string"},{"internalType":"uint256","name":"_round","type":"uint256"},{"internalType":"uint256","name":"_federatedCid","type":"uint256"}],"name":"addRoundWeightsReference","outputs":[],"stateMutability":"nonpayable","type":"function"},{"inputs":[{"internalType":"uint256","name":"_federatedCid","type":"uint256"}],"name":"addToBlacklist","outputs":[],"stateMutability":"nonpayable","type":"function"},{"inputs":[{"internalType":"uint256","name":"","type":"uint256"}],"name":"blacklist","outputs":[{"internalType":"uint256","name":"","type":"uint256"}],"stateMutability":"view","type":"function"},{"inputs":[],"name":"getBlackList","outputs":[{"internalType":"uint256[]","name":"","type":"uint256[]"}],"stateMutability":"view","type":"function"},{"inputs":[],"name":"getOwner","outputs":[{"internalType":"address","name":"","type":"address"}],"stateMutability":"view","type":"function"},{"inputs":[{"internalType":"uint256","name":"_round","type":"uint256"},{"internalType":"uint256","name":"_federatedCid","type":"uint256"}],"name":"getWeightOfRoundOfClient","outputs":[{"internalType":"string","name":"","type":"string"}],"stateMutability":"view","type":"function"},{"inputs":[{"internalType":"uint256","name":"_federatedCid","type":"uint256"}],"name":"isPoisonerCid","outputs":[{"internalType":"bool","name":"","type":"bool"}],"stateMutability":"view","type":"function"},{"inputs":[{"internalType":"uint256","name":"","type":"uint256"}],"name":"weightsReferences","outputs":[{"internalType":"uint256","name":"federatedCid","type":"uint256"}],"stateMutability":"view","type":"function"}],"evm":{"bytecode":{"linkReferences":{},"object":"6080604052348015600f57600080fd5b5033600260006101000a81548173ffffffffffffffffffffffffffffffffffffffff021916908373ffffffffffffffffffffffffffffffffffffffff1602179055506110a5806100606000396000f3fe608060405234801561001057600080fd5b50600436106100885760003560e01c8063893d20e81161005b578063893d20e81461013b5780638b762e6c146101595780638e44246814610175578063e6cba98d1461019157610088565b80630f2a09191461008d5780631c21cddc146100bd578063360b97b9146100ed578063606e8a6b1461010b575b600080fd5b6100a760048036038101906100a29190610722565b6101c1565b6040516100b4919061075e565b60405180910390f35b6100d760048036038101906100d29190610722565b6101e5565b6040516100e4919061075e565b60405180910390f35b6100f5610213565b6040516101029190610837565b60405180910390f35b61012560048036038101906101209190610722565b61026b565b6040516101329190610874565b60405180910390f35b6101436102c7565b60405161015091906108d0565b60405180910390f35b610173600480360381019061016e9190610722565b6102f1565b005b61018f600480360381019061018a9190610a31565b61031d565b005b6101ab60048036038101906101a69190610aa0565b61046d565b6040516101b89190610b5f565b60405180910390f35b600181815481106101d157600080fd5b906000526020600020016000915090505481565b600081815481106101f557600080fd5b90600052602060002090600202016000915090508060000154905081565b6060600180548060200260200160405190810160405280929190818152602001828054801561026157602002820191906000526020600020905b81548152602001906001019080831161024d575b5050505050905090565b600080600090505b6001805490508110156102bc57826001828154811061029557610294610b81565b5b9060005260206000200154036102af5760019150506102c2565b8080600101915050610273565b50600090505b919050565b6000600260009054906101000a900473ffffffffffffffffffffffffffffffffffffffff16905090565b600181908060018154018082558091505060019003906000526020600020016000909190919091505550565b600061032882610543565b1561035e576000610338836105a6565b8154811061034957610348610b81565b5b906000526020600020906002020190506103b4565b6000808054905090506000600181600181540180825580915050039060005260206000209050506000818154811061039957610398610b81565b5b90600052602060002090600202019150828260000181905550505b6103be838361063e565b61042c578381600101600085815260200190815260200160002090816103e49190610dbc565b5060008214610427577f49ab53cdea5f88886e786f4c17a329d3e9ac6800979f6b4341c16615da8071dd838360405161041e929190610e8e565b60405180910390a15b610467565b6040517f08c379a000000000000000000000000000000000000000000000000000000000815260040161045e90610f03565b60405180910390fd5b50505050565b606060008061047b846105a6565b8154811061048c5761048b610b81565b5b9060005260206000209060020201905080600101600085815260200190815260200160002080546104bc90610bdf565b80601f01602080910402602001604051908101604052809291908181526020018280546104e890610bdf565b80156105355780601f1061050a57610100808354040283529160200191610535565b820191906000526020600020905b81548152906001019060200180831161051857829003601f168201915b505050505091505092915050565b600080600090505b60008054905081101561059b57826000828154811061056d5761056c610b81565b5b9060005260206000209060020201600001540361058e5760019150506105a1565b808060010191505061054b565b50600090505b919050565b600080600090505b6000805490508110156105fd5782600082815481106105d0576105cf610b81565b5b906000526020600020906002020160000154036105f05780915050610639565b80806001019150506105ae565b506040517f08c379a000000000000000000000000000000000000000000000000000000000815260040161063090610f6f565b60405180910390fd5b919050565b600080600061064c846105a6565b8154811061065d5761065c610b81565b5b9060005260206000209060020201905060405160200161067c90610fc0565b604051602081830303815290604052805190602001208160010160008681526020019081526020016000206040516020016106b79190611058565b60405160208183030381529060405280519060200120141591505092915050565b6000604051905090565b600080fd5b600080fd5b6000819050919050565b6106ff816106ec565b811461070a57600080fd5b50565b60008135905061071c816106f6565b92915050565b600060208284031215610738576107376106e2565b5b60006107468482850161070d565b91505092915050565b610758816106ec565b82525050565b6000602082019050610773600083018461074f565b92915050565b600081519050919050565b600082825260208201905092915050565b6000819050602082019050919050565b6107ae816106ec565b82525050565b60006107c083836107a5565b60208301905092915050565b6000602082019050919050565b60006107e482610779565b6107ee8185610784565b93506107f983610795565b8060005b8381101561082a57815161081188826107b4565b975061081c836107cc565b9250506001810190506107fd565b5085935050505092915050565b6000602082019050818103600083015261085181846107d9565b905092915050565b60008115159050919050565b61086e81610859565b82525050565b60006020820190506108896000830184610865565b92915050565b600073ffffffffffffffffffffffffffffffffffffffff82169050919050565b60006108ba8261088f565b9050919050565b6108ca816108af565b82525050565b60006020820190506108e560008301846108c1565b92915050565b600080fd5b600080fd5b6000601f19601f8301169050919050565b7f4e487b7100000000000000000000000000000000000000000000000000000000600052604160045260246000fd5b61093e826108f5565b810181811067ffffffffffffffff8211171561095d5761095c610906565b5b80604052505050565b60006109706106d8565b905061097c8282610935565b919050565b600067ffffffffffffffff82111561099c5761099b610906565b5b6109a5826108f5565b9050602081019050919050565b82818337600083830152505050565b60006109d46109cf84610981565b610966565b9050828152602081018484840111156109f0576109ef6108f0565b5b6109fb8482856109b2565b509392505050565b600082601f830112610a1857610a176108eb565b5b8135610a288482602086016109c1565b91505092915050565b600080600060608486031215610a4a57610a496106e2565b5b600084013567ffffffffffffffff811115610a6857610a676106e7565b5b610a7486828701610a03565b9350506020610a858682870161070d565b9250506040610a968682870161070d565b9150509250925092565b60008060408385031215610ab757610ab66106e2565b5b6000610ac58582860161070d565b9250506020610ad68582860161070d565b9150509250929050565b600081519050919050565b600082825260208201905092915050565b60005b83811015610b1a578082015181840152602081019050610aff565b60008484015250505050565b6000610b3182610ae0565b610b3b8185610aeb565b9350610b4b818560208601610afc565b610b54816108f5565b840191505092915050565b60006020820190508181036000830152610b798184610b26565b905092915050565b7f4e487b7100000000000000000000000000000000000000000000000000000000600052603260045260246000fd5b7f4e487b7100000000000000000000000000000000000000000000000000000000600052602260045260246000fd5b60006002820490506001821680610bf757607f821691505b602082108103610c0a57610c09610bb0565b5b50919050565b60008190508160005260206000209050919050565b60006020601f8301049050919050565b600082821b905092915050565b600060088302610c727fffffffffffffffffffffffffffffffffffffffffffffffffffffffffffffffff82610c35565b610c7c8683610c35565b95508019841693508086168417925050509392505050565b6000819050919050565b6000610cb9610cb4610caf846106ec565b610c94565b6106ec565b9050919050565b6000819050919050565b610cd383610c9e565b610ce7610cdf82610cc0565b848454610c42565b825550505050565b600090565b610cfc610cef565b610d07818484610cca565b505050565b5b81811015610d2b57610d20600082610cf4565b600181019050610d0d565b5050565b601f821115610d7057610d4181610c10565b610d4a84610c25565b81016020851015610d59578190505b610d6d610d6585610c25565b830182610d0c565b50505b505050565b600082821c905092915050565b6000610d9360001984600802610d75565b1980831691505092915050565b6000610dac8383610d82565b9150826002028217905092915050565b610dc582610ae0565b67ffffffffffffffff811115610dde57610ddd610906565b5b610de88254610bdf565b610df3828285610d2f565b600060209050601f831160018114610e265760008415610e14578287015190505b610e1e8582610da0565b865550610e86565b601f198416610e3486610c10565b60005b82811015610e5c57848901518255600182019150602085019450602081019050610e37565b86831015610e795784890151610e75601f891682610d82565b8355505b6001600288020188555050505b505050505050565b6000604082019050610ea3600083018561074f565b610eb0602083018461074f565b9392505050565b7f5765696768747320616c72656164792077726f74650000000000000000000000600082015250565b6000610eed601583610aeb565b9150610ef882610eb7565b602082019050919050565b60006020820190508181036000830152610f1c81610ee0565b9050919050565b7f436c69656e74206e6f7420666f756e6400000000000000000000000000000000600082015250565b6000610f59601083610aeb565b9150610f6482610f23565b602082019050919050565b60006020820190508181036000830152610f8881610f4c565b9050919050565b600081905092915050565b50565b6000610faa600083610f8f565b9150610fb582610f9a565b600082019050919050565b6000610fcb82610f9d565b9150819050919050565b60008154610fe281610bdf565b610fec8186610f8f565b94506001821660008114611007576001811461101c5761104f565b60ff198316865281151582028601935061104f565b61102585610c10565b60005b8381101561104757815481890152600182019150602081019050611028565b838801955050505b50505092915050565b60006110648284610fd5565b91508190509291505056fea264697066735822122074e0c819b1891636cb7ee996be5f6c5f4d27490a01fcb4a93d42d3015b55a58464736f6c634300081c0033","opcodes":"PUSH1 0x80 PUSH1 0x40 MSTORE CALLVALUE DUP1 ISZERO PUSH1 0xF JUMPI PUSH1 0x0 DUP1 REVERT JUMPDEST POP CALLER PUSH1 0x2 PUSH1 0x0 PUSH2 0x100 EXP DUP2 SLOAD DUP2 PUSH20 0xFFFFFFFFFFFFFFFFFFFFFFFFFFFFFFFFFFFFFFFF MUL NOT AND SWAP1 DUP4 PUSH20 0xFFFFFFFFFFFFFFFFFFFFFFFFFFFFFFFFFFFFFFFF AND MUL OR SWAP1 SSTORE POP PUSH2 0x10A5 DUP1 PUSH2 0x60 PUSH1 0x0 CODECOPY PUSH1 0x0 RETURN INVALID PUSH1 0x80 PUSH1 0x40 MSTORE CALLVALUE DUP1 ISZERO PUSH2 0x10 JUMPI PUSH1 0x0 DUP1 REVERT JUMPDEST POP PUSH1 0x4 CALLDATASIZE LT PUSH2 0x88 JUMPI PUSH1 0x0 CALLDATALOAD PUSH1 0xE0 SHR DUP1 PUSH4 0x893D20E8 GT PUSH2 0x5B JUMPI DUP1 PUSH4 0x893D20E8 EQ PUSH2 0x13B JUMPI DUP1 PUSH4 0x8B762E6C EQ PUSH2 0x159 JUMPI DUP1 PUSH4 0x8E442468 EQ PUSH2 0x175 JUMPI DUP1 PUSH4 0xE6CBA98D EQ PUSH2 0x191 JUMPI PUSH2 0x88 JUMP JUMPDEST DUP1 PUSH4 0xF2A0919 EQ PUSH2 0x8D JUMPI DUP1 PUSH4 0x1C21CDDC EQ PUSH2 0xBD JUMPI DUP1 PUSH4 0x360B97B9 EQ PUSH2 0xED JUMPI DUP1 PUSH4 0x606E8A6B EQ PUSH2 0x10B JUMPI JUMPDEST PUSH1 0x0 DUP1 REVERT JUMPDEST PUSH2 0xA7 PUSH1 0x4 DUP1 CALLDATASIZE SUB DUP2 ADD SWAP1 PUSH2 0xA2 SWAP2 SWAP1 PUSH2 0x722 JUMP JUMPDEST PUSH2 0x1C1 JUMP JUMPDEST PUSH1 0x40 MLOAD PUSH2 0xB4 SWAP2 SWAP1 PUSH2 0x75E JUMP JUMPDEST PUSH1 0x40 MLOAD DUP1 SWAP2 SUB SWAP1 RETURN JUMPDEST PUSH2 0xD7 PUSH1 0x4 DUP1 CALLDATASIZE SUB DUP2 ADD SWAP1 PUSH2 0xD2 SWAP2 SWAP1 PUSH2 0x722 JUMP JUMPDEST PUSH2 0x1E5 JUMP JUMPDEST PUSH1 0x40 MLOAD PUSH2 0xE4 SWAP2 SWAP1 PUSH2 0x75E JUMP JUMPDEST PUSH1 0x40 MLOAD DUP1 SWAP2 SUB SWAP1 RETURN JUMPDEST PUSH2 0xF5 PUSH2 0x213 JUMP JUMPDEST PUSH1 0x40 MLOAD PUSH2 0x102 SWAP2 SWAP1 PUSH2 0x837 JUMP JUMPDEST PUSH1 0x40 MLOAD DUP1 SWAP2 SUB SWAP1 RETURN JUMPDEST PUSH2 0x125 PUSH1 0x4 DUP1 CALLDATASIZE SUB DUP2 ADD SWAP1 PUSH2 0x120 SWAP2 SWAP1 PUSH2 0x722 JUMP JUMPDEST PUSH2 0x26B JUMP JUMPDEST PUSH1 0x40 MLOAD PUSH2 0x132 SWAP2 SWAP1 PUSH2 0x874 JUMP JUMPDEST PUSH1 0x40 MLOAD DUP1 SWAP2 SUB SWAP1 RETURN JUMPDEST PUSH2 0x143 PUSH2 0x2C7 JUMP JUMPDEST PUSH1 0x40 MLOAD PUSH2 0x150 SWAP2 SWAP1 PUSH2 0x8D0 JUMP JUMPDEST PUSH1 0x40 MLOAD DUP1 SWAP2 SUB SWAP1 RETURN JUMPDEST PUSH2 0x173 PUSH1 0x4 DUP1 CALLDATASIZE SUB DUP2 ADD SWAP1 PUSH2 0x16E SWAP2 SWAP1 PUSH2 0x722 JUMP JUMPDEST PUSH2 0x2F1 JUMP JUMPDEST STOP JUMPDEST PUSH2 0x18F PUSH1 0x4 DUP1 CALLDATASIZE SUB DUP2 ADD SWAP1 PUSH2 0x18A SWAP2 SWAP1 PUSH2 0xA31 JUMP JUMPDEST PUSH2 0x31D JUMP JUMPDEST STOP JUMPDEST PUSH2 0x1AB PUSH1 0x4 DUP1 CALLDATASIZE SUB DUP2 ADD SWAP1 PUSH2 0x1A6 SWAP2 SWAP1 PUSH2 0xAA0 JUMP JUMPDEST PUSH2 0x46D JUMP JUMPDEST PUSH1 0x40 MLOAD PUSH2 0x1B8 SWAP2 SWAP1 PUSH2 0xB5F JUMP JUMPDEST PUSH1 0x40 MLOAD DUP1 SWAP2 SUB SWAP1 RETURN JUMPDEST PUSH1 0x1 DUP2 DUP2 SLOAD DUP2 LT PUSH2 0x1D1 JUMPI PUSH1 0x0 DUP1 REVERT JUMPDEST SWAP1 PUSH1 0x0 MSTORE PUSH1 0x20 PUSH1 0x0 KECCAK256 ADD PUSH1 0x0 SWAP2 POP SWAP1 POP SLOAD DUP2 JUMP JUMPDEST PUSH1 0x0 DUP2 DUP2 SLOAD DUP2 LT PUSH2 0x1F5 JUMPI PUSH1 0x0 DUP1 REVERT JUMPDEST SWAP1 PUSH1 0x0 MSTORE PUSH1 0x20 PUSH1 0x0 KECCAK256 SWAP1 PUSH1 0x2 MUL ADD PUSH1 0x0 SWAP2 POP SWAP1 POP DUP1 PUSH1 0x0 ADD SLOAD SWAP1 POP DUP2 JUMP JUMPDEST PUSH1 0x60 PUSH1 0x1 DUP1 SLOAD DUP1 PUSH1 0x20 MUL PUSH1 0x20 ADD PUSH1 0x40 MLOAD SWAP1 DUP2 ADD PUSH1 0x40 MSTORE DUP1 SWAP3 SWAP2 SWAP1 DUP2 DUP2 MSTORE PUSH1 0x20 ADD DUP3 DUP1 SLOAD DUP1 ISZERO PUSH2 0x261 JUMPI PUSH1 0x20 MUL DUP3 ADD SWAP2 SWAP1 PUSH1 0x0 MSTORE PUSH1 0x20 PUSH1 0x0 KECCAK256 SWAP1 JUMPDEST DUP2 SLOAD DUP2 MSTORE PUSH1 0x20 ADD SWAP1 PUSH1 0x1 ADD SWAP1 DUP1 DUP4 GT PUSH2 0x24D JUMPI JUMPDEST POP POP POP POP POP SWAP1 POP SWAP1 JUMP JUMPDEST PUSH1 0x0 DUP1 PUSH1 0x0 SWAP1 POP JUMPDEST PUSH1 0x1 DUP1 SLOAD SWAP1 POP DUP2 LT ISZERO PUSH2 0x2BC JUMPI DUP3 PUSH1 0x1 DUP3 DUP2 SLOAD DUP2 LT PUSH2 0x295 JUMPI PUSH2 0x294 PUSH2 0xB81 JUMP JUMPDEST JUMPDEST SWAP1 PUSH1 0x0 MSTORE PUSH1 0x20 PUSH1 0x0 KECCAK256 ADD SLOAD SUB PUSH2 0x2AF JUMPI PUSH1 0x1 SWAP2 POP POP PUSH2 0x2C2 JUMP JUMPDEST DUP1 DUP1 PUSH1 0x1 ADD SWAP2 POP POP PUSH2 0x273 JUMP JUMPDEST POP PUSH1 0x0 SWAP1 POP JUMPDEST SWAP2 SWAP1 POP JUMP JUMPDEST PUSH1 0x0 PUSH1 0x2 PUSH1 0x0 SWAP1 SLOAD SWAP1 PUSH2 0x100 EXP SWAP1 DIV PUSH20 0xFFFFFFFFFFFFFFFFFFFFFFFFFFFFFFFFFFFFFFFF AND SWAP1 POP SWAP1 JUMP JUMPDEST PUSH1 0x1 DUP2 SWAP1 DUP1 PUSH1 0x1 DUP2 SLOAD ADD DUP1 DUP3 SSTORE DUP1 SWAP2 POP POP PUSH1 0x1 SWAP1 SUB SWAP1 PUSH1 0x0 MSTORE PUSH1 0x20 PUSH1 0x0 KECCAK256 ADD PUSH1 0x0 SWAP1 SWAP2 SWAP1 SWAP2 SWAP1 SWAP2 POP SSTORE POP JUMP JUMPDEST PUSH1 0x0 PUSH2 0x328 DUP3 PUSH2 0x543 JUMP JUMPDEST ISZERO PUSH2 0x35E JUMPI PUSH1 0x0 PUSH2 0x338 DUP4 PUSH2 0x5A6 JUMP JUMPDEST DUP2 SLOAD DUP2 LT PUSH2 0x349 JUMPI PUSH2 0x348 PUSH2 0xB81 JUMP JUMPDEST JUMPDEST SWAP1 PUSH1 0x0 MSTORE PUSH1 0x20 PUSH1 0x0 KECCAK256 SWAP1 PUSH1 0x2 MUL ADD SWAP1 POP PUSH2 0x3B4 JUMP JUMPDEST PUSH1 0x0 DUP1 DUP1 SLOAD SWAP1 POP SWAP1 POP PUSH1 0x0 PUSH1 0x1 DUP2 PUSH1 0x1 DUP2 SLOAD ADD DUP1 DUP3 SSTORE DUP1 SWAP2 POP POP SUB SWAP1 PUSH1 0x0 MSTORE PUSH1 0x20 PUSH1 0x0 KECCAK256 SWAP1 POP POP PUSH1 0x0 DUP2 DUP2 SLOAD DUP2 LT PUSH2 0x399 JUMPI PUSH2 0x398 PUSH2 0xB81 JUMP JUMPDEST JUMPDEST SWAP1 PUSH1 0x0 MSTORE PUSH1 0x20 PUSH1 0x0 KECCAK256 SWAP1 PUSH1 0x2 MUL ADD SWAP2 POP DUP3 DUP3 PUSH1 0x0 ADD DUP2 SWAP1 SSTORE POP POP JUMPDEST PUSH2 0x3BE DUP4 DUP4 PUSH2 0x63E JUMP JUMPDEST PUSH2 0x42C JUMPI DUP4 DUP2 PUSH1 0x1 ADD PUSH1 0x0 DUP6 DUP2 MSTORE PUSH1 0x20 ADD SWAP1 DUP2 MSTORE PUSH1 0x20 ADD PUSH1 0x0 KECCAK256 SWAP1 DUP2 PUSH2 0x3E4 SWAP2 SWAP1 PUSH2 0xDBC JUMP JUMPDEST POP PUSH1 0x0 DUP3 EQ PUSH2 0x427 JUMPI PUSH32 0x49AB53CDEA5F88886E786F4C17A329D3E9AC6800979F6B4341C16615DA8071DD DUP4 DUP4 PUSH1 0x40 MLOAD PUSH2 0x41E SWAP3 SWAP2 SWAP1 PUSH2 0xE8E JUMP JUMPDEST PUSH1 0x40 MLOAD DUP1 SWAP2 SUB SWAP1 LOG1 JUMPDEST PUSH2 0x467 JUMP JUMPDEST PUSH1 0x40 MLOAD PUSH32 0x8C379A000000000000000000000000000000000000000000000000000000000 DUP2 MSTORE PUSH1 0x4 ADD PUSH2 0x45E SWAP1 PUSH2 0xF03 JUMP JUMPDEST PUSH1 0x40 MLOAD DUP1 SWAP2 SUB SWAP1 REVERT JUMPDEST POP POP POP POP JUMP JUMPDEST PUSH1 0x60 PUSH1 0x0 DUP1 PUSH2 0x47B DUP5 PUSH2 0x5A6 JUMP JUMPDEST DUP2 SLOAD DUP2 LT PUSH2 0x48C JUMPI PUSH2 0x48B PUSH2 0xB81 JUMP JUMPDEST JUMPDEST SWAP1 PUSH1 0x0 MSTORE PUSH1 0x20 PUSH1 0x0 KECCAK256 SWAP1 PUSH1 0x2 MUL ADD SWAP1 POP DUP1 PUSH1 0x1 ADD PUSH1 0x0 DUP6 DUP2 MSTORE PUSH1 0x20 ADD SWAP1 DUP2 MSTORE PUSH1 0x20 ADD PUSH1 0x0 KECCAK256 DUP1 SLOAD PUSH2 0x4BC SWAP1 PUSH2 0xBDF JUMP JUMPDEST DUP1 PUSH1 0x1F ADD PUSH1 0x20 DUP1 SWAP2 DIV MUL PUSH1 0x20 ADD PUSH1 0x40 MLOAD SWAP1 DUP2 ADD PUSH1 0x40 MSTORE DUP1 SWAP3 SWAP2 SWAP1 DUP2 DUP2 MSTORE PUSH1 0x20 ADD DUP3 DUP1 SLOAD PUSH2 0x4E8 SWAP1 PUSH2 0xBDF JUMP JUMPDEST DUP1 ISZERO PUSH2 0x535 JUMPI DUP1 PUSH1 0x1F LT PUSH2 0x50A JUMPI PUSH2 0x100 DUP1 DUP4 SLOAD DIV MUL DUP4 MSTORE SWAP2 PUSH1 0x20 ADD SWAP2 PUSH2 0x535 JUMP JUMPDEST DUP3 ADD SWAP2 SWAP1 PUSH1 0x0 MSTORE PUSH1 0x20 PUSH1 0x0 KECCAK256 SWAP1 JUMPDEST DUP2 SLOAD DUP2 MSTORE SWAP1 PUSH1 0x1 ADD SWAP1 PUSH1 0x20 ADD DUP1 DUP4 GT PUSH2 0x518 JUMPI DUP3 SWAP1 SUB PUSH1 0x1F AND DUP3 ADD SWAP2 JUMPDEST POP POP POP POP POP SWAP2 POP POP SWAP3 SWAP2 POP POP JUMP JUMPDEST PUSH1 0x0 DUP1 PUSH1 0x0 SWAP1 POP JUMPDEST PUSH1 0x0 DUP1 SLOAD SWAP1 POP DUP2 LT ISZERO PUSH2 0x59B JUMPI DUP3 PUSH1 0x0 DUP3 DUP2 SLOAD DUP2 LT PUSH2 0x56D JUMPI PUSH2 0x56C PUSH2 0xB81 JUMP JUMPDEST JUMPDEST SWAP1 PUSH1 0x0 MSTORE PUSH1 0x20 PUSH1 0x0 KECCAK256 SWAP1 PUSH1 0x2 MUL ADD PUSH1 0x0 ADD SLOAD SUB PUSH2 0x58E JUMPI PUSH1 0x1 SWAP2 POP POP PUSH2 0x5A1 JUMP JUMPDEST DUP1 DUP1 PUSH1 0x1 ADD SWAP2 POP POP PUSH2 0x54B JUMP JUMPDEST POP PUSH1 0x0 SWAP1 POP JUMPDEST SWAP2 SWAP1 POP JUMP JUMPDEST PUSH1 0x0 DUP1 PUSH1 0x0 SWAP1 POP JUMPDEST PUSH1 0x0 DUP1 SLOAD SWAP1 POP DUP2 LT ISZERO PUSH2 0x5FD JUMPI DUP3 PUSH1 0x0 DUP3 DUP2 SLOAD DUP2 LT PUSH2 0x5D0 JUMPI PUSH2 0x5CF PUSH2 0xB81 JUMP JUMPDEST JUMPDEST SWAP1 PUSH1 0x0 MSTORE PUSH1 0x20 PUSH1 0x0 KECCAK256 SWAP1 PUSH1 0x2 MUL ADD PUSH1 0x0 ADD SLOAD SUB PUSH2 0x5F0 JUMPI DUP1 SWAP2 POP POP PUSH2 0x639 JUMP JUMPDEST DUP1 DUP1 PUSH1 0x1 ADD SWAP2 POP POP PUSH2 0x5AE JUMP JUMPDEST POP PUSH1 0x40 MLOAD PUSH32 0x8C379A000000000000000000000000000000000000000000000000000000000 DUP2 MSTORE PUSH1 0x4 ADD PUSH2 0x630 SWAP1 PUSH2 0xF6F JUMP JUMPDEST PUSH1 0x40 MLOAD DUP1 SWAP2 SUB SWAP1 REVERT JUMPDEST SWAP2 SWAP1 POP JUMP JUMPDEST PUSH1 0x0 DUP1 PUSH1 0x0 PUSH2 0x64C DUP5 PUSH2 0x5A6 JUMP JUMPDEST DUP2 SLOAD DUP2 LT PUSH2 0x65D JUMPI PUSH2 0x65C PUSH2 0xB81 JUMP JUMPDEST JUMPDEST SWAP1 PUSH1 0x0 MSTORE PUSH1 0x20 PUSH1 0x0 KECCAK256 SWAP1 PUSH1 0x2 MUL ADD SWAP1 POP PUSH1 0x40 MLOAD PUSH1 0x20 ADD PUSH2 0x67C SWAP1 PUSH2 0xFC0 JUMP JUMPDEST PUSH1 0x40 MLOAD PUSH1 0x20 DUP2 DUP4 SUB SUB DUP2 MSTORE SWAP1 PUSH1 0x40 MSTORE DUP1 MLOAD SWAP1 PUSH1 0x20 ADD KECCAK256 DUP2 PUSH1 0x1 ADD PUSH1 0x0 DUP7 DUP2 MSTORE PUSH1 0x20 ADD SWAP1 DUP2 MSTORE PUSH1 0x20 ADD PUSH1 0x0 KECCAK256 PUSH1 0x40 MLOAD PUSH1 0x20 ADD PUSH2 0x6B7 SWAP2 SWAP1 PUSH2 0x1058 JUMP JUMPDEST PUSH1 0x40 MLOAD PUSH1 0x20 DUP2 DUP4 SUB SUB DUP2 MSTORE SWAP1 PUSH1 0x40 MSTORE DUP1 MLOAD SWAP1 PUSH1 0x20 ADD KECCAK256 EQ ISZERO SWAP2 POP POP SWAP3 SWAP2 POP POP JUMP JUMPDEST PUSH1 0x0 PUSH1 0x40 MLOAD SWAP1 POP SWAP1 JUMP JUMPDEST PUSH1 0x0 DUP1 REVERT JUMPDEST PUSH1 0x0 DUP1 REVERT JUMPDEST PUSH1 0x0 DUP2 SWAP1 POP SWAP2 SWAP1 POP JUMP JUMPDEST PUSH2 0x6FF DUP2 PUSH2 0x6EC JUMP JUMPDEST DUP2 EQ PUSH2 0x70A JUMPI PUSH1 0x0 DUP1 REVERT JUMPDEST POP JUMP JUMPDEST PUSH1 0x0 DUP2 CALLDATALOAD SWAP1 POP PUSH2 0x71C DUP2 PUSH2 0x6F6 JUMP JUMPDEST SWAP3 SWAP2 POP POP JUMP JUMPDEST PUSH1 0x0 PUSH1 0x20 DUP3 DUP5 SUB SLT ISZERO PUSH2 0x738 JUMPI PUSH2 0x737 PUSH2 0x6E2 JUMP JUMPDEST JUMPDEST PUSH1 0x0 PUSH2 0x746 DUP5 DUP3 DUP6 ADD PUSH2 0x70D JUMP JUMPDEST SWAP2 POP POP SWAP3 SWAP2 POP POP JUMP JUMPDEST PUSH2 0x758 DUP2 PUSH2 0x6EC JUMP JUMPDEST DUP3 MSTORE POP POP JUMP JUMPDEST PUSH1 0x0 PUSH1 0x20 DUP3 ADD SWAP1 POP PUSH2 0x773 PUSH1 0x0 DUP4 ADD DUP5 PUSH2 0x74F JUMP JUMPDEST SWAP3 SWAP2 POP POP JUMP JUMPDEST PUSH1 0x0 DUP2 MLOAD SWAP1 POP SWAP2 SWAP1 POP JUMP JUMPDEST PUSH1 0x0 DUP3 DUP3 MSTORE PUSH1 0x20 DUP3 ADD SWAP1 POP SWAP3 SWAP2 POP POP JUMP JUMPDEST PUSH1 0x0 DUP2 SWAP1 POP PUSH1 0x20 DUP3 ADD SWAP1 POP SWAP2 SWAP1 POP JUMP JUMPDEST PUSH2 0x7AE DUP2 PUSH2 0x6EC JUMP JUMPDEST DUP3 MSTORE POP POP JUMP JUMPDEST PUSH1 0x0 PUSH2 0x7C0 DUP4 DUP4 PUSH2 0x7A5 JUMP JUMPDEST PUSH1 0x20 DUP4 ADD SWAP1 POP SWAP3 SWAP2 POP POP JUMP JUMPDEST PUSH1 0x0 PUSH1 0x20 DUP3 ADD SWAP1 POP SWAP2 SWAP1 POP JUMP JUMPDEST PUSH1 0x0 PUSH2 0x7E4 DUP3 PUSH2 0x779 JUMP JUMPDEST PUSH2 0x7EE DUP2 DUP6 PUSH2 0x784 JUMP JUMPDEST SWAP4 POP PUSH2 0x7F9 DUP4 PUSH2 0x795 JUMP JUMPDEST DUP1 PUSH1 0x0 JUMPDEST DUP4 DUP2 LT ISZERO PUSH2 0x82A JUMPI DUP2 MLOAD PUSH2 0x811 DUP9 DUP3 PUSH2 0x7B4 JUMP JUMPDEST SWAP8 POP PUSH2 0x81C DUP4 PUSH2 0x7CC JUMP JUMPDEST SWAP3 POP POP PUSH1 0x1 DUP2 ADD SWAP1 POP PUSH2 0x7FD JUMP JUMPDEST POP DUP6 SWAP4 POP POP POP POP SWAP3 SWAP2 POP POP JUMP JUMPDEST PUSH1 0x0 PUSH1 0x20 DUP3 ADD SWAP1 POP DUP2 DUP2 SUB PUSH1 0x0 DUP4 ADD MSTORE PUSH2 0x851 DUP2 DUP5 PUSH2 0x7D9 JUMP JUMPDEST SWAP1 POP SWAP3 SWAP2 POP POP JUMP JUMPDEST PUSH1 0x0 DUP2 ISZERO ISZERO SWAP1 POP SWAP2 SWAP1 POP JUMP JUMPDEST PUSH2 0x86E DUP2 PUSH2 0x859 JUMP JUMPDEST DUP3 MSTORE POP POP JUMP JUMPDEST PUSH1 0x0 PUSH1 0x20 DUP3 ADD SWAP1 POP PUSH2 0x889 PUSH1 0x0 DUP4 ADD DUP5 PUSH2 0x865 JUMP JUMPDEST SWAP3 SWAP2 POP POP JUMP JUMPDEST PUSH1 0x0 PUSH20 0xFFFFFFFFFFFFFFFFFFFFFFFFFFFFFFFFFFFFFFFF DUP3 AND SWAP1 POP SWAP2 SWAP1 POP JUMP JUMPDEST PUSH1 0x0 PUSH2 0x8BA DUP3 PUSH2 0x88F JUMP JUMPDEST SWAP1 POP SWAP2 SWAP1 POP JUMP JUMPDEST PUSH2 0x8CA DUP2 PUSH2 0x8AF JUMP JUMPDEST DUP3 MSTORE POP POP JUMP JUMPDEST PUSH1 0x0 PUSH1 0x20 DUP3 ADD SWAP1 POP PUSH2 0x8E5 PUSH1 0x0 DUP4 ADD DUP5 PUSH2 0x8C1 JUMP JUMPDEST SWAP3 SWAP2 POP POP JUMP JUMPDEST PUSH1 0x0 DUP1 REVERT JUMPDEST PUSH1 0x0 DUP1 REVERT JUMPDEST PUSH1 0x0 PUSH1 0x1F NOT PUSH1 0x1F DUP4 ADD AND SWAP1 POP SWAP2 SWAP1 POP JUMP JUMPDEST PUSH32 0x4E487B7100000000000000000000000000000000000000000000000000000000 PUSH1 0x0 MSTORE PUSH1 0x41 PUSH1 0x4 MSTORE PUSH1 0x24 PUSH1 0x0 REVERT JUMPDEST PUSH2 0x93E DUP3 PUSH2 0x8F5 JUMP JUMPDEST DUP2 ADD DUP2 DUP2 LT PUSH8 0xFFFFFFFFFFFFFFFF DUP3 GT OR ISZERO PUSH2 0x95D JUMPI PUSH2 0x95C PUSH2 0x906 JUMP JUMPDEST JUMPDEST DUP1 PUSH1 0x40 MSTORE POP POP POP JUMP JUMPDEST PUSH1 0x0 PUSH2 0x970 PUSH2 0x6D8 JUMP JUMPDEST SWAP1 POP PUSH2 0x97C DUP3 DUP3 PUSH2 0x935 JUMP JUMPDEST SWAP2 SWAP1 POP JUMP JUMPDEST PUSH1 0x0 PUSH8 0xFFFFFFFFFFFFFFFF DUP3 GT ISZERO PUSH2 0x99C JUMPI PUSH2 0x99B PUSH2 0x906 JUMP JUMPDEST JUMPDEST PUSH2 0x9A5 DUP3 PUSH2 0x8F5 JUMP JUMPDEST SWAP1 POP PUSH1 0x20 DUP2 ADD SWAP1 POP SWAP2 SWAP1 POP JUMP JUMPDEST DUP3 DUP2 DUP4 CALLDATACOPY PUSH1 0x0 DUP4 DUP4 ADD MSTORE POP POP POP JUMP JUMPDEST PUSH1 0x0 PUSH2 0x9D4 PUSH2 0x9CF DUP5 PUSH2 0x981 JUMP JUMPDEST PUSH2 0x966 JUMP JUMPDEST SWAP1 POP DUP3 DUP2 MSTORE PUSH1 0x20 DUP2 ADD DUP5 DUP5 DUP5 ADD GT ISZERO PUSH2 0x9F0 JUMPI PUSH2 0x9EF PUSH2 0x8F0 JUMP JUMPDEST JUMPDEST PUSH2 0x9FB DUP5 DUP3 DUP6 PUSH2 0x9B2 JUMP JUMPDEST POP SWAP4 SWAP3 POP POP POP JUMP JUMPDEST PUSH1 0x0 DUP3 PUSH1 0x1F DUP4 ADD SLT PUSH2 0xA18 JUMPI PUSH2 0xA17 PUSH2 0x8EB JUMP JUMPDEST JUMPDEST DUP2 CALLDATALOAD PUSH2 0xA28 DUP5 DUP3 PUSH1 0x20 DUP7 ADD PUSH2 0x9C1 JUMP JUMPDEST SWAP2 POP POP SWAP3 SWAP2 POP POP JUMP JUMPDEST PUSH1 0x0 DUP1 PUSH1 0x0 PUSH1 0x60 DUP5 DUP7 SUB SLT ISZERO PUSH2 0xA4A JUMPI PUSH2 0xA49 PUSH2 0x6E2 JUMP JUMPDEST JUMPDEST PUSH1 0x0 DUP5 ADD CALLDATALOAD PUSH8 0xFFFFFFFFFFFFFFFF DUP2 GT ISZERO PUSH2 0xA68 JUMPI PUSH2 0xA67 PUSH2 0x6E7 JUMP JUMPDEST JUMPDEST PUSH2 0xA74 DUP7 DUP3 DUP8 ADD PUSH2 0xA03 JUMP JUMPDEST SWAP4 POP POP PUSH1 0x20 PUSH2 0xA85 DUP7 DUP3 DUP8 ADD PUSH2 0x70D JUMP JUMPDEST SWAP3 POP POP PUSH1 0x40 PUSH2 0xA96 DUP7 DUP3 DUP8 ADD PUSH2 0x70D JUMP JUMPDEST SWAP2 POP POP SWAP3 POP SWAP3 POP SWAP3 JUMP JUMPDEST PUSH1 0x0 DUP1 PUSH1 0x40 DUP4 DUP6 SUB SLT ISZERO PUSH2 0xAB7 JUMPI PUSH2 0xAB6 PUSH2 0x6E2 JUMP JUMPDEST JUMPDEST PUSH1 0x0 PUSH2 0xAC5 DUP6 DUP3 DUP7 ADD PUSH2 0x70D JUMP JUMPDEST SWAP3 POP POP PUSH1 0x20 PUSH2 0xAD6 DUP6 DUP3 DUP7 ADD PUSH2 0x70D JUMP JUMPDEST SWAP2 POP POP SWAP3 POP SWAP3 SWAP1 POP JUMP JUMPDEST PUSH1 0x0 DUP2 MLOAD SWAP1 POP SWAP2 SWAP1 POP JUMP JUMPDEST PUSH1 0x0 DUP3 DUP3 MSTORE PUSH1 0x20 DUP3 ADD SWAP1 POP SWAP3 SWAP2 POP POP JUMP JUMPDEST PUSH1 0x0 JUMPDEST DUP4 DUP2 LT ISZERO PUSH2 0xB1A JUMPI DUP1 DUP3 ADD MLOAD DUP2 DUP5 ADD MSTORE PUSH1 0x20 DUP2 ADD SWAP1 POP PUSH2 0xAFF JUMP JUMPDEST PUSH1 0x0 DUP5 DUP5 ADD MSTORE POP POP POP POP JUMP JUMPDEST PUSH1 0x0 PUSH2 0xB31 DUP3 PUSH2 0xAE0 JUMP JUMPDEST PUSH2 0xB3B DUP2 DUP6 PUSH2 0xAEB JUMP JUMPDEST SWAP4 POP PUSH2 0xB4B DUP2 DUP6 PUSH1 0x20 DUP7 ADD PUSH2 0xAFC JUMP JUMPDEST PUSH2 0xB54 DUP2 PUSH2 0x8F5 JUMP JUMPDEST DUP5 ADD SWAP2 POP POP SWAP3 SWAP2 POP POP JUMP JUMPDEST PUSH1 0x0 PUSH1 0x20 DUP3 ADD SWAP1 POP DUP2 DUP2 SUB PUSH1 0x0 DUP4 ADD MSTORE PUSH2 0xB79 DUP2 DUP5 PUSH2 0xB26 JUMP JUMPDEST SWAP1 POP SWAP3 SWAP2 POP POP JUMP JUMPDEST PUSH32 0x4E487B7100000000000000000000000000000000000000000000000000000000 PUSH1 0x0 MSTORE PUSH1 0x32 PUSH1 0x4 MSTORE PUSH1 0x24 PUSH1 0x0 REVERT JUMPDEST PUSH32 0x4E487B7100000000000000000000000000000000000000000000000000000000 PUSH1 0x0 MSTORE PUSH1 0x22 PUSH1 0x4 MSTORE PUSH1 0x24 PUSH1 0x0 REVERT JUMPDEST PUSH1 0x0 PUSH1 0x2 DUP3 DIV SWAP1 POP PUSH1 0x1 DUP3 AND DUP1 PUSH2 0xBF7 JUMPI PUSH1 0x7F DUP3 AND SWAP2 POP JUMPDEST PUSH1 0x20 DUP3 LT DUP2 SUB PUSH2 0xC0A JUMPI PUSH2 0xC09 PUSH2 0xBB0 JUMP JUMPDEST JUMPDEST POP SWAP2 SWAP1 POP JUMP JUMPDEST PUSH1 0x0 DUP2 SWAP1 POP DUP2 PUSH1 0x0 MSTORE PUSH1 0x20 PUSH1 0x0 KECCAK256 SWAP1 POP SWAP2 SWAP1 POP JUMP JUMPDEST PUSH1 0x0 PUSH1 0x20 PUSH1 0x1F DUP4 ADD DIV SWAP1 POP SWAP2 SWAP1 POP JUMP JUMPDEST PUSH1 0x0 DUP3 DUP3 SHL SWAP1 POP SWAP3 SWAP2 POP POP JUMP JUMPDEST PUSH1 0x0 PUSH1 0x8 DUP4 MUL PUSH2 0xC72 PUSH32 0xFFFFFFFFFFFFFFFFFFFFFFFFFFFFFFFFFFFFFFFFFFFFFFFFFFFFFFFFFFFFFFFF DUP3 PUSH2 0xC35 JUMP JUMPDEST PUSH2 0xC7C DUP7 DUP4 PUSH2 0xC35 JUMP JUMPDEST SWAP6 POP DUP1 NOT DUP5 AND SWAP4 POP DUP1 DUP7 AND DUP5 OR SWAP3 POP POP POP SWAP4 SWAP3 POP POP POP JUMP JUMPDEST PUSH1 0x0 DUP2 SWAP1 POP SWAP2 SWAP1 POP JUMP JUMPDEST PUSH1 0x0 PUSH2 0xCB9 PUSH2 0xCB4 PUSH2 0xCAF DUP5 PUSH2 0x6EC JUMP JUMPDEST PUSH2 0xC94 JUMP JUMPDEST PUSH2 0x6EC JUMP JUMPDEST SWAP1 POP SWAP2 SWAP1 POP JUMP JUMPDEST PUSH1 0x0 DUP2 SWAP1 POP SWAP2 SWAP1 POP JUMP JUMPDEST PUSH2 0xCD3 DUP4 PUSH2 0xC9E JUMP JUMPDEST PUSH2 0xCE7 PUSH2 0xCDF DUP3 PUSH2 0xCC0 JUMP JUMPDEST DUP5 DUP5 SLOAD PUSH2 0xC42 JUMP JUMPDEST DUP3 SSTORE POP POP POP POP JUMP JUMPDEST PUSH1 0x0 SWAP1 JUMP JUMPDEST PUSH2 0xCFC PUSH2 0xCEF JUMP JUMPDEST PUSH2 0xD07 DUP2 DUP5 DUP5 PUSH2 0xCCA JUMP JUMPDEST POP POP POP JUMP JUMPDEST JUMPDEST DUP2 DUP2 LT ISZERO PUSH2 0xD2B JUMPI PUSH2 0xD20 PUSH1 0x0 DUP3 PUSH2 0xCF4 JUMP JUMPDEST PUSH1 0x1 DUP2 ADD SWAP1 POP PUSH2 0xD0D JUMP JUMPDEST POP POP JUMP JUMPDEST PUSH1 0x1F DUP3 GT ISZERO PUSH2 0xD70 JUMPI PUSH2 0xD41 DUP2 PUSH2 0xC10 JUMP JUMPDEST PUSH2 0xD4A DUP5 PUSH2 0xC25 JUMP JUMPDEST DUP2 ADD PUSH1 0x20 DUP6 LT ISZERO PUSH2 0xD59 JUMPI DUP2 SWAP1 POP JUMPDEST PUSH2 0xD6D PUSH2 0xD65 DUP6 PUSH2 0xC25 JUMP JUMPDEST DUP4 ADD DUP3 PUSH2 0xD0C JUMP JUMPDEST POP POP JUMPDEST POP POP POP JUMP JUMPDEST PUSH1 0x0 DUP3 DUP3 SHR SWAP1 POP SWAP3 SWAP2 POP POP JUMP JUMPDEST PUSH1 0x0 PUSH2 0xD93 PUSH1 0x0 NOT DUP5 PUSH1 0x8 MUL PUSH2 0xD75 JUMP JUMPDEST NOT DUP1 DUP4 AND SWAP2 POP POP SWAP3 SWAP2 POP POP JUMP JUMPDEST PUSH1 0x0 PUSH2 0xDAC DUP4 DUP4 PUSH2 0xD82 JUMP JUMPDEST SWAP2 POP DUP3 PUSH1 0x2 MUL DUP3 OR SWAP1 POP SWAP3 SWAP2 POP POP JUMP JUMPDEST PUSH2 0xDC5 DUP3 PUSH2 0xAE0 JUMP JUMPDEST PUSH8 0xFFFFFFFFFFFFFFFF DUP2 GT ISZERO PUSH2 0xDDE JUMPI PUSH2 0xDDD PUSH2 0x906 JUMP JUMPDEST JUMPDEST PUSH2 0xDE8 DUP3 SLOAD PUSH2 0xBDF JUMP JUMPDEST PUSH2 0xDF3 DUP3 DUP3 DUP6 PUSH2 0xD2F JUMP JUMPDEST PUSH1 0x0 PUSH1 0x20 SWAP1 POP PUSH1 0x1F DUP4 GT PUSH1 0x1 DUP2 EQ PUSH2 0xE26 JUMPI PUSH1 0x0 DUP5 ISZERO PUSH2 0xE14 JUMPI DUP3 DUP8 ADD MLOAD SWAP1 POP JUMPDEST PUSH2 0xE1E DUP6 DUP3 PUSH2 0xDA0 JUMP JUMPDEST DUP7 SSTORE POP PUSH2 0xE86 JUMP JUMPDEST PUSH1 0x1F NOT DUP5 AND PUSH2 0xE34 DUP7 PUSH2 0xC10 JUMP JUMPDEST PUSH1 0x0 JUMPDEST DUP3 DUP2 LT ISZERO PUSH2 0xE5C JUMPI DUP5 DUP10 ADD MLOAD DUP3 SSTORE PUSH1 0x1 DUP3 ADD SWAP2 POP PUSH1 0x20 DUP6 ADD SWAP5 POP PUSH1 0x20 DUP2 ADD SWAP1 POP PUSH2 0xE37 JUMP JUMPDEST DUP7 DUP4 LT ISZERO PUSH2 0xE79 JUMPI DUP5 DUP10 ADD MLOAD PUSH2 0xE75 PUSH1 0x1F DUP10 AND DUP3 PUSH2 0xD82 JUMP JUMPDEST DUP4 SSTORE POP JUMPDEST PUSH1 0x1 PUSH1 0x2 DUP9 MUL ADD DUP9 SSTORE POP POP POP JUMPDEST POP POP POP POP POP POP JUMP JUMPDEST PUSH1 0x0 PUSH1 0x40 DUP3 ADD SWAP1 POP PUSH2 0xEA3 PUSH1 0x0 DUP4 ADD DUP6 PUSH2 0x74F JUMP JUMPDEST PUSH2 0xEB0 PUSH1 0x20 DUP4 ADD DUP5 PUSH2 0x74F JUMP JUMPDEST SWAP4 SWAP3 POP POP POP JUMP JUMPDEST PUSH32 0x5765696768747320616C72656164792077726F74650000000000000000000000 PUSH1 0x0 DUP3 ADD MSTORE POP JUMP JUMPDEST PUSH1 0x0 PUSH2 0xEED PUSH1 0x15 DUP4 PUSH2 0xAEB JUMP JUMPDEST SWAP2 POP PUSH2 0xEF8 DUP3 PUSH2 0xEB7 JUMP JUMPDEST PUSH1 0x20 DUP3 ADD SWAP1 POP SWAP2 SWAP1 POP JUMP JUMPDEST PUSH1 0x0 PUSH1 0x20 DUP3 ADD SWAP1 POP DUP2 DUP2 SUB PUSH1 0x0 DUP4 ADD MSTORE PUSH2 0xF1C DUP2 PUSH2 0xEE0 JUMP JUMPDEST SWAP1 POP SWAP2 SWAP1 POP JUMP JUMPDEST PUSH32 0x436C69656E74206E6F7420666F756E6400000000000000000000000000000000 PUSH1 0x0 DUP3 ADD MSTORE POP JUMP JUMPDEST PUSH1 0x0 PUSH2 0xF59 PUSH1 0x10 DUP4 PUSH2 0xAEB JUMP JUMPDEST SWAP2 POP PUSH2 0xF64 DUP3 PUSH2 0xF23 JUMP JUMPDEST PUSH1 0x20 DUP3 ADD SWAP1 POP SWAP2 SWAP1 POP JUMP JUMPDEST PUSH1 0x0 PUSH1 0x20 DUP3 ADD SWAP1 POP DUP2 DUP2 SUB PUSH1 0x0 DUP4 ADD MSTORE PUSH2 0xF88 DUP2 PUSH2 0xF4C JUMP JUMPDEST SWAP1 POP SWAP2 SWAP1 POP JUMP JUMPDEST PUSH1 0x0 DUP2 SWAP1 POP SWAP3 SWAP2 POP POP JUMP JUMPDEST POP JUMP JUMPDEST PUSH1 0x0 PUSH2 0xFAA PUSH1 0x0 DUP4 PUSH2 0xF8F JUMP JUMPDEST SWAP2 POP PUSH2 0xFB5 DUP3 PUSH2 0xF9A JUMP JUMPDEST PUSH1 0x0 DUP3 ADD SWAP1 POP SWAP2 SWAP1 POP JUMP JUMPDEST PUSH1 0x0 PUSH2 0xFCB DUP3 PUSH2 0xF9D JUMP JUMPDEST SWAP2 POP DUP2 SWAP1 POP SWAP2 SWAP1 POP JUMP JUMPDEST PUSH1 0x0 DUP2 SLOAD PUSH2 0xFE2 DUP2 PUSH2 0xBDF JUMP JUMPDEST PUSH2 0xFEC DUP2 DUP7 PUSH2 0xF8F JUMP JUMPDEST SWAP5 POP PUSH1 0x1 DUP3 AND PUSH1 0x0 DUP2 EQ PUSH2 0x1007 JUMPI PUSH1 0x1 DUP2 EQ PUSH2 0x101C JUMPI PUSH2 0x104F JUMP JUMPDEST PUSH1 0xFF NOT DUP4 AND DUP7 MSTORE DUP2 ISZERO ISZERO DUP3 MUL DUP7 ADD SWAP4 POP PUSH2 0x104F JUMP JUMPDEST PUSH2 0x1025 DUP6 PUSH2 0xC10 JUMP JUMPDEST PUSH1 0x0 JUMPDEST DUP4 DUP2 LT ISZERO PUSH2 0x1047 JUMPI DUP2 SLOAD DUP2 DUP10 ADD MSTORE PUSH1 0x1 DUP3 ADD SWAP2 POP PUSH1 0x20 DUP2 ADD SWAP1 POP PUSH2 0x1028 JUMP JUMPDEST DUP4 DUP9 ADD SWAP6 POP POP POP JUMPDEST POP POP POP SWAP3 SWAP2 POP POP JUMP JUMPDEST PUSH1 0x0 PUSH2 0x1064 DUP3 DUP5 PUSH2 0xFD5 JUMP JUMPDEST SWAP2 POP DUP2 SWAP1 POP SWAP3 SWAP2 POP POP JUMP INVALID LOG2 PUSH5 0x6970667358 0x22 SLT KECCAK256 PUSH21 0xE0C819B1891636CB7EE996BE5F6C5F4D27490A01FC 0xB4 0xA9 RETURNDATASIZE TIMESTAMP 0xD3 ADD JUMPDEST SSTORE 0xA5 DUP5 PUSH5 0x736F6C6343 STOP ADDMOD SHR STOP CALLER "},"methodIdentifiers":{"addRoundWeightsReference(string,uint256,uint256)":"8e442468","addToBlacklist(uint256)":"8b762e6c","blacklist(uint256)":"0f2a0919","getBlackList()":"360b97b9","getOwner()":"893d20e8","getWeightOfRoundOfClient(uint256,uint256)":"e6cba98d","isPoisonerCid(uint256)":"606e8a6b","weightsReferences(uint256)":"1c21cddc"}}}}}