{"src/blockchain/contracts/CheckWeights.sol":{"CheckWeights":{"abi":[{"inputs":[],"stateMutability":"nonpayable","type":"constructor"},{"anonymous":false,"inputs":[{"indexed":false,"internalType":"uint256","name":"round","type":"uint256"},{"indexed":false,"internalType":"uint256","name":"federatedCid","type":"uint256"}],"name":"WroteWeightsOfRoundForClient","type":"event"},{"inputs":[{"internalType":"string","name":"_weights","type":"string"},{"internalType":"uint256","name":"_round","type":"uint256"},{"internalType":"uint256","name":"_federatedCid","type":"uint256"}],"name":"addRoundWeightsReference","outputs":[],"stateMutability":"nonpayable","type":"function"},{"inputs":[{"internalType":"uint256","name":"_federatedCid","type":"uint256"}],"name":"addToBlacklist","outputs":[],"stateMutability":"nonpayable","type":"function"},{"inputs":[{"internalType":"uint256","name":"","type":"uint256"}],"name":"blacklist","outputs":[{"internalType":"uint256","name":"","type":"uint256"}],"stateMutability":"view","type":"function"},{"inputs":[],"name":"getOwner","outputs":[{"internalType":"address","name":"","type":"address"}],"stateMutability":"view","type":"function"},{"inputs":[{"internalType":"uint256","name":"_round","type":"uint256"},{"internalType":"uint256","name":"_federatedCid","type":"uint256"}],"name":"getWeightOfRoundOfClient","outputs":[{"internalType":"string","name":"","type":"string"}],"stateMutability":"view","type":"function"},{"inputs":[{"internalType":"uint256","name":"","type":"uint256"}],"name":"weightsReferences","outputs":[{"internalType":"uint256","name":"federatedCid","type":"uint256"}],"stateMutability":"view","type":"function"}],"evm":{"bytecode":{"linkReferences":{},"object":"6080604052348015600f57600080fd5b5033600260006101000a81548173ffffffffffffffffffffffffffffffffffffffff021916908373ffffffffffffffffffffffffffffffffffffffff160217905550610e5e806100606000396000f3fe608060405234801561001057600080fd5b50600436106100625760003560e01c80630f2a0919146100675780631c21cddc14610097578063893d20e8146100c75780638b762e6c146100e55780638e44246814610101578063e6cba98d1461011d575b600080fd5b610081600480360381019061007c91906105f1565b61014d565b60405161008e919061062d565b60405180910390f35b6100b160048036038101906100ac91906105f1565b610171565b6040516100be919061062d565b60405180910390f35b6100cf61019f565b6040516100dc9190610689565b60405180910390f35b6100ff60048036038101906100fa91906105f1565b6101c9565b005b61011b600480360381019061011691906107ea565b6101f5565b005b61013760048036038101906101329190610859565b61033c565b6040516101449190610918565b60405180910390f35b6001818154811061015d57600080fd5b906000526020600020016000915090505481565b6000818154811061018157600080fd5b90600052602060002090600202016000915090508060000154905081565b6000600260009054906101000a900473ffffffffffffffffffffffffffffffffffffffff16905090565b600181908060018154018082558091505060019003906000526020600020016000909190919091505550565b600061020082610412565b1561023657600061021083610475565b815481106102215761022061093a565b5b9060005260206000209060020201905061028c565b600080805490509050600060018160018154018082558091505003906000526020600020905050600081815481106102715761027061093a565b5b90600052602060002090600202019150828260000181905550505b610296838361050d565b6102fb578381600101600085815260200190815260200160002090816102bc9190610b75565b507f49ab53cdea5f88886e786f4c17a329d3e9ac6800979f6b4341c16615da8071dd83836040516102ee929190610c47565b60405180910390a1610336565b6040517f08c379a000000000000000000000000000000000000000000000000000000000815260040161032d90610cbc565b60405180910390fd5b50505050565b606060008061034a84610475565b8154811061035b5761035a61093a565b5b90600052602060002090600202019050806001016000858152602001908152602001600020805461038b90610998565b80601f01602080910402602001604051908101604052809291908181526020018280546103b790610998565b80156104045780601f106103d957610100808354040283529160200191610404565b820191906000526020600020905b8154815290600101906020018083116103e757829003601f168201915b505050505091505092915050565b600080600090505b60008054905081101561046a57826000828154811061043c5761043b61093a565b5b9060005260206000209060020201600001540361045d576001915050610470565b808060010191505061041a565b50600090505b919050565b600080600090505b6000805490508110156104cc57826000828154811061049f5761049e61093a565b5b906000526020600020906002020160000154036104bf5780915050610508565b808060010191505061047d565b506040517f08c379a00000000000000000000000000000000000000000000000000000000081526004016104ff90610d28565b60405180910390fd5b919050565b600080600061051b84610475565b8154811061052c5761052b61093a565b5b9060005260206000209060020201905060405160200161054b90610d79565b604051602081830303815290604052805190602001208160010160008681526020019081526020016000206040516020016105869190610e11565b60405160208183030381529060405280519060200120141591505092915050565b6000604051905090565b600080fd5b600080fd5b6000819050919050565b6105ce816105bb565b81146105d957600080fd5b50565b6000813590506105eb816105c5565b92915050565b600060208284031215610607576106066105b1565b5b6000610615848285016105dc565b91505092915050565b610627816105bb565b82525050565b6000602082019050610642600083018461061e565b92915050565b600073ffffffffffffffffffffffffffffffffffffffff82169050919050565b600061067382610648565b9050919050565b61068381610668565b82525050565b600060208201905061069e600083018461067a565b92915050565b600080fd5b600080fd5b6000601f19601f8301169050919050565b7f4e487b7100000000000000000000000000000000000000000000000000000000600052604160045260246000fd5b6106f7826106ae565b810181811067ffffffffffffffff82111715610716576107156106bf565b5b80604052505050565b60006107296105a7565b905061073582826106ee565b919050565b600067ffffffffffffffff821115610755576107546106bf565b5b61075e826106ae565b9050602081019050919050565b82818337600083830152505050565b600061078d6107888461073a565b61071f565b9050828152602081018484840111156107a9576107a86106a9565b5b6107b484828561076b565b509392505050565b600082601f8301126107d1576107d06106a4565b5b81356107e184826020860161077a565b91505092915050565b600080600060608486031215610803576108026105b1565b5b600084013567ffffffffffffffff811115610821576108206105b6565b5b61082d868287016107bc565b935050602061083e868287016105dc565b925050604061084f868287016105dc565b9150509250925092565b600080604083850312156108705761086f6105b1565b5b600061087e858286016105dc565b925050602061088f858286016105dc565b9150509250929050565b600081519050919050565b600082825260208201905092915050565b60005b838110156108d35780820151818401526020810190506108b8565b60008484015250505050565b60006108ea82610899565b6108f481856108a4565b93506109048185602086016108b5565b61090d816106ae565b840191505092915050565b6000602082019050818103600083015261093281846108df565b905092915050565b7f4e487b7100000000000000000000000000000000000000000000000000000000600052603260045260246000fd5b7f4e487b7100000000000000000000000000000000000000000000000000000000600052602260045260246000fd5b600060028204905060018216806109b057607f821691505b6020821081036109c3576109c2610969565b5b50919050565b60008190508160005260206000209050919050565b60006020601f8301049050919050565b600082821b905092915050565b600060088302610a2b7fffffffffffffffffffffffffffffffffffffffffffffffffffffffffffffffff826109ee565b610a3586836109ee565b95508019841693508086168417925050509392505050565b6000819050919050565b6000610a72610a6d610a68846105bb565b610a4d565b6105bb565b9050919050565b6000819050919050565b610a8c83610a57565b610aa0610a9882610a79565b8484546109fb565b825550505050565b600090565b610ab5610aa8565b610ac0818484610a83565b505050565b5b81811015610ae457610ad9600082610aad565b600181019050610ac6565b5050565b601f821115610b2957610afa816109c9565b610b03846109de565b81016020851015610b12578190505b610b26610b1e856109de565b830182610ac5565b50505b505050565b600082821c905092915050565b6000610b4c60001984600802610b2e565b1980831691505092915050565b6000610b658383610b3b565b9150826002028217905092915050565b610b7e82610899565b67ffffffffffffffff811115610b9757610b966106bf565b5b610ba18254610998565b610bac828285610ae8565b600060209050601f831160018114610bdf5760008415610bcd578287015190505b610bd78582610b59565b865550610c3f565b601f198416610bed866109c9565b60005b82811015610c1557848901518255600182019150602085019450602081019050610bf0565b86831015610c325784890151610c2e601f891682610b3b565b8355505b6001600288020188555050505b505050505050565b6000604082019050610c5c600083018561061e565b610c69602083018461061e565b9392505050565b7f5765696768747320616c72656164792077726f74650000000000000000000000600082015250565b6000610ca66015836108a4565b9150610cb182610c70565b602082019050919050565b60006020820190508181036000830152610cd581610c99565b9050919050565b7f436c69656e74206e6f7420666f756e6400000000000000000000000000000000600082015250565b6000610d126010836108a4565b9150610d1d82610cdc565b602082019050919050565b60006020820190508181036000830152610d4181610d05565b9050919050565b600081905092915050565b50565b6000610d63600083610d48565b9150610d6e82610d53565b600082019050919050565b6000610d8482610d56565b9150819050919050565b60008154610d9b81610998565b610da58186610d48565b94506001821660008114610dc05760018114610dd557610e08565b60ff1983168652811515820286019350610e08565b610dde856109c9565b60005b83811015610e0057815481890152600182019150602081019050610de1565b838801955050505b50505092915050565b6000610e1d8284610d8e565b91508190509291505056fea2646970667358221220cd6d7f3332022153ce8274919a01e34e0c7d4665ecfc253911f2805174d56d1264736f6c634300081c0033","opcodes":"PUSH1 0x80 PUSH1 0x40 MSTORE CALLVALUE DUP1 ISZERO PUSH1 0xF JUMPI PUSH1 0x0 DUP1 REVERT JUMPDEST POP CALLER PUSH1 0x2 PUSH1 0x0 PUSH2 0x100 EXP DUP2 SLOAD DUP2 PUSH20 0xFFFFFFFFFFFFFFFFFFFFFFFFFFFFFFFFFFFFFFFF MUL NOT AND SWAP1 DUP4 PUSH20 0xFFFFFFFFFFFFFFFFFFFFFFFFFFFFFFFFFFFFFFFF AND MUL OR SWAP1 SSTORE POP PUSH2 0xE5E DUP1 PUSH2 0x60 PUSH1 0x0 CODECOPY PUSH1 0x0 RETURN INVALID PUSH1 0x80 PUSH1 0x40 MSTORE CALLVALUE DUP1 ISZERO PUSH2 0x10 JUMPI PUSH1 0x0 DUP1 REVERT JUMPDEST POP PUSH1 0x4 CALLDATASIZE LT PUSH2 0x62 JUMPI PUSH1 0x0 CALLDATALOAD PUSH1 0xE0 SHR DUP1 PUSH4 0xF2A0919 EQ PUSH2 0x67 JUMPI DUP1 PUSH4 0x1C21CDDC EQ PUSH2 0x97 JUMPI DUP1 PUSH4 0x893D20E8 EQ PUSH2 0xC7 JUMPI DUP1 PUSH4 0x8B762E6C EQ PUSH2 0xE5 JUMPI DUP1 PUSH4 0x8E442468 EQ PUSH2 0x101 JUMPI DUP1 PUSH4 0xE6CBA98D EQ PUSH2 0x11D JUMPI JUMPDEST PUSH1 0x0 DUP1 REVERT JUMPDEST PUSH2 0x81 PUSH1 0x4 DUP1 CALLDATASIZE SUB DUP2 ADD SWAP1 PUSH2 0x7C SWAP2 SWAP1 PUSH2 0x5F1 JUMP JUMPDEST PUSH2 0x14D JUMP JUMPDEST PUSH1 0x40 MLOAD PUSH2 0x8E SWAP2 SWAP1 PUSH2 0x62D JUMP JUMPDEST PUSH1 0x40 MLOAD DUP1 SWAP2 SUB SWAP1 RETURN JUMPDEST PUSH2 0xB1 PUSH1 0x4 DUP1 CALLDATASIZE SUB DUP2 ADD SWAP1 PUSH2 0xAC SWAP2 SWAP1 PUSH2 0x5F1 JUMP JUMPDEST PUSH2 0x171 JUMP JUMPDEST PUSH1 0x40 MLOAD PUSH2 0xBE SWAP2 SWAP1 PUSH2 0x62D JUMP JUMPDEST PUSH1 0x40 MLOAD DUP1 SWAP2 SUB SWAP1 RETURN JUMPDEST PUSH2 0xCF PUSH2 0x19F JUMP JUMPDEST PUSH1 0x40 MLOAD PUSH2 0xDC SWAP2 SWAP1 PUSH2 0x689 JUMP JUMPDEST PUSH1 0x40 MLOAD DUP1 SWAP2 SUB SWAP1 RETURN JUMPDEST PUSH2 0xFF PUSH1 0x4 DUP1 CALLDATASIZE SUB DUP2 ADD SWAP1 PUSH2 0xFA SWAP2 SWAP1 PUSH2 0x5F1 JUMP JUMPDEST PUSH2 0x1C9 JUMP JUMPDEST STOP JUMPDEST PUSH2 0x11B PUSH1 0x4 DUP1 CALLDATASIZE SUB DUP2 ADD SWAP1 PUSH2 0x116 SWAP2 SWAP1 PUSH2 0x7EA JUMP JUMPDEST PUSH2 0x1F5 JUMP JUMPDEST STOP JUMPDEST PUSH2 0x137 PUSH1 0x4 DUP1 CALLDATASIZE SUB DUP2 ADD SWAP1 PUSH2 0x132 SWAP2 SWAP1 PUSH2 0x859 JUMP JUMPDEST PUSH2 0x33C JUMP JUMPDEST PUSH1 0x40 MLOAD PUSH2 0x144 SWAP2 SWAP1 PUSH2 0x918 JUMP JUMPDEST PUSH1 0x40 MLOAD DUP1 SWAP2 SUB SWAP1 RETURN JUMPDEST PUSH1 0x1 DUP2 DUP2 SLOAD DUP2 LT PUSH2 0x15D JUMPI PUSH1 0x0 DUP1 REVERT JUMPDEST SWAP1 PUSH1 0x0 MSTORE PUSH1 0x20 PUSH1 0x0 KECCAK256 ADD PUSH1 0x0 SWAP2 POP SWAP1 POP SLOAD DUP2 JUMP JUMPDEST PUSH1 0x0 DUP2 DUP2 SLOAD DUP2 LT PUSH2 0x181 JUMPI PUSH1 0x0 DUP1 REVERT JUMPDEST SWAP1 PUSH1 0x0 MSTORE PUSH1 0x20 PUSH1 0x0 KECCAK256 SWAP1 PUSH1 0x2 MUL ADD PUSH1 0x0 SWAP2 POP SWAP1 POP DUP1 PUSH1 0x0 ADD SLOAD SWAP1 POP DUP2 JUMP JUMPDEST PUSH1 0x0 PUSH1 0x2 PUSH1 0x0 SWAP1 SLOAD SWAP1 PUSH2 0x100 EXP SWAP1 DIV PUSH20 0xFFFFFFFFFFFFFFFFFFFFFFFFFFFFFFFFFFFFFFFF AND SWAP1 POP SWAP1 JUMP JUMPDEST PUSH1 0x1 DUP2 SWAP1 DUP1 PUSH1 0x1 DUP2 SLOAD ADD DUP1 DUP3 SSTORE DUP1 SWAP2 POP POP PUSH1 0x1 SWAP1 SUB SWAP1 PUSH1 0x0 MSTORE PUSH1 0x20 PUSH1 0x0 KECCAK256 ADD PUSH1 0x0 SWAP1 SWAP2 SWAP1 SWAP2 SWAP1 SWAP2 POP SSTORE POP JUMP JUMPDEST PUSH1 0x0 PUSH2 0x200 DUP3 PUSH2 0x412 JUMP JUMPDEST ISZERO PUSH2 0x236 JUMPI PUSH1 0x0 PUSH2 0x210 DUP4 PUSH2 0x475 JUMP JUMPDEST DUP2 SLOAD DUP2 LT PUSH2 0x221 JUMPI PUSH2 0x220 PUSH2 0x93A JUMP JUMPDEST JUMPDEST SWAP1 PUSH1 0x0 MSTORE PUSH1 0x20 PUSH1 0x0 KECCAK256 SWAP1 PUSH1 0x2 MUL ADD SWAP1 POP PUSH2 0x28C JUMP JUMPDEST PUSH1 0x0 DUP1 DUP1 SLOAD SWAP1 POP SWAP1 POP PUSH1 0x0 PUSH1 0x1 DUP2 PUSH1 0x1 DUP2 SLOAD ADD DUP1 DUP3 SSTORE DUP1 SWAP2 POP POP SUB SWAP1 PUSH1 0x0 MSTORE PUSH1 0x20 PUSH1 0x0 KECCAK256 SWAP1 POP POP PUSH1 0x0 DUP2 DUP2 SLOAD DUP2 LT PUSH2 0x271 JUMPI PUSH2 0x270 PUSH2 0x93A JUMP JUMPDEST JUMPDEST SWAP1 PUSH1 0x0 MSTORE PUSH1 0x20 PUSH1 0x0 KECCAK256 SWAP1 PUSH1 0x2 MUL ADD SWAP2 POP DUP3 DUP3 PUSH1 0x0 ADD DUP2 SWAP1 SSTORE POP POP JUMPDEST PUSH2 0x296 DUP4 DUP4 PUSH2 0x50D JUMP JUMPDEST PUSH2 0x2FB JUMPI DUP4 DUP2 PUSH1 0x1 ADD PUSH1 0x0 DUP6 DUP2 MSTORE PUSH1 0x20 ADD SWAP1 DUP2 MSTORE PUSH1 0x20 ADD PUSH1 0x0 KECCAK256 SWAP1 DUP2 PUSH2 0x2BC SWAP2 SWAP1 PUSH2 0xB75 JUMP JUMPDEST POP PUSH32 0x49AB53CDEA5F88886E786F4C17A329D3E9AC6800979F6B4341C16615DA8071DD DUP4 DUP4 PUSH1 0x40 MLOAD PUSH2 0x2EE SWAP3 SWAP2 SWAP1 PUSH2 0xC47 JUMP JUMPDEST PUSH1 0x40 MLOAD DUP1 SWAP2 SUB SWAP1 LOG1 PUSH2 0x336 JUMP JUMPDEST PUSH1 0x40 MLOAD PUSH32 0x8C379A000000000000000000000000000000000000000000000000000000000 DUP2 MSTORE PUSH1 0x4 ADD PUSH2 0x32D SWAP1 PUSH2 0xCBC JUMP JUMPDEST PUSH1 0x40 MLOAD DUP1 SWAP2 SUB SWAP1 REVERT JUMPDEST POP POP POP POP JUMP JUMPDEST PUSH1 0x60 PUSH1 0x0 DUP1 PUSH2 0x34A DUP5 PUSH2 0x475 JUMP JUMPDEST DUP2 SLOAD DUP2 LT PUSH2 0x35B JUMPI PUSH2 0x35A PUSH2 0x93A JUMP JUMPDEST JUMPDEST SWAP1 PUSH1 0x0 MSTORE PUSH1 0x20 PUSH1 0x0 KECCAK256 SWAP1 PUSH1 0x2 MUL ADD SWAP1 POP DUP1 PUSH1 0x1 ADD PUSH1 0x0 DUP6 DUP2 MSTORE PUSH1 0x20 ADD SWAP1 DUP2 MSTORE PUSH1 0x20 ADD PUSH1 0x0 KECCAK256 DUP1 SLOAD PUSH2 0x38B SWAP1 PUSH2 0x998 JUMP JUMPDEST DUP1 PUSH1 0x1F ADD PUSH1 0x20 DUP1 SWAP2 DIV MUL PUSH1 0x20 ADD PUSH1 0x40 MLOAD SWAP1 DUP2 ADD PUSH1 0x40 MSTORE DUP1 SWAP3 SWAP2 SWAP1 DUP2 DUP2 MSTORE PUSH1 0x20 ADD DUP3 DUP1 SLOAD PUSH2 0x3B7 SWAP1 PUSH2 0x998 JUMP JUMPDEST DUP1 ISZERO PUSH2 0x404 JUMPI DUP1 PUSH1 0x1F LT PUSH2 0x3D9 JUMPI PUSH2 0x100 DUP1 DUP4 SLOAD DIV MUL DUP4 MSTORE SWAP2 PUSH1 0x20 ADD SWAP2 PUSH2 0x404 JUMP JUMPDEST DUP3 ADD SWAP2 SWAP1 PUSH1 0x0 MSTORE PUSH1 0x20 PUSH1 0x0 KECCAK256 SWAP1 JUMPDEST DUP2 SLOAD DUP2 MSTORE SWAP1 PUSH1 0x1 ADD SWAP1 PUSH1 0x20 ADD DUP1 DUP4 GT PUSH2 0x3E7 JUMPI DUP3 SWAP1 SUB PUSH1 0x1F AND DUP3 ADD SWAP2 JUMPDEST POP POP POP POP POP SWAP2 POP POP SWAP3 SWAP2 POP POP JUMP JUMPDEST PUSH1 0x0 DUP1 PUSH1 0x0 SWAP1 POP JUMPDEST PUSH1 0x0 DUP1 SLOAD SWAP1 POP DUP2 LT ISZERO PUSH2 0x46A JUMPI DUP3 PUSH1 0x0 DUP3 DUP2 SLOAD DUP2 LT PUSH2 0x43C JUMPI PUSH2 0x43B PUSH2 0x93A JUMP JUMPDEST JUMPDEST SWAP1 PUSH1 0x0 MSTORE PUSH1 0x20 PUSH1 0x0 KECCAK256 SWAP1 PUSH1 0x2 MUL ADD PUSH1 0x0 ADD SLOAD SUB PUSH2 0x45D JUMPI PUSH1 0x1 SWAP2 POP POP PUSH2 0x470 JUMP JUMPDEST DUP1 DUP1 PUSH1 0x1 ADD SWAP2 POP POP PUSH2 0x41A JUMP JUMPDEST POP PUSH1 0x0 SWAP1 POP JUMPDEST SWAP2 SWAP1 POP JUMP JUMPDEST PUSH1 0x0 DUP1 PUSH1 0x0 SWAP1 POP JUMPDEST PUSH1 0x0 DUP1 SLOAD SWAP1 POP DUP2 LT ISZERO PUSH2 0x4CC JUMPI DUP3 PUSH1 0x0 DUP3 DUP2 SLOAD DUP2 LT PUSH2 0x49F JUMPI PUSH2 0x49E PUSH2 0x93A JUMP JUMPDEST JUMPDEST SWAP1 PUSH1 0x0 MSTORE PUSH1 0x20 PUSH1 0x0 KECCAK256 SWAP1 PUSH1 0x2 MUL ADD PUSH1 0x0 ADD SLOAD SUB PUSH2 0x4BF JUMPI DUP1 SWAP2 POP POP PUSH2 0x508 JUMP JUMPDEST DUP1 DUP1 PUSH1 0x1 ADD SWAP2 POP POP PUSH2 0x47D JUMP JUMPDEST POP PUSH1 0x40 MLOAD PUSH32 0x8C379A000000000000000000000000000000000000000000000000000000000 DUP2 MSTORE PUSH1 0x4 ADD PUSH2 0x4FF SWAP1 PUSH2 0xD28 JUMP JUMPDEST PUSH1 0x40 MLOAD DUP1 SWAP2 SUB SWAP1 REVERT JUMPDEST SWAP2 SWAP1 POP JUMP JUMPDEST PUSH1 0x0 DUP1 PUSH1 0x0 PUSH2 0x51B DUP5 PUSH2 0x475 JUMP JUMPDEST DUP2 SLOAD DUP2 LT PUSH2 0x52C JUMPI PUSH2 0x52B PUSH2 0x93A JUMP JUMPDEST JUMPDEST SWAP1 PUSH1 0x0 MSTORE PUSH1 0x20 PUSH1 0x0 KECCAK256 SWAP1 PUSH1 0x2 MUL ADD SWAP1 POP PUSH1 0x40 MLOAD PUSH1 0x20 ADD PUSH2 0x54B SWAP1 PUSH2 0xD79 JUMP JUMPDEST PUSH1 0x40 MLOAD PUSH1 0x20 DUP2 DUP4 SUB SUB DUP2 MSTORE SWAP1 PUSH1 0x40 MSTORE DUP1 MLOAD SWAP1 PUSH1 0x20 ADD KECCAK256 DUP2 PUSH1 0x1 ADD PUSH1 0x0 DUP7 DUP2 MSTORE PUSH1 0x20 ADD SWAP1 DUP2 MSTORE PUSH1 0x20 ADD PUSH1 0x0 KECCAK256 PUSH1 0x40 MLOAD PUSH1 0x20 ADD PUSH2 0x586 SWAP2 SWAP1 PUSH2 0xE11 JUMP JUMPDEST PUSH1 0x40 MLOAD PUSH1 0x20 DUP2 DUP4 SUB SUB DUP2 MSTORE SWAP1 PUSH1 0x40 MSTORE DUP1 MLOAD SWAP1 PUSH1 0x20 ADD KECCAK256 EQ ISZERO SWAP2 POP POP SWAP3 SWAP2 POP POP JUMP JUMPDEST PUSH1 0x0 PUSH1 0x40 MLOAD SWAP1 POP SWAP1 JUMP JUMPDEST PUSH1 0x0 DUP1 REVERT JUMPDEST PUSH1 0x0 DUP1 REVERT JUMPDEST PUSH1 0x0 DUP2 SWAP1 POP SWAP2 SWAP1 POP JUMP JUMPDEST PUSH2 0x5CE DUP2 PUSH2 0x5BB JUMP JUMPDEST DUP2 EQ PUSH2 0x5D9 JUMPI PUSH1 0x0 DUP1 REVERT JUMPDEST POP JUMP JUMPDEST PUSH1 0x0 DUP2 CALLDATALOAD SWAP1 POP PUSH2 0x5EB DUP2 PUSH2 0x5C5 JUMP JUMPDEST SWAP3 SWAP2 POP POP JUMP JUMPDEST PUSH1 0x0 PUSH1 0x20 DUP3 DUP5 SUB SLT ISZERO PUSH2 0x607 JUMPI PUSH2 0x606 PUSH2 0x5B1 JUMP JUMPDEST JUMPDEST PUSH1 0x0 PUSH2 0x615 DUP5 DUP3 DUP6 ADD PUSH2 0x5DC JUMP JUMPDEST SWAP2 POP POP SWAP3 SWAP2 POP POP JUMP JUMPDEST PUSH2 0x627 DUP2 PUSH2 0x5BB JUMP JUMPDEST DUP3 MSTORE POP POP JUMP JUMPDEST PUSH1 0x0 PUSH1 0x20 DUP3 ADD SWAP1 POP PUSH2 0x642 PUSH1 0x0 DUP4 ADD DUP5 PUSH2 0x61E JUMP JUMPDEST SWAP3 SWAP2 POP POP JUMP JUMPDEST PUSH1 0x0 PUSH20 0xFFFFFFFFFFFFFFFFFFFFFFFFFFFFFFFFFFFFFFFF DUP3 AND SWAP1 POP SWAP2 SWAP1 POP JUMP JUMPDEST PUSH1 0x0 PUSH2 0x673 DUP3 PUSH2 0x648 JUMP JUMPDEST SWAP1 POP SWAP2 SWAP1 POP JUMP JUMPDEST PUSH2 0x683 DUP2 PUSH2 0x668 JUMP JUMPDEST DUP3 MSTORE POP POP JUMP JUMPDEST PUSH1 0x0 PUSH1 0x20 DUP3 ADD SWAP1 POP PUSH2 0x69E PUSH1 0x0 DUP4 ADD DUP5 PUSH2 0x67A JUMP JUMPDEST SWAP3 SWAP2 POP POP JUMP JUMPDEST PUSH1 0x0 DUP1 REVERT JUMPDEST PUSH1 0x0 DUP1 REVERT JUMPDEST PUSH1 0x0 PUSH1 0x1F NOT PUSH1 0x1F DUP4 ADD AND SWAP1 POP SWAP2 SWAP1 POP JUMP JUMPDEST PUSH32 0x4E487B7100000000000000000000000000000000000000000000000000000000 PUSH1 0x0 MSTORE PUSH1 0x41 PUSH1 0x4 MSTORE PUSH1 0x24 PUSH1 0x0 REVERT JUMPDEST PUSH2 0x6F7 DUP3 PUSH2 0x6AE JUMP JUMPDEST DUP2 ADD DUP2 DUP2 LT PUSH8 0xFFFFFFFFFFFFFFFF DUP3 GT OR ISZERO PUSH2 0x716 JUMPI PUSH2 0x715 PUSH2 0x6BF JUMP JUMPDEST JUMPDEST DUP1 PUSH1 0x40 MSTORE POP POP POP JUMP JUMPDEST PUSH1 0x0 PUSH2 0x729 PUSH2 0x5A7 JUMP JUMPDEST SWAP1 POP PUSH2 0x735 DUP3 DUP3 PUSH2 0x6EE JUMP JUMPDEST SWAP2 SWAP1 POP JUMP JUMPDEST PUSH1 0x0 PUSH8 0xFFFFFFFFFFFFFFFF DUP3 GT ISZERO PUSH2 0x755 JUMPI PUSH2 0x754 PUSH2 0x6BF JUMP JUMPDEST JUMPDEST PUSH2 0x75E DUP3 PUSH2 0x6AE JUMP JUMPDEST SWAP1 POP PUSH1 0x20 DUP2 ADD SWAP1 POP SWAP2 SWAP1 POP JUMP JUMPDEST DUP3 DUP2 DUP4 CALLDATACOPY PUSH1 0x0 DUP4 DUP4 ADD MSTORE POP POP POP JUMP JUMPDEST PUSH1 0x0 PUSH2 0x78D PUSH2 0x788 DUP5 PUSH2 0x73A JUMP JUMPDEST PUSH2 0x71F JUMP JUMPDEST SWAP1 POP DUP3 DUP2 MSTORE PUSH1 0x20 DUP2 ADD DUP5 DUP5 DUP5 ADD GT ISZERO PUSH2 0x7A9 JUMPI PUSH2 0x7A8 PUSH2 0x6A9 JUMP JUMPDEST JUMPDEST PUSH2 0x7B4 DUP5 DUP3 DUP6 PUSH2 0x76B JUMP JUMPDEST POP SWAP4 SWAP3 POP POP POP JUMP JUMPDEST PUSH1 0x0 DUP3 PUSH1 0x1F DUP4 ADD SLT PUSH2 0x7D1 JUMPI PUSH2 0x7D0 PUSH2 0x6A4 JUMP JUMPDEST JUMPDEST DUP2 CALLDATALOAD PUSH2 0x7E1 DUP5 DUP3 PUSH1 0x20 DUP7 ADD PUSH2 0x77A JUMP JUMPDEST SWAP2 POP POP SWAP3 SWAP2 POP POP JUMP JUMPDEST PUSH1 0x0 DUP1 PUSH1 0x0 PUSH1 0x60 DUP5 DUP7 SUB SLT ISZERO PUSH2 0x803 JUMPI PUSH2 0x802 PUSH2 0x5B1 JUMP JUMPDEST JUMPDEST PUSH1 0x0 DUP5 ADD CALLDATALOAD PUSH8 0xFFFFFFFFFFFFFFFF DUP2 GT ISZERO PUSH2 0x821 JUMPI PUSH2 0x820 PUSH2 0x5B6 JUMP JUMPDEST JUMPDEST PUSH2 0x82D DUP7 DUP3 DUP8 ADD PUSH2 0x7BC JUMP JUMPDEST SWAP4 POP POP PUSH1 0x20 PUSH2 0x83E DUP7 DUP3 DUP8 ADD PUSH2 0x5DC JUMP JUMPDEST SWAP3 POP POP PUSH1 0x40 PUSH2 0x84F DUP7 DUP3 DUP8 ADD PUSH2 0x5DC JUMP JUMPDEST SWAP2 POP POP SWAP3 POP SWAP3 POP SWAP3 JUMP JUMPDEST PUSH1 0x0 DUP1 PUSH1 0x40 DUP4 DUP6 SUB SLT ISZERO PUSH2 0x870 JUMPI PUSH2 0x86F PUSH2 0x5B1 JUMP JUMPDEST JUMPDEST PUSH1 0x0 PUSH2 0x87E DUP6 DUP3 DUP7 ADD PUSH2 0x5DC JUMP JUMPDEST SWAP3 POP POP PUSH1 0x20 PUSH2 0x88F DUP6 DUP3 DUP7 ADD PUSH2 0x5DC JUMP JUMPDEST SWAP2 POP POP SWAP3 POP SWAP3 SWAP1 POP JUMP JUMPDEST PUSH1 0x0 DUP2 MLOAD SWAP1 POP SWAP2 SWAP1 POP JUMP JUMPDEST PUSH1 0x0 DUP3 DUP3 MSTORE PUSH1 0x20 DUP3 ADD SWAP1 POP SWAP3 SWAP2 POP POP JUMP JUMPDEST PUSH1 0x0 JUMPDEST DUP4 DUP2 LT ISZERO PUSH2 0x8D3 JUMPI DUP1 DUP3 ADD MLOAD DUP2 DUP5 ADD MSTORE PUSH1 0x20 DUP2 ADD SWAP1 POP PUSH2 0x8B8 JUMP JUMPDEST PUSH1 0x0 DUP5 DUP5 ADD MSTORE POP POP POP POP JUMP JUMPDEST PUSH1 0x0 PUSH2 0x8EA DUP3 PUSH2 0x899 JUMP JUMPDEST PUSH2 0x8F4 DUP2 DUP6 PUSH2 0x8A4 JUMP JUMPDEST SWAP4 POP PUSH2 0x904 DUP2 DUP6 PUSH1 0x20 DUP7 ADD PUSH2 0x8B5 JUMP JUMPDEST PUSH2 0x90D DUP2 PUSH2 0x6AE JUMP JUMPDEST DUP5 ADD SWAP2 POP POP SWAP3 SWAP2 POP POP JUMP JUMPDEST PUSH1 0x0 PUSH1 0x20 DUP3 ADD SWAP1 POP DUP2 DUP2 SUB PUSH1 0x0 DUP4 ADD MSTORE PUSH2 0x932 DUP2 DUP5 PUSH2 0x8DF JUMP JUMPDEST SWAP1 POP SWAP3 SWAP2 POP POP JUMP JUMPDEST PUSH32 0x4E487B7100000000000000000000000000000000000000000000000000000000 PUSH1 0x0 MSTORE PUSH1 0x32 PUSH1 0x4 MSTORE PUSH1 0x24 PUSH1 0x0 REVERT JUMPDEST PUSH32 0x4E487B7100000000000000000000000000000000000000000000000000000000 PUSH1 0x0 MSTORE PUSH1 0x22 PUSH1 0x4 MSTORE PUSH1 0x24 PUSH1 0x0 REVERT JUMPDEST PUSH1 0x0 PUSH1 0x2 DUP3 DIV SWAP1 POP PUSH1 0x1 DUP3 AND DUP1 PUSH2 0x9B0 JUMPI PUSH1 0x7F DUP3 AND SWAP2 POP JUMPDEST PUSH1 0x20 DUP3 LT DUP2 SUB PUSH2 0x9C3 JUMPI PUSH2 0x9C2 PUSH2 0x969 JUMP JUMPDEST JUMPDEST POP SWAP2 SWAP1 POP JUMP JUMPDEST PUSH1 0x0 DUP2 SWAP1 POP DUP2 PUSH1 0x0 MSTORE PUSH1 0x20 PUSH1 0x0 KECCAK256 SWAP1 POP SWAP2 SWAP1 POP JUMP JUMPDEST PUSH1 0x0 PUSH1 0x20 PUSH1 0x1F DUP4 ADD DIV SWAP1 POP SWAP2 SWAP1 POP JUMP JUMPDEST PUSH1 0x0 DUP3 DUP3 SHL SWAP1 POP SWAP3 SWAP2 POP POP JUMP JUMPDEST PUSH1 0x0 PUSH1 0x8 DUP4 MUL PUSH2 0xA2B PUSH32 0xFFFFFFFFFFFFFFFFFFFFFFFFFFFFFFFFFFFFFFFFFFFFFFFFFFFFFFFFFFFFFFFF DUP3 PUSH2 0x9EE JUMP JUMPDEST PUSH2 0xA35 DUP7 DUP4 PUSH2 0x9EE JUMP JUMPDEST SWAP6 POP DUP1 NOT DUP5 AND SWAP4 POP DUP1 DUP7 AND DUP5 OR SWAP3 POP POP POP SWAP4 SWAP3 POP POP POP JUMP JUMPDEST PUSH1 0x0 DUP2 SWAP1 POP SWAP2 SWAP1 POP JUMP JUMPDEST PUSH1 0x0 PUSH2 0xA72 PUSH2 0xA6D PUSH2 0xA68 DUP5 PUSH2 0x5BB JUMP JUMPDEST PUSH2 0xA4D JUMP JUMPDEST PUSH2 0x5BB JUMP JUMPDEST SWAP1 POP SWAP2 SWAP1 POP JUMP JUMPDEST PUSH1 0x0 DUP2 SWAP1 POP SWAP2 SWAP1 POP JUMP JUMPDEST PUSH2 0xA8C DUP4 PUSH2 0xA57 JUMP JUMPDEST PUSH2 0xAA0 PUSH2 0xA98 DUP3 PUSH2 0xA79 JUMP JUMPDEST DUP5 DUP5 SLOAD PUSH2 0x9FB JUMP JUMPDEST DUP3 SSTORE POP POP POP POP JUMP JUMPDEST PUSH1 0x0 SWAP1 JUMP JUMPDEST PUSH2 0xAB5 PUSH2 0xAA8 JUMP JUMPDEST PUSH2 0xAC0 DUP2 DUP5 DUP5 PUSH2 0xA83 JUMP JUMPDEST POP POP POP JUMP JUMPDEST JUMPDEST DUP2 DUP2 LT ISZERO PUSH2 0xAE4 JUMPI PUSH2 0xAD9 PUSH1 0x0 DUP3 PUSH2 0xAAD JUMP JUMPDEST PUSH1 0x1 DUP2 ADD SWAP1 POP PUSH2 0xAC6 JUMP JUMPDEST POP POP JUMP JUMPDEST PUSH1 0x1F DUP3 GT ISZERO PUSH2 0xB29 JUMPI PUSH2 0xAFA DUP2 PUSH2 0x9C9 JUMP JUMPDEST PUSH2 0xB03 DUP5 PUSH2 0x9DE JUMP JUMPDEST DUP2 ADD PUSH1 0x20 DUP6 LT ISZERO PUSH2 0xB12 JUMPI DUP2 SWAP1 POP JUMPDEST PUSH2 0xB26 PUSH2 0xB1E DUP6 PUSH2 0x9DE JUMP JUMPDEST DUP4 ADD DUP3 PUSH2 0xAC5 JUMP JUMPDEST POP POP JUMPDEST POP POP POP JUMP JUMPDEST PUSH1 0x0 DUP3 DUP3 SHR SWAP1 POP SWAP3 SWAP2 POP POP JUMP JUMPDEST PUSH1 0x0 PUSH2 0xB4C PUSH1 0x0 NOT DUP5 PUSH1 0x8 MUL PUSH2 0xB2E JUMP JUMPDEST NOT DUP1 DUP4 AND SWAP2 POP POP SWAP3 SWAP2 POP POP JUMP JUMPDEST PUSH1 0x0 PUSH2 0xB65 DUP4 DUP4 PUSH2 0xB3B JUMP JUMPDEST SWAP2 POP DUP3 PUSH1 0x2 MUL DUP3 OR SWAP1 POP SWAP3 SWAP2 POP POP JUMP JUMPDEST PUSH2 0xB7E DUP3 PUSH2 0x899 JUMP JUMPDEST PUSH8 0xFFFFFFFFFFFFFFFF DUP2 GT ISZERO PUSH2 0xB97 JUMPI PUSH2 0xB96 PUSH2 0x6BF JUMP JUMPDEST JUMPDEST PUSH2 0xBA1 DUP3 SLOAD PUSH2 0x998 JUMP JUMPDEST PUSH2 0xBAC DUP3 DUP3 DUP6 PUSH2 0xAE8 JUMP JUMPDEST PUSH1 0x0 PUSH1 0x20 SWAP1 POP PUSH1 0x1F DUP4 GT PUSH1 0x1 DUP2 EQ PUSH2 0xBDF JUMPI PUSH1 0x0 DUP5 ISZERO PUSH2 0xBCD JUMPI DUP3 DUP8 ADD MLOAD SWAP1 POP JUMPDEST PUSH2 0xBD7 DUP6 DUP3 PUSH2 0xB59 JUMP JUMPDEST DUP7 SSTORE POP PUSH2 0xC3F JUMP JUMPDEST PUSH1 0x1F NOT DUP5 AND PUSH2 0xBED DUP7 PUSH2 0x9C9 JUMP JUMPDEST PUSH1 0x0 JUMPDEST DUP3 DUP2 LT ISZERO PUSH2 0xC15 JUMPI DUP5 DUP10 ADD MLOAD DUP3 SSTORE PUSH1 0x1 DUP3 ADD SWAP2 POP PUSH1 0x20 DUP6 ADD SWAP5 POP PUSH1 0x20 DUP2 ADD SWAP1 POP PUSH2 0xBF0 JUMP JUMPDEST DUP7 DUP4 LT ISZERO PUSH2 0xC32 JUMPI DUP5 DUP10 ADD MLOAD PUSH2 0xC2E PUSH1 0x1F DUP10 AND DUP3 PUSH2 0xB3B JUMP JUMPDEST DUP4 SSTORE POP JUMPDEST PUSH1 0x1 PUSH1 0x2 DUP9 MUL ADD DUP9 SSTORE POP POP POP JUMPDEST POP POP POP POP POP POP JUMP JUMPDEST PUSH1 0x0 PUSH1 0x40 DUP3 ADD SWAP1 POP PUSH2 0xC5C PUSH1 0x0 DUP4 ADD DUP6 PUSH2 0x61E JUMP JUMPDEST PUSH2 0xC69 PUSH1 0x20 DUP4 ADD DUP5 PUSH2 0x61E JUMP JUMPDEST SWAP4 SWAP3 POP POP POP JUMP JUMPDEST PUSH32 0x5765696768747320616C72656164792077726F74650000000000000000000000 PUSH1 0x0 DUP3 ADD MSTORE POP JUMP JUMPDEST PUSH1 0x0 PUSH2 0xCA6 PUSH1 0x15 DUP4 PUSH2 0x8A4 JUMP JUMPDEST SWAP2 POP PUSH2 0xCB1 DUP3 PUSH2 0xC70 JUMP JUMPDEST PUSH1 0x20 DUP3 ADD SWAP1 POP SWAP2 SWAP1 POP JUMP JUMPDEST PUSH1 0x0 PUSH1 0x20 DUP3 ADD SWAP1 POP DUP2 DUP2 SUB PUSH1 0x0 DUP4 ADD MSTORE PUSH2 0xCD5 DUP2 PUSH2 0xC99 JUMP JUMPDEST SWAP1 POP SWAP2 SWAP1 POP JUMP JUMPDEST PUSH32 0x436C69656E74206E6F7420666F756E6400000000000000000000000000000000 PUSH1 0x0 DUP3 ADD MSTORE POP JUMP JUMPDEST PUSH1 0x0 PUSH2 0xD12 PUSH1 0x10 DUP4 PUSH2 0x8A4 JUMP JUMPDEST SWAP2 POP PUSH2 0xD1D DUP3 PUSH2 0xCDC JUMP JUMPDEST PUSH1 0x20 DUP3 ADD SWAP1 POP SWAP2 SWAP1 POP JUMP JUMPDEST PUSH1 0x0 PUSH1 0x20 DUP3 ADD SWAP1 POP DUP2 DUP2 SUB PUSH1 0x0 DUP4 ADD MSTORE PUSH2 0xD41 DUP2 PUSH2 0xD05 JUMP JUMPDEST SWAP1 POP SWAP2 SWAP1 POP JUMP JUMPDEST PUSH1 0x0 DUP2 SWAP1 POP SWAP3 SWAP2 POP POP JUMP JUMPDEST POP JUMP JUMPDEST PUSH1 0x0 PUSH2 0xD63 PUSH1 0x0 DUP4 PUSH2 0xD48 JUMP JUMPDEST SWAP2 POP PUSH2 0xD6E DUP3 PUSH2 0xD53 JUMP JUMPDEST PUSH1 0x0 DUP3 ADD SWAP1 POP SWAP2 SWAP1 POP JUMP JUMPDEST PUSH1 0x0 PUSH2 0xD84 DUP3 PUSH2 0xD56 JUMP JUMPDEST SWAP2 POP DUP2 SWAP1 POP SWAP2 SWAP1 POP JUMP JUMPDEST PUSH1 0x0 DUP2 SLOAD PUSH2 0xD9B DUP2 PUSH2 0x998 JUMP JUMPDEST PUSH2 0xDA5 DUP2 DUP7 PUSH2 0xD48 JUMP JUMPDEST SWAP5 POP PUSH1 0x1 DUP3 AND PUSH1 0x0 DUP2 EQ PUSH2 0xDC0 JUMPI PUSH1 0x1 DUP2 EQ PUSH2 0xDD5 JUMPI PUSH2 0xE08 JUMP JUMPDEST PUSH1 0xFF NOT DUP4 AND DUP7 MSTORE DUP2 ISZERO ISZERO DUP3 MUL DUP7 ADD SWAP4 POP PUSH2 0xE08 JUMP JUMPDEST PUSH2 0xDDE DUP6 PUSH2 0x9C9 JUMP JUMPDEST PUSH1 0x0 JUMPDEST DUP4 DUP2 LT ISZERO PUSH2 0xE00 JUMPI DUP2 SLOAD DUP2 DUP10 ADD MSTORE PUSH1 0x1 DUP3 ADD SWAP2 POP PUSH1 0x20 DUP2 ADD SWAP1 POP PUSH2 0xDE1 JUMP JUMPDEST DUP4 DUP9 ADD SWAP6 POP POP POP JUMPDEST POP POP POP SWAP3 SWAP2 POP POP JUMP JUMPDEST PUSH1 0x0 PUSH2 0xE1D DUP3 DUP5 PUSH2 0xD8E JUMP JUMPDEST SWAP2 POP DUP2 SWAP1 POP SWAP3 SWAP2 POP POP JUMP INVALID LOG2 PUSH5 0x6970667358 0x22 SLT KECCAK256 0xCD PUSH14 0x7F3332022153CE8274919A01E34E 0xC PUSH30 0x4665ECFC253911F2805174D56D1264736F6C634300081C00330000000000 "},"methodIdentifiers":{"addRoundWeightsReference(string,uint256,uint256)":"8e442468","addToBlacklist(uint256)":"8b762e6c","blacklist(uint256)":"0f2a0919","getOwner()":"893d20e8","getWeightOfRoundOfClient(uint256,uint256)":"e6cba98d","weightsReferences(uint256)":"1c21cddc"}}}}}