{"src/blockchain/contracts/CheckWeights.sol":{"CheckWeights":{"abi":[{"inputs":[],"stateMutability":"nonpayable","type":"constructor"},{"anonymous":false,"inputs":[{"indexed":false,"internalType":"uint256","name":"round","type":"uint256"},{"indexed":false,"internalType":"uint256","name":"federatedCid","type":"uint256"}],"name":"WroteWeightsOfRoundForClient","type":"event"},{"inputs":[{"internalType":"string","name":"_weights","type":"string"},{"internalType":"uint256","name":"_round","type":"uint256"},{"internalType":"uint256","name":"_federatedCid","type":"uint256"}],"name":"addRoundWeightsReference","outputs":[],"stateMutability":"nonpayable","type":"function"},{"inputs":[{"internalType":"uint256","name":"_federatedCid","type":"uint256"}],"name":"addToBlacklist","outputs":[],"stateMutability":"nonpayable","type":"function"},{"inputs":[{"internalType":"uint256","name":"","type":"uint256"}],"name":"blacklist","outputs":[{"internalType":"uint256","name":"","type":"uint256"}],"stateMutability":"view","type":"function"},{"inputs":[],"name":"getOwner","outputs":[{"internalType":"address","name":"","type":"address"}],"stateMutability":"view","type":"function"},{"inputs":[{"internalType":"uint256","name":"_round","type":"uint256"},{"internalType":"uint256","name":"_federatedCid","type":"uint256"}],"name":"getWeightOfRoundOfClient","outputs":[{"internalType":"string","name":"","type":"string"}],"stateMutability":"view","type":"function"},{"inputs":[{"internalType":"uint256","name":"_federatedCid","type":"uint256"}],"name":"isClientInBlacklist","outputs":[{"internalType":"bool","name":"","type":"bool"}],"stateMutability":"view","type":"function"},{"inputs":[{"internalType":"uint256","name":"_federatedCid","type":"uint256"}],"name":"isPoisonerCid","outputs":[{"internalType":"bool","name":"","type":"bool"}],"stateMutability":"view","type":"function"},{"inputs":[{"internalType":"bool","name":"_serverCorrupted","type":"bool"}],"name":"setServerCorrupted","outputs":[],"stateMutability":"nonpayable","type":"function"},{"inputs":[{"internalType":"uint256","name":"","type":"uint256"}],"name":"weightsReferences","outputs":[{"internalType":"uint256","name":"federatedCid","type":"uint256"}],"stateMutability":"view","type":"function"}],"evm":{"bytecode":{"linkReferences":{},"object":"6080604052348015600f57600080fd5b5033600260006101000a81548173ffffffffffffffffffffffffffffffffffffffff021916908373ffffffffffffffffffffffffffffffffffffffff160217905550610faf806100606000396000f3fe608060405234801561001057600080fd5b50600436106100935760003560e01c8063606e8a6b11610066578063606e8a6b14610144578063893d20e8146101745780638b762e6c146101925780638e442468146101ae578063e6cba98d146101ca57610093565b80630f2a0919146100985780631c21cddc146100c8578063319e4199146100f85780633dff540314610128575b600080fd5b6100b260048036038101906100ad9190610793565b6101fa565b6040516100bf91906107cf565b60405180910390f35b6100e260048036038101906100dd9190610793565b61021e565b6040516100ef91906107cf565b60405180910390f35b610112600480360381019061010d9190610793565b61024c565b60405161011f9190610805565b60405180910390f35b610142600480360381019061013d919061084c565b6102a8565b005b61015e60048036038101906101599190610793565b6102c5565b60405161016b9190610805565b60405180910390f35b61017c610321565b60405161018991906108ba565b60405180910390f35b6101ac60048036038101906101a79190610793565b61034b565b005b6101c860048036038101906101c39190610a1b565b610377565b005b6101e460048036038101906101df9190610a8a565b610578565b6040516101f19190610b49565b60405180910390f35b6001818154811061020a57600080fd5b906000526020600020016000915090505481565b6000818154811061022e57600080fd5b90600052602060002090600202016000915090508060000154905081565b600080600090505b60018054905081101561029d57826001828154811061027657610275610b6b565b5b9060005260206000200154036102905760019150506102a3565b8080600101915050610254565b50600090505b919050565b80600260146101000a81548160ff02191690831515021790555050565b600080600090505b6001805490508110156103165782600182815481106102ef576102ee610b6b565b5b90600052602060002001540361030957600191505061031c565b80806001019150506102cd565b50600090505b919050565b6000600260009054906101000a900473ffffffffffffffffffffffffffffffffffffffff16905090565b600181908060018154018082558091505060019003906000526020600020016000909190919091505550565b6103808161024c565b80156103da5750600260009054906101000a900473ffffffffffffffffffffffffffffffffffffffff1673ffffffffffffffffffffffffffffffffffffffff163373ffffffffffffffffffffffffffffffffffffffff1614155b1561041a576040517f08c379a000000000000000000000000000000000000000000000000000000000815260040161041190610be6565b60405180910390fd5b60006104258261064e565b1561045b576000610435836106b1565b8154811061044657610445610b6b565b5b906000526020600020906002020190506104b1565b6000808054905090506000600181600181540180825580915050039060005260206000209050506000818154811061049657610495610b6b565b5b90600052602060002090600202019150828260000181905550505b8381600101600085815260200190815260200160002090816104d39190610e12565b50600283101580156105335750600260009054906101000a900473ffffffffffffffffffffffffffffffffffffffff1673ffffffffffffffffffffffffffffffffffffffff163373ffffffffffffffffffffffffffffffffffffffff1614155b15610572577f49ab53cdea5f88886e786f4c17a329d3e9ac6800979f6b4341c16615da8071dd8383604051610569929190610ee4565b60405180910390a15b50505050565b6060600080610586846106b1565b8154811061059757610596610b6b565b5b9060005260206000209060020201905080600101600085815260200190815260200160002080546105c790610c35565b80601f01602080910402602001604051908101604052809291908181526020018280546105f390610c35565b80156106405780601f1061061557610100808354040283529160200191610640565b820191906000526020600020905b81548152906001019060200180831161062357829003601f168201915b505050505091505092915050565b600080600090505b6000805490508110156106a657826000828154811061067857610677610b6b565b5b906000526020600020906002020160000154036106995760019150506106ac565b8080600101915050610656565b50600090505b919050565b600080600090505b6000805490508110156107085782600082815481106106db576106da610b6b565b5b906000526020600020906002020160000154036106fb5780915050610744565b80806001019150506106b9565b506040517f08c379a000000000000000000000000000000000000000000000000000000000815260040161073b90610f59565b60405180910390fd5b919050565b6000604051905090565b600080fd5b600080fd5b6000819050919050565b6107708161075d565b811461077b57600080fd5b50565b60008135905061078d81610767565b92915050565b6000602082840312156107a9576107a8610753565b5b60006107b78482850161077e565b91505092915050565b6107c98161075d565b82525050565b60006020820190506107e460008301846107c0565b92915050565b60008115159050919050565b6107ff816107ea565b82525050565b600060208201905061081a60008301846107f6565b92915050565b610829816107ea565b811461083457600080fd5b50565b60008135905061084681610820565b92915050565b60006020828403121561086257610861610753565b5b600061087084828501610837565b91505092915050565b600073ffffffffffffffffffffffffffffffffffffffff82169050919050565b60006108a482610879565b9050919050565b6108b481610899565b82525050565b60006020820190506108cf60008301846108ab565b92915050565b600080fd5b600080fd5b6000601f19601f8301169050919050565b7f4e487b7100000000000000000000000000000000000000000000000000000000600052604160045260246000fd5b610928826108df565b810181811067ffffffffffffffff82111715610947576109466108f0565b5b80604052505050565b600061095a610749565b9050610966828261091f565b919050565b600067ffffffffffffffff821115610986576109856108f0565b5b61098f826108df565b9050602081019050919050565b82818337600083830152505050565b60006109be6109b98461096b565b610950565b9050828152602081018484840111156109da576109d96108da565b5b6109e584828561099c565b509392505050565b600082601f830112610a0257610a016108d5565b5b8135610a128482602086016109ab565b91505092915050565b600080600060608486031215610a3457610a33610753565b5b600084013567ffffffffffffffff811115610a5257610a51610758565b5b610a5e868287016109ed565b9350506020610a6f8682870161077e565b9250506040610a808682870161077e565b9150509250925092565b60008060408385031215610aa157610aa0610753565b5b6000610aaf8582860161077e565b9250506020610ac08582860161077e565b9150509250929050565b600081519050919050565b600082825260208201905092915050565b60005b83811015610b04578082015181840152602081019050610ae9565b60008484015250505050565b6000610b1b82610aca565b610b258185610ad5565b9350610b35818560208601610ae6565b610b3e816108df565b840191505092915050565b60006020820190508181036000830152610b638184610b10565b905092915050565b7f4e487b7100000000000000000000000000000000000000000000000000000000600052603260045260246000fd5b7f436c69656e7420697320696e20626c61636b6c69737400000000000000000000600082015250565b6000610bd0601683610ad5565b9150610bdb82610b9a565b602082019050919050565b60006020820190508181036000830152610bff81610bc3565b9050919050565b7f4e487b7100000000000000000000000000000000000000000000000000000000600052602260045260246000fd5b60006002820490506001821680610c4d57607f821691505b602082108103610c6057610c5f610c06565b5b50919050565b60008190508160005260206000209050919050565b60006020601f8301049050919050565b600082821b905092915050565b600060088302610cc87fffffffffffffffffffffffffffffffffffffffffffffffffffffffffffffffff82610c8b565b610cd28683610c8b565b95508019841693508086168417925050509392505050565b6000819050919050565b6000610d0f610d0a610d058461075d565b610cea565b61075d565b9050919050565b6000819050919050565b610d2983610cf4565b610d3d610d3582610d16565b848454610c98565b825550505050565b600090565b610d52610d45565b610d5d818484610d20565b505050565b5b81811015610d8157610d76600082610d4a565b600181019050610d63565b5050565b601f821115610dc657610d9781610c66565b610da084610c7b565b81016020851015610daf578190505b610dc3610dbb85610c7b565b830182610d62565b50505b505050565b600082821c905092915050565b6000610de960001984600802610dcb565b1980831691505092915050565b6000610e028383610dd8565b9150826002028217905092915050565b610e1b82610aca565b67ffffffffffffffff811115610e3457610e336108f0565b5b610e3e8254610c35565b610e49828285610d85565b600060209050601f831160018114610e7c5760008415610e6a578287015190505b610e748582610df6565b865550610edc565b601f198416610e8a86610c66565b60005b82811015610eb257848901518255600182019150602085019450602081019050610e8d565b86831015610ecf5784890151610ecb601f891682610dd8565b8355505b6001600288020188555050505b505050505050565b6000604082019050610ef960008301856107c0565b610f0660208301846107c0565b9392505050565b7f436c69656e74206e6f7420666f756e6400000000000000000000000000000000600082015250565b6000610f43601083610ad5565b9150610f4e82610f0d565b602082019050919050565b60006020820190508181036000830152610f7281610f36565b905091905056fea264697066735822122052f366309b8ed84bbcf60b67e058d93cc0106b8dd4a7289d795fa4560b34578464736f6c634300081c0033","opcodes":"PUSH1 0x80 PUSH1 0x40 MSTORE CALLVALUE DUP1 ISZERO PUSH1 0xF JUMPI PUSH1 0x0 DUP1 REVERT JUMPDEST POP CALLER PUSH1 0x2 PUSH1 0x0 PUSH2 0x100 EXP DUP2 SLOAD DUP2 PUSH20 0xFFFFFFFFFFFFFFFFFFFFFFFFFFFFFFFFFFFFFFFF MUL NOT AND SWAP1 DUP4 PUSH20 0xFFFFFFFFFFFFFFFFFFFFFFFFFFFFFFFFFFFFFFFF AND MUL OR SWAP1 SSTORE POP PUSH2 0xFAF DUP1 PUSH2 0x60 PUSH1 0x0 CODECOPY PUSH1 0x0 RETURN INVALID PUSH1 0x80 PUSH1 0x40 MSTORE CALLVALUE DUP1 ISZERO PUSH2 0x10 JUMPI PUSH1 0x0 DUP1 REVERT JUMPDEST POP PUSH1 0x4 CALLDATASIZE LT PUSH2 0x93 JUMPI PUSH1 0x0 CALLDATALOAD PUSH1 0xE0 SHR DUP1 PUSH4 0x606E8A6B GT PUSH2 0x66 JUMPI DUP1 PUSH4 0x606E8A6B EQ PUSH2 0x144 JUMPI DUP1 PUSH4 0x893D20E8 EQ PUSH2 0x174 JUMPI DUP1 PUSH4 0x8B762E6C EQ PUSH2 0x192 JUMPI DUP1 PUSH4 0x8E442468 EQ PUSH2 0x1AE JUMPI DUP1 PUSH4 0xE6CBA98D EQ PUSH2 0x1CA JUMPI PUSH2 0x93 JUMP JUMPDEST DUP1 PUSH4 0xF2A0919 EQ PUSH2 0x98 JUMPI DUP1 PUSH4 0x1C21CDDC EQ PUSH2 0xC8 JUMPI DUP1 PUSH4 0x319E4199 EQ PUSH2 0xF8 JUMPI DUP1 PUSH4 0x3DFF5403 EQ PUSH2 0x128 JUMPI JUMPDEST PUSH1 0x0 DUP1 REVERT JUMPDEST PUSH2 0xB2 PUSH1 0x4 DUP1 CALLDATASIZE SUB DUP2 ADD SWAP1 PUSH2 0xAD SWAP2 SWAP1 PUSH2 0x793 JUMP JUMPDEST PUSH2 0x1FA JUMP JUMPDEST PUSH1 0x40 MLOAD PUSH2 0xBF SWAP2 SWAP1 PUSH2 0x7CF JUMP JUMPDEST PUSH1 0x40 MLOAD DUP1 SWAP2 SUB SWAP1 RETURN JUMPDEST PUSH2 0xE2 PUSH1 0x4 DUP1 CALLDATASIZE SUB DUP2 ADD SWAP1 PUSH2 0xDD SWAP2 SWAP1 PUSH2 0x793 JUMP JUMPDEST PUSH2 0x21E JUMP JUMPDEST PUSH1 0x40 MLOAD PUSH2 0xEF SWAP2 SWAP1 PUSH2 0x7CF JUMP JUMPDEST PUSH1 0x40 MLOAD DUP1 SWAP2 SUB SWAP1 RETURN JUMPDEST PUSH2 0x112 PUSH1 0x4 DUP1 CALLDATASIZE SUB DUP2 ADD SWAP1 PUSH2 0x10D SWAP2 SWAP1 PUSH2 0x793 JUMP JUMPDEST PUSH2 0x24C JUMP JUMPDEST PUSH1 0x40 MLOAD PUSH2 0x11F SWAP2 SWAP1 PUSH2 0x805 JUMP JUMPDEST PUSH1 0x40 MLOAD DUP1 SWAP2 SUB SWAP1 RETURN JUMPDEST PUSH2 0x142 PUSH1 0x4 DUP1 CALLDATASIZE SUB DUP2 ADD SWAP1 PUSH2 0x13D SWAP2 SWAP1 PUSH2 0x84C JUMP JUMPDEST PUSH2 0x2A8 JUMP JUMPDEST STOP JUMPDEST PUSH2 0x15E PUSH1 0x4 DUP1 CALLDATASIZE SUB DUP2 ADD SWAP1 PUSH2 0x159 SWAP2 SWAP1 PUSH2 0x793 JUMP JUMPDEST PUSH2 0x2C5 JUMP JUMPDEST PUSH1 0x40 MLOAD PUSH2 0x16B SWAP2 SWAP1 PUSH2 0x805 JUMP JUMPDEST PUSH1 0x40 MLOAD DUP1 SWAP2 SUB SWAP1 RETURN JUMPDEST PUSH2 0x17C PUSH2 0x321 JUMP JUMPDEST PUSH1 0x40 MLOAD PUSH2 0x189 SWAP2 SWAP1 PUSH2 0x8BA JUMP JUMPDEST PUSH1 0x40 MLOAD DUP1 SWAP2 SUB SWAP1 RETURN JUMPDEST PUSH2 0x1AC PUSH1 0x4 DUP1 CALLDATASIZE SUB DUP2 ADD SWAP1 PUSH2 0x1A7 SWAP2 SWAP1 PUSH2 0x793 JUMP JUMPDEST PUSH2 0x34B JUMP JUMPDEST STOP JUMPDEST PUSH2 0x1C8 PUSH1 0x4 DUP1 CALLDATASIZE SUB DUP2 ADD SWAP1 PUSH2 0x1C3 SWAP2 SWAP1 PUSH2 0xA1B JUMP JUMPDEST PUSH2 0x377 JUMP JUMPDEST STOP JUMPDEST PUSH2 0x1E4 PUSH1 0x4 DUP1 CALLDATASIZE SUB DUP2 ADD SWAP1 PUSH2 0x1DF SWAP2 SWAP1 PUSH2 0xA8A JUMP JUMPDEST PUSH2 0x578 JUMP JUMPDEST PUSH1 0x40 MLOAD PUSH2 0x1F1 SWAP2 SWAP1 PUSH2 0xB49 JUMP JUMPDEST PUSH1 0x40 MLOAD DUP1 SWAP2 SUB SWAP1 RETURN JUMPDEST PUSH1 0x1 DUP2 DUP2 SLOAD DUP2 LT PUSH2 0x20A JUMPI PUSH1 0x0 DUP1 REVERT JUMPDEST SWAP1 PUSH1 0x0 MSTORE PUSH1 0x20 PUSH1 0x0 KECCAK256 ADD PUSH1 0x0 SWAP2 POP SWAP1 POP SLOAD DUP2 JUMP JUMPDEST PUSH1 0x0 DUP2 DUP2 SLOAD DUP2 LT PUSH2 0x22E JUMPI PUSH1 0x0 DUP1 REVERT JUMPDEST SWAP1 PUSH1 0x0 MSTORE PUSH1 0x20 PUSH1 0x0 KECCAK256 SWAP1 PUSH1 0x2 MUL ADD PUSH1 0x0 SWAP2 POP SWAP1 POP DUP1 PUSH1 0x0 ADD SLOAD SWAP1 POP DUP2 JUMP JUMPDEST PUSH1 0x0 DUP1 PUSH1 0x0 SWAP1 POP JUMPDEST PUSH1 0x1 DUP1 SLOAD SWAP1 POP DUP2 LT ISZERO PUSH2 0x29D JUMPI DUP3 PUSH1 0x1 DUP3 DUP2 SLOAD DUP2 LT PUSH2 0x276 JUMPI PUSH2 0x275 PUSH2 0xB6B JUMP JUMPDEST JUMPDEST SWAP1 PUSH1 0x0 MSTORE PUSH1 0x20 PUSH1 0x0 KECCAK256 ADD SLOAD SUB PUSH2 0x290 JUMPI PUSH1 0x1 SWAP2 POP POP PUSH2 0x2A3 JUMP JUMPDEST DUP1 DUP1 PUSH1 0x1 ADD SWAP2 POP POP PUSH2 0x254 JUMP JUMPDEST POP PUSH1 0x0 SWAP1 POP JUMPDEST SWAP2 SWAP1 POP JUMP JUMPDEST DUP1 PUSH1 0x2 PUSH1 0x14 PUSH2 0x100 EXP DUP2 SLOAD DUP2 PUSH1 0xFF MUL NOT AND SWAP1 DUP4 ISZERO ISZERO MUL OR SWAP1 SSTORE POP POP JUMP JUMPDEST PUSH1 0x0 DUP1 PUSH1 0x0 SWAP1 POP JUMPDEST PUSH1 0x1 DUP1 SLOAD SWAP1 POP DUP2 LT ISZERO PUSH2 0x316 JUMPI DUP3 PUSH1 0x1 DUP3 DUP2 SLOAD DUP2 LT PUSH2 0x2EF JUMPI PUSH2 0x2EE PUSH2 0xB6B JUMP JUMPDEST JUMPDEST SWAP1 PUSH1 0x0 MSTORE PUSH1 0x20 PUSH1 0x0 KECCAK256 ADD SLOAD SUB PUSH2 0x309 JUMPI PUSH1 0x1 SWAP2 POP POP PUSH2 0x31C JUMP JUMPDEST DUP1 DUP1 PUSH1 0x1 ADD SWAP2 POP POP PUSH2 0x2CD JUMP JUMPDEST POP PUSH1 0x0 SWAP1 POP JUMPDEST SWAP2 SWAP1 POP JUMP JUMPDEST PUSH1 0x0 PUSH1 0x2 PUSH1 0x0 SWAP1 SLOAD SWAP1 PUSH2 0x100 EXP SWAP1 DIV PUSH20 0xFFFFFFFFFFFFFFFFFFFFFFFFFFFFFFFFFFFFFFFF AND SWAP1 POP SWAP1 JUMP JUMPDEST PUSH1 0x1 DUP2 SWAP1 DUP1 PUSH1 0x1 DUP2 SLOAD ADD DUP1 DUP3 SSTORE DUP1 SWAP2 POP POP PUSH1 0x1 SWAP1 SUB SWAP1 PUSH1 0x0 MSTORE PUSH1 0x20 PUSH1 0x0 KECCAK256 ADD PUSH1 0x0 SWAP1 SWAP2 SWAP1 SWAP2 SWAP1 SWAP2 POP SSTORE POP JUMP JUMPDEST PUSH2 0x380 DUP2 PUSH2 0x24C JUMP JUMPDEST DUP1 ISZERO PUSH2 0x3DA JUMPI POP PUSH1 0x2 PUSH1 0x0 SWAP1 SLOAD SWAP1 PUSH2 0x100 EXP SWAP1 DIV PUSH20 0xFFFFFFFFFFFFFFFFFFFFFFFFFFFFFFFFFFFFFFFF AND PUSH20 0xFFFFFFFFFFFFFFFFFFFFFFFFFFFFFFFFFFFFFFFF AND CALLER PUSH20 0xFFFFFFFFFFFFFFFFFFFFFFFFFFFFFFFFFFFFFFFF AND EQ ISZERO JUMPDEST ISZERO PUSH2 0x41A JUMPI PUSH1 0x40 MLOAD PUSH32 0x8C379A000000000000000000000000000000000000000000000000000000000 DUP2 MSTORE PUSH1 0x4 ADD PUSH2 0x411 SWAP1 PUSH2 0xBE6 JUMP JUMPDEST PUSH1 0x40 MLOAD DUP1 SWAP2 SUB SWAP1 REVERT JUMPDEST PUSH1 0x0 PUSH2 0x425 DUP3 PUSH2 0x64E JUMP JUMPDEST ISZERO PUSH2 0x45B JUMPI PUSH1 0x0 PUSH2 0x435 DUP4 PUSH2 0x6B1 JUMP JUMPDEST DUP2 SLOAD DUP2 LT PUSH2 0x446 JUMPI PUSH2 0x445 PUSH2 0xB6B JUMP JUMPDEST JUMPDEST SWAP1 PUSH1 0x0 MSTORE PUSH1 0x20 PUSH1 0x0 KECCAK256 SWAP1 PUSH1 0x2 MUL ADD SWAP1 POP PUSH2 0x4B1 JUMP JUMPDEST PUSH1 0x0 DUP1 DUP1 SLOAD SWAP1 POP SWAP1 POP PUSH1 0x0 PUSH1 0x1 DUP2 PUSH1 0x1 DUP2 SLOAD ADD DUP1 DUP3 SSTORE DUP1 SWAP2 POP POP SUB SWAP1 PUSH1 0x0 MSTORE PUSH1 0x20 PUSH1 0x0 KECCAK256 SWAP1 POP POP PUSH1 0x0 DUP2 DUP2 SLOAD DUP2 LT PUSH2 0x496 JUMPI PUSH2 0x495 PUSH2 0xB6B JUMP JUMPDEST JUMPDEST SWAP1 PUSH1 0x0 MSTORE PUSH1 0x20 PUSH1 0x0 KECCAK256 SWAP1 PUSH1 0x2 MUL ADD SWAP2 POP DUP3 DUP3 PUSH1 0x0 ADD DUP2 SWAP1 SSTORE POP POP JUMPDEST DUP4 DUP2 PUSH1 0x1 ADD PUSH1 0x0 DUP6 DUP2 MSTORE PUSH1 0x20 ADD SWAP1 DUP2 MSTORE PUSH1 0x20 ADD PUSH1 0x0 KECCAK256 SWAP1 DUP2 PUSH2 0x4D3 SWAP2 SWAP1 PUSH2 0xE12 JUMP JUMPDEST POP PUSH1 0x2 DUP4 LT ISZERO DUP1 ISZERO PUSH2 0x533 JUMPI POP PUSH1 0x2 PUSH1 0x0 SWAP1 SLOAD SWAP1 PUSH2 0x100 EXP SWAP1 DIV PUSH20 0xFFFFFFFFFFFFFFFFFFFFFFFFFFFFFFFFFFFFFFFF AND PUSH20 0xFFFFFFFFFFFFFFFFFFFFFFFFFFFFFFFFFFFFFFFF AND CALLER PUSH20 0xFFFFFFFFFFFFFFFFFFFFFFFFFFFFFFFFFFFFFFFF AND EQ ISZERO JUMPDEST ISZERO PUSH2 0x572 JUMPI PUSH32 0x49AB53CDEA5F88886E786F4C17A329D3E9AC6800979F6B4341C16615DA8071DD DUP4 DUP4 PUSH1 0x40 MLOAD PUSH2 0x569 SWAP3 SWAP2 SWAP1 PUSH2 0xEE4 JUMP JUMPDEST PUSH1 0x40 MLOAD DUP1 SWAP2 SUB SWAP1 LOG1 JUMPDEST POP POP POP POP JUMP JUMPDEST PUSH1 0x60 PUSH1 0x0 DUP1 PUSH2 0x586 DUP5 PUSH2 0x6B1 JUMP JUMPDEST DUP2 SLOAD DUP2 LT PUSH2 0x597 JUMPI PUSH2 0x596 PUSH2 0xB6B JUMP JUMPDEST JUMPDEST SWAP1 PUSH1 0x0 MSTORE PUSH1 0x20 PUSH1 0x0 KECCAK256 SWAP1 PUSH1 0x2 MUL ADD SWAP1 POP DUP1 PUSH1 0x1 ADD PUSH1 0x0 DUP6 DUP2 MSTORE PUSH1 0x20 ADD SWAP1 DUP2 MSTORE PUSH1 0x20 ADD PUSH1 0x0 KECCAK256 DUP1 SLOAD PUSH2 0x5C7 SWAP1 PUSH2 0xC35 JUMP JUMPDEST DUP1 PUSH1 0x1F ADD PUSH1 0x20 DUP1 SWAP2 DIV MUL PUSH1 0x20 ADD PUSH1 0x40 MLOAD SWAP1 DUP2 ADD PUSH1 0x40 MSTORE DUP1 SWAP3 SWAP2 SWAP1 DUP2 DUP2 MSTORE PUSH1 0x20 ADD DUP3 DUP1 SLOAD PUSH2 0x5F3 SWAP1 PUSH2 0xC35 JUMP JUMPDEST DUP1 ISZERO PUSH2 0x640 JUMPI DUP1 PUSH1 0x1F LT PUSH2 0x615 JUMPI PUSH2 0x100 DUP1 DUP4 SLOAD DIV MUL DUP4 MSTORE SWAP2 PUSH1 0x20 ADD SWAP2 PUSH2 0x640 JUMP JUMPDEST DUP3 ADD SWAP2 SWAP1 PUSH1 0x0 MSTORE PUSH1 0x20 PUSH1 0x0 KECCAK256 SWAP1 JUMPDEST DUP2 SLOAD DUP2 MSTORE SWAP1 PUSH1 0x1 ADD SWAP1 PUSH1 0x20 ADD DUP1 DUP4 GT PUSH2 0x623 JUMPI DUP3 SWAP1 SUB PUSH1 0x1F AND DUP3 ADD SWAP2 JUMPDEST POP POP POP POP POP SWAP2 POP POP SWAP3 SWAP2 POP POP JUMP JUMPDEST PUSH1 0x0 DUP1 PUSH1 0x0 SWAP1 POP JUMPDEST PUSH1 0x0 DUP1 SLOAD SWAP1 POP DUP2 LT ISZERO PUSH2 0x6A6 JUMPI DUP3 PUSH1 0x0 DUP3 DUP2 SLOAD DUP2 LT PUSH2 0x678 JUMPI PUSH2 0x677 PUSH2 0xB6B JUMP JUMPDEST JUMPDEST SWAP1 PUSH1 0x0 MSTORE PUSH1 0x20 PUSH1 0x0 KECCAK256 SWAP1 PUSH1 0x2 MUL ADD PUSH1 0x0 ADD SLOAD SUB PUSH2 0x699 JUMPI PUSH1 0x1 SWAP2 POP POP PUSH2 0x6AC JUMP JUMPDEST DUP1 DUP1 PUSH1 0x1 ADD SWAP2 POP POP PUSH2 0x656 JUMP JUMPDEST POP PUSH1 0x0 SWAP1 POP JUMPDEST SWAP2 SWAP1 POP JUMP JUMPDEST PUSH1 0x0 DUP1 PUSH1 0x0 SWAP1 POP JUMPDEST PUSH1 0x0 DUP1 SLOAD SWAP1 POP DUP2 LT ISZERO PUSH2 0x708 JUMPI DUP3 PUSH1 0x0 DUP3 DUP2 SLOAD DUP2 LT PUSH2 0x6DB JUMPI PUSH2 0x6DA PUSH2 0xB6B JUMP JUMPDEST JUMPDEST SWAP1 PUSH1 0x0 MSTORE PUSH1 0x20 PUSH1 0x0 KECCAK256 SWAP1 PUSH1 0x2 MUL ADD PUSH1 0x0 ADD SLOAD SUB PUSH2 0x6FB JUMPI DUP1 SWAP2 POP POP PUSH2 0x744 JUMP JUMPDEST DUP1 DUP1 PUSH1 0x1 ADD SWAP2 POP POP PUSH2 0x6B9 JUMP JUMPDEST POP PUSH1 0x40 MLOAD PUSH32 0x8C379A000000000000000000000000000000000000000000000000000000000 DUP2 MSTORE PUSH1 0x4 ADD PUSH2 0x73B SWAP1 PUSH2 0xF59 JUMP JUMPDEST PUSH1 0x40 MLOAD DUP1 SWAP2 SUB SWAP1 REVERT JUMPDEST SWAP2 SWAP1 POP JUMP JUMPDEST PUSH1 0x0 PUSH1 0x40 MLOAD SWAP1 POP SWAP1 JUMP JUMPDEST PUSH1 0x0 DUP1 REVERT JUMPDEST PUSH1 0x0 DUP1 REVERT JUMPDEST PUSH1 0x0 DUP2 SWAP1 POP SWAP2 SWAP1 POP JUMP JUMPDEST PUSH2 0x770 DUP2 PUSH2 0x75D JUMP JUMPDEST DUP2 EQ PUSH2 0x77B JUMPI PUSH1 0x0 DUP1 REVERT JUMPDEST POP JUMP JUMPDEST PUSH1 0x0 DUP2 CALLDATALOAD SWAP1 POP PUSH2 0x78D DUP2 PUSH2 0x767 JUMP JUMPDEST SWAP3 SWAP2 POP POP JUMP JUMPDEST PUSH1 0x0 PUSH1 0x20 DUP3 DUP5 SUB SLT ISZERO PUSH2 0x7A9 JUMPI PUSH2 0x7A8 PUSH2 0x753 JUMP JUMPDEST JUMPDEST PUSH1 0x0 PUSH2 0x7B7 DUP5 DUP3 DUP6 ADD PUSH2 0x77E JUMP JUMPDEST SWAP2 POP POP SWAP3 SWAP2 POP POP JUMP JUMPDEST PUSH2 0x7C9 DUP2 PUSH2 0x75D JUMP JUMPDEST DUP3 MSTORE POP POP JUMP JUMPDEST PUSH1 0x0 PUSH1 0x20 DUP3 ADD SWAP1 POP PUSH2 0x7E4 PUSH1 0x0 DUP4 ADD DUP5 PUSH2 0x7C0 JUMP JUMPDEST SWAP3 SWAP2 POP POP JUMP JUMPDEST PUSH1 0x0 DUP2 ISZERO ISZERO SWAP1 POP SWAP2 SWAP1 POP JUMP JUMPDEST PUSH2 0x7FF DUP2 PUSH2 0x7EA JUMP JUMPDEST DUP3 MSTORE POP POP JUMP JUMPDEST PUSH1 0x0 PUSH1 0x20 DUP3 ADD SWAP1 POP PUSH2 0x81A PUSH1 0x0 DUP4 ADD DUP5 PUSH2 0x7F6 JUMP JUMPDEST SWAP3 SWAP2 POP POP JUMP JUMPDEST PUSH2 0x829 DUP2 PUSH2 0x7EA JUMP JUMPDEST DUP2 EQ PUSH2 0x834 JUMPI PUSH1 0x0 DUP1 REVERT JUMPDEST POP JUMP JUMPDEST PUSH1 0x0 DUP2 CALLDATALOAD SWAP1 POP PUSH2 0x846 DUP2 PUSH2 0x820 JUMP JUMPDEST SWAP3 SWAP2 POP POP JUMP JUMPDEST PUSH1 0x0 PUSH1 0x20 DUP3 DUP5 SUB SLT ISZERO PUSH2 0x862 JUMPI PUSH2 0x861 PUSH2 0x753 JUMP JUMPDEST JUMPDEST PUSH1 0x0 PUSH2 0x870 DUP5 DUP3 DUP6 ADD PUSH2 0x837 JUMP JUMPDEST SWAP2 POP POP SWAP3 SWAP2 POP POP JUMP JUMPDEST PUSH1 0x0 PUSH20 0xFFFFFFFFFFFFFFFFFFFFFFFFFFFFFFFFFFFFFFFF DUP3 AND SWAP1 POP SWAP2 SWAP1 POP JUMP JUMPDEST PUSH1 0x0 PUSH2 0x8A4 DUP3 PUSH2 0x879 JUMP JUMPDEST SWAP1 POP SWAP2 SWAP1 POP JUMP JUMPDEST PUSH2 0x8B4 DUP2 PUSH2 0x899 JUMP JUMPDEST DUP3 MSTORE POP POP JUMP JUMPDEST PUSH1 0x0 PUSH1 0x20 DUP3 ADD SWAP1 POP PUSH2 0x8CF PUSH1 0x0 DUP4 ADD DUP5 PUSH2 0x8AB JUMP JUMPDEST SWAP3 SWAP2 POP POP JUMP JUMPDEST PUSH1 0x0 DUP1 REVERT JUMPDEST PUSH1 0x0 DUP1 REVERT JUMPDEST PUSH1 0x0 PUSH1 0x1F NOT PUSH1 0x1F DUP4 ADD AND SWAP1 POP SWAP2 SWAP1 POP JUMP JUMPDEST PUSH32 0x4E487B7100000000000000000000000000000000000000000000000000000000 PUSH1 0x0 MSTORE PUSH1 0x41 PUSH1 0x4 MSTORE PUSH1 0x24 PUSH1 0x0 REVERT JUMPDEST PUSH2 0x928 DUP3 PUSH2 0x8DF JUMP JUMPDEST DUP2 ADD DUP2 DUP2 LT PUSH8 0xFFFFFFFFFFFFFFFF DUP3 GT OR ISZERO PUSH2 0x947 JUMPI PUSH2 0x946 PUSH2 0x8F0 JUMP JUMPDEST JUMPDEST DUP1 PUSH1 0x40 MSTORE POP POP POP JUMP JUMPDEST PUSH1 0x0 PUSH2 0x95A PUSH2 0x749 JUMP JUMPDEST SWAP1 POP PUSH2 0x966 DUP3 DUP3 PUSH2 0x91F JUMP JUMPDEST SWAP2 SWAP1 POP JUMP JUMPDEST PUSH1 0x0 PUSH8 0xFFFFFFFFFFFFFFFF DUP3 GT ISZERO PUSH2 0x986 JUMPI PUSH2 0x985 PUSH2 0x8F0 JUMP JUMPDEST JUMPDEST PUSH2 0x98F DUP3 PUSH2 0x8DF JUMP JUMPDEST SWAP1 POP PUSH1 0x20 DUP2 ADD SWAP1 POP SWAP2 SWAP1 POP JUMP JUMPDEST DUP3 DUP2 DUP4 CALLDATACOPY PUSH1 0x0 DUP4 DUP4 ADD MSTORE POP POP POP JUMP JUMPDEST PUSH1 0x0 PUSH2 0x9BE PUSH2 0x9B9 DUP5 PUSH2 0x96B JUMP JUMPDEST PUSH2 0x950 JUMP JUMPDEST SWAP1 POP DUP3 DUP2 MSTORE PUSH1 0x20 DUP2 ADD DUP5 DUP5 DUP5 ADD GT ISZERO PUSH2 0x9DA JUMPI PUSH2 0x9D9 PUSH2 0x8DA JUMP JUMPDEST JUMPDEST PUSH2 0x9E5 DUP5 DUP3 DUP6 PUSH2 0x99C JUMP JUMPDEST POP SWAP4 SWAP3 POP POP POP JUMP JUMPDEST PUSH1 0x0 DUP3 PUSH1 0x1F DUP4 ADD SLT PUSH2 0xA02 JUMPI PUSH2 0xA01 PUSH2 0x8D5 JUMP JUMPDEST JUMPDEST DUP2 CALLDATALOAD PUSH2 0xA12 DUP5 DUP3 PUSH1 0x20 DUP7 ADD PUSH2 0x9AB JUMP JUMPDEST SWAP2 POP POP SWAP3 SWAP2 POP POP JUMP JUMPDEST PUSH1 0x0 DUP1 PUSH1 0x0 PUSH1 0x60 DUP5 DUP7 SUB SLT ISZERO PUSH2 0xA34 JUMPI PUSH2 0xA33 PUSH2 0x753 JUMP JUMPDEST JUMPDEST PUSH1 0x0 DUP5 ADD CALLDATALOAD PUSH8 0xFFFFFFFFFFFFFFFF DUP2 GT ISZERO PUSH2 0xA52 JUMPI PUSH2 0xA51 PUSH2 0x758 JUMP JUMPDEST JUMPDEST PUSH2 0xA5E DUP7 DUP3 DUP8 ADD PUSH2 0x9ED JUMP JUMPDEST SWAP4 POP POP PUSH1 0x20 PUSH2 0xA6F DUP7 DUP3 DUP8 ADD PUSH2 0x77E JUMP JUMPDEST SWAP3 POP POP PUSH1 0x40 PUSH2 0xA80 DUP7 DUP3 DUP8 ADD PUSH2 0x77E JUMP JUMPDEST SWAP2 POP POP SWAP3 POP SWAP3 POP SWAP3 JUMP JUMPDEST PUSH1 0x0 DUP1 PUSH1 0x40 DUP4 DUP6 SUB SLT ISZERO PUSH2 0xAA1 JUMPI PUSH2 0xAA0 PUSH2 0x753 JUMP JUMPDEST JUMPDEST PUSH1 0x0 PUSH2 0xAAF DUP6 DUP3 DUP7 ADD PUSH2 0x77E JUMP JUMPDEST SWAP3 POP POP PUSH1 0x20 PUSH2 0xAC0 DUP6 DUP3 DUP7 ADD PUSH2 0x77E JUMP JUMPDEST SWAP2 POP POP SWAP3 POP SWAP3 SWAP1 POP JUMP JUMPDEST PUSH1 0x0 DUP2 MLOAD SWAP1 POP SWAP2 SWAP1 POP JUMP JUMPDEST PUSH1 0x0 DUP3 DUP3 MSTORE PUSH1 0x20 DUP3 ADD SWAP1 POP SWAP3 SWAP2 POP POP JUMP JUMPDEST PUSH1 0x0 JUMPDEST DUP4 DUP2 LT ISZERO PUSH2 0xB04 JUMPI DUP1 DUP3 ADD MLOAD DUP2 DUP5 ADD MSTORE PUSH1 0x20 DUP2 ADD SWAP1 POP PUSH2 0xAE9 JUMP JUMPDEST PUSH1 0x0 DUP5 DUP5 ADD MSTORE POP POP POP POP JUMP JUMPDEST PUSH1 0x0 PUSH2 0xB1B DUP3 PUSH2 0xACA JUMP JUMPDEST PUSH2 0xB25 DUP2 DUP6 PUSH2 0xAD5 JUMP JUMPDEST SWAP4 POP PUSH2 0xB35 DUP2 DUP6 PUSH1 0x20 DUP7 ADD PUSH2 0xAE6 JUMP JUMPDEST PUSH2 0xB3E DUP2 PUSH2 0x8DF JUMP JUMPDEST DUP5 ADD SWAP2 POP POP SWAP3 SWAP2 POP POP JUMP JUMPDEST PUSH1 0x0 PUSH1 0x20 DUP3 ADD SWAP1 POP DUP2 DUP2 SUB PUSH1 0x0 DUP4 ADD MSTORE PUSH2 0xB63 DUP2 DUP5 PUSH2 0xB10 JUMP JUMPDEST SWAP1 POP SWAP3 SWAP2 POP POP JUMP JUMPDEST PUSH32 0x4E487B7100000000000000000000000000000000000000000000000000000000 PUSH1 0x0 MSTORE PUSH1 0x32 PUSH1 0x4 MSTORE PUSH1 0x24 PUSH1 0x0 REVERT JUMPDEST PUSH32 0x436C69656E7420697320696E20626C61636B6C69737400000000000000000000 PUSH1 0x0 DUP3 ADD MSTORE POP JUMP JUMPDEST PUSH1 0x0 PUSH2 0xBD0 PUSH1 0x16 DUP4 PUSH2 0xAD5 JUMP JUMPDEST SWAP2 POP PUSH2 0xBDB DUP3 PUSH2 0xB9A JUMP JUMPDEST PUSH1 0x20 DUP3 ADD SWAP1 POP SWAP2 SWAP1 POP JUMP JUMPDEST PUSH1 0x0 PUSH1 0x20 DUP3 ADD SWAP1 POP DUP2 DUP2 SUB PUSH1 0x0 DUP4 ADD MSTORE PUSH2 0xBFF DUP2 PUSH2 0xBC3 JUMP JUMPDEST SWAP1 POP SWAP2 SWAP1 POP JUMP JUMPDEST PUSH32 0x4E487B7100000000000000000000000000000000000000000000000000000000 PUSH1 0x0 MSTORE PUSH1 0x22 PUSH1 0x4 MSTORE PUSH1 0x24 PUSH1 0x0 REVERT JUMPDEST PUSH1 0x0 PUSH1 0x2 DUP3 DIV SWAP1 POP PUSH1 0x1 DUP3 AND DUP1 PUSH2 0xC4D JUMPI PUSH1 0x7F DUP3 AND SWAP2 POP JUMPDEST PUSH1 0x20 DUP3 LT DUP2 SUB PUSH2 0xC60 JUMPI PUSH2 0xC5F PUSH2 0xC06 JUMP JUMPDEST JUMPDEST POP SWAP2 SWAP1 POP JUMP JUMPDEST PUSH1 0x0 DUP2 SWAP1 POP DUP2 PUSH1 0x0 MSTORE PUSH1 0x20 PUSH1 0x0 KECCAK256 SWAP1 POP SWAP2 SWAP1 POP JUMP JUMPDEST PUSH1 0x0 PUSH1 0x20 PUSH1 0x1F DUP4 ADD DIV SWAP1 POP SWAP2 SWAP1 POP JUMP JUMPDEST PUSH1 0x0 DUP3 DUP3 SHL SWAP1 POP SWAP3 SWAP2 POP POP JUMP JUMPDEST PUSH1 0x0 PUSH1 0x8 DUP4 MUL PUSH2 0xCC8 PUSH32 0xFFFFFFFFFFFFFFFFFFFFFFFFFFFFFFFFFFFFFFFFFFFFFFFFFFFFFFFFFFFFFFFF DUP3 PUSH2 0xC8B JUMP JUMPDEST PUSH2 0xCD2 DUP7 DUP4 PUSH2 0xC8B JUMP JUMPDEST SWAP6 POP DUP1 NOT DUP5 AND SWAP4 POP DUP1 DUP7 AND DUP5 OR SWAP3 POP POP POP SWAP4 SWAP3 POP POP POP JUMP JUMPDEST PUSH1 0x0 DUP2 SWAP1 POP SWAP2 SWAP1 POP JUMP JUMPDEST PUSH1 0x0 PUSH2 0xD0F PUSH2 0xD0A PUSH2 0xD05 DUP5 PUSH2 0x75D JUMP JUMPDEST PUSH2 0xCEA JUMP JUMPDEST PUSH2 0x75D JUMP JUMPDEST SWAP1 POP SWAP2 SWAP1 POP JUMP JUMPDEST PUSH1 0x0 DUP2 SWAP1 POP SWAP2 SWAP1 POP JUMP JUMPDEST PUSH2 0xD29 DUP4 PUSH2 0xCF4 JUMP JUMPDEST PUSH2 0xD3D PUSH2 0xD35 DUP3 PUSH2 0xD16 JUMP JUMPDEST DUP5 DUP5 SLOAD PUSH2 0xC98 JUMP JUMPDEST DUP3 SSTORE POP POP POP POP JUMP JUMPDEST PUSH1 0x0 SWAP1 JUMP JUMPDEST PUSH2 0xD52 PUSH2 0xD45 JUMP JUMPDEST PUSH2 0xD5D DUP2 DUP5 DUP5 PUSH2 0xD20 JUMP JUMPDEST POP POP POP JUMP JUMPDEST JUMPDEST DUP2 DUP2 LT ISZERO PUSH2 0xD81 JUMPI PUSH2 0xD76 PUSH1 0x0 DUP3 PUSH2 0xD4A JUMP JUMPDEST PUSH1 0x1 DUP2 ADD SWAP1 POP PUSH2 0xD63 JUMP JUMPDEST POP POP JUMP JUMPDEST PUSH1 0x1F DUP3 GT ISZERO PUSH2 0xDC6 JUMPI PUSH2 0xD97 DUP2 PUSH2 0xC66 JUMP JUMPDEST PUSH2 0xDA0 DUP5 PUSH2 0xC7B JUMP JUMPDEST DUP2 ADD PUSH1 0x20 DUP6 LT ISZERO PUSH2 0xDAF JUMPI DUP2 SWAP1 POP JUMPDEST PUSH2 0xDC3 PUSH2 0xDBB DUP6 PUSH2 0xC7B JUMP JUMPDEST DUP4 ADD DUP3 PUSH2 0xD62 JUMP JUMPDEST POP POP JUMPDEST POP POP POP JUMP JUMPDEST PUSH1 0x0 DUP3 DUP3 SHR SWAP1 POP SWAP3 SWAP2 POP POP JUMP JUMPDEST PUSH1 0x0 PUSH2 0xDE9 PUSH1 0x0 NOT DUP5 PUSH1 0x8 MUL PUSH2 0xDCB JUMP JUMPDEST NOT DUP1 DUP4 AND SWAP2 POP POP SWAP3 SWAP2 POP POP JUMP JUMPDEST PUSH1 0x0 PUSH2 0xE02 DUP4 DUP4 PUSH2 0xDD8 JUMP JUMPDEST SWAP2 POP DUP3 PUSH1 0x2 MUL DUP3 OR SWAP1 POP SWAP3 SWAP2 POP POP JUMP JUMPDEST PUSH2 0xE1B DUP3 PUSH2 0xACA JUMP JUMPDEST PUSH8 0xFFFFFFFFFFFFFFFF DUP2 GT ISZERO PUSH2 0xE34 JUMPI PUSH2 0xE33 PUSH2 0x8F0 JUMP JUMPDEST JUMPDEST PUSH2 0xE3E DUP3 SLOAD PUSH2 0xC35 JUMP JUMPDEST PUSH2 0xE49 DUP3 DUP3 DUP6 PUSH2 0xD85 JUMP JUMPDEST PUSH1 0x0 PUSH1 0x20 SWAP1 POP PUSH1 0x1F DUP4 GT PUSH1 0x1 DUP2 EQ PUSH2 0xE7C JUMPI PUSH1 0x0 DUP5 ISZERO PUSH2 0xE6A JUMPI DUP3 DUP8 ADD MLOAD SWAP1 POP JUMPDEST PUSH2 0xE74 DUP6 DUP3 PUSH2 0xDF6 JUMP JUMPDEST DUP7 SSTORE POP PUSH2 0xEDC JUMP JUMPDEST PUSH1 0x1F NOT DUP5 AND PUSH2 0xE8A DUP7 PUSH2 0xC66 JUMP JUMPDEST PUSH1 0x0 JUMPDEST DUP3 DUP2 LT ISZERO PUSH2 0xEB2 JUMPI DUP5 DUP10 ADD MLOAD DUP3 SSTORE PUSH1 0x1 DUP3 ADD SWAP2 POP PUSH1 0x20 DUP6 ADD SWAP5 POP PUSH1 0x20 DUP2 ADD SWAP1 POP PUSH2 0xE8D JUMP JUMPDEST DUP7 DUP4 LT ISZERO PUSH2 0xECF JUMPI DUP5 DUP10 ADD MLOAD PUSH2 0xECB PUSH1 0x1F DUP10 AND DUP3 PUSH2 0xDD8 JUMP JUMPDEST DUP4 SSTORE POP JUMPDEST PUSH1 0x1 PUSH1 0x2 DUP9 MUL ADD DUP9 SSTORE POP POP POP JUMPDEST POP POP POP POP POP POP JUMP JUMPDEST PUSH1 0x0 PUSH1 0x40 DUP3 ADD SWAP1 POP PUSH2 0xEF9 PUSH1 0x0 DUP4 ADD DUP6 PUSH2 0x7C0 JUMP JUMPDEST PUSH2 0xF06 PUSH1 0x20 DUP4 ADD DUP5 PUSH2 0x7C0 JUMP JUMPDEST SWAP4 SWAP3 POP POP POP JUMP JUMPDEST PUSH32 0x436C69656E74206E6F7420666F756E6400000000000000000000000000000000 PUSH1 0x0 DUP3 ADD MSTORE POP JUMP JUMPDEST PUSH1 0x0 PUSH2 0xF43 PUSH1 0x10 DUP4 PUSH2 0xAD5 JUMP JUMPDEST SWAP2 POP PUSH2 0xF4E DUP3 PUSH2 0xF0D JUMP JUMPDEST PUSH1 0x20 DUP3 ADD SWAP1 POP SWAP2 SWAP1 POP JUMP JUMPDEST PUSH1 0x0 PUSH1 0x20 DUP3 ADD SWAP1 POP DUP2 DUP2 SUB PUSH1 0x0 DUP4 ADD MSTORE PUSH2 0xF72 DUP2 PUSH2 0xF36 JUMP JUMPDEST SWAP1 POP SWAP2 SWAP1 POP JUMP INVALID LOG2 PUSH5 0x6970667358 0x22 SLT KECCAK256 MSTORE RETURN PUSH7 0x309B8ED84BBCF6 SIGNEXTEND PUSH8 0xE058D93CC0106B8D 0xD4 0xA7 0x28 SWAP14 PUSH26 0x5FA4560B34578464736F6C634300081C00330000000000000000 "},"methodIdentifiers":{"addRoundWeightsReference(string,uint256,uint256)":"8e442468","addToBlacklist(uint256)":"8b762e6c","blacklist(uint256)":"0f2a0919","getOwner()":"893d20e8","getWeightOfRoundOfClient(uint256,uint256)":"e6cba98d","isClientInBlacklist(uint256)":"319e4199","isPoisonerCid(uint256)":"606e8a6b","setServerCorrupted(bool)":"3dff5403","weightsReferences(uint256)":"1c21cddc"}}}}}