{"src/blockchain/contracts/CheckWeights.sol":{"CheckWeights":{"abi":[{"inputs":[],"stateMutability":"nonpayable","type":"constructor"},{"anonymous":false,"inputs":[{"indexed":false,"internalType":"string","name":"weightsHash","type":"string"},{"indexed":false,"internalType":"uint256","name":"round","type":"uint256"},{"indexed":false,"internalType":"uint256","name":"federatedCid","type":"uint256"}],"name":"WroteWeightsOfRoundForClient","type":"event"},{"inputs":[{"internalType":"string","name":"_weightsHash","type":"string"},{"internalType":"uint256","name":"_round","type":"uint256"},{"internalType":"uint256","name":"_federatedCid","type":"uint256"}],"name":"addRoundWeightsReference","outputs":[],"stateMutability":"nonpayable","type":"function"},{"inputs":[{"internalType":"uint256","name":"_federatedCid","type":"uint256"}],"name":"addToBlacklist","outputs":[],"stateMutability":"nonpayable","type":"function"},{"inputs":[{"internalType":"uint256","name":"","type":"uint256"}],"name":"blacklist","outputs":[{"internalType":"uint256","name":"","type":"uint256"}],"stateMutability":"view","type":"function"},{"inputs":[],"name":"getBlacklist","outputs":[{"internalType":"uint256[]","name":"","type":"uint256[]"}],"stateMutability":"view","type":"function"},{"inputs":[],"name":"getOwner","outputs":[{"internalType":"address","name":"","type":"address"}],"stateMutability":"view","type":"function"}],"evm":{"bytecode":{"linkReferences":{},"object":"6080604052348015600f57600080fd5b5033600260006101000a81548173ffffffffffffffffffffffffffffffffffffffff021916908373ffffffffffffffffffffffffffffffffffffffff160217905550610b59806100606000396000f3fe608060405234801561001057600080fd5b50600436106100575760003560e01c80630f2a09191461005c578063338d6c301461008c578063893d20e8146100aa5780638b762e6c146100c85780638e442468146100e4575b600080fd5b6100766004803603810190610071919061035e565b610100565b604051610083919061039a565b60405180910390f35b610094610124565b6040516100a19190610473565b60405180910390f35b6100b261020c565b6040516100bf91906104d6565b60405180910390f35b6100e260048036038101906100dd919061035e565b610236565b005b6100fe60048036038101906100f99190610637565b610262565b005b6001818154811061011057600080fd5b906000526020600020016000915090505481565b6060600260009054906101000a900473ffffffffffffffffffffffffffffffffffffffff1673ffffffffffffffffffffffffffffffffffffffff163373ffffffffffffffffffffffffffffffffffffffff16146101b6576040517f08c379a00000000000000000000000000000000000000000000000000000000081526004016101ad90610729565b60405180910390fd5b600180548060200260200160405190810160405280929190818152602001828054801561020257602002820191906000526020600020905b8154815260200190600101908083116101ee575b5050505050905090565b6000600260009054906101000a900473ffffffffffffffffffffffffffffffffffffffff16905090565b600181908060018154018082558091505060019003906000526020600020016000909190919091505550565b600080828152602001908152602001600020839080600181540180825580915050600190039060005260206000200160009091909190915090816102a69190610960565b507f3a421c4d4ec7017bb674a1b0e550ad67f9f4976f720622032587ec6a5a86f07260008083815260200190815260200160002083815481106102ec576102eb610a32565b5b90600052602060002001838360405161030793929190610ae5565b60405180910390a1505050565b6000604051905090565b600080fd5b600080fd5b6000819050919050565b61033b81610328565b811461034657600080fd5b50565b60008135905061035881610332565b92915050565b6000602082840312156103745761037361031e565b5b600061038284828501610349565b91505092915050565b61039481610328565b82525050565b60006020820190506103af600083018461038b565b92915050565b600081519050919050565b600082825260208201905092915050565b6000819050602082019050919050565b6103ea81610328565b82525050565b60006103fc83836103e1565b60208301905092915050565b6000602082019050919050565b6000610420826103b5565b61042a81856103c0565b9350610435836103d1565b8060005b8381101561046657815161044d88826103f0565b975061045883610408565b925050600181019050610439565b5085935050505092915050565b6000602082019050818103600083015261048d8184610415565b905092915050565b600073ffffffffffffffffffffffffffffffffffffffff82169050919050565b60006104c082610495565b9050919050565b6104d0816104b5565b82525050565b60006020820190506104eb60008301846104c7565b92915050565b600080fd5b600080fd5b6000601f19601f8301169050919050565b7f4e487b7100000000000000000000000000000000000000000000000000000000600052604160045260246000fd5b610544826104fb565b810181811067ffffffffffffffff821117156105635761056261050c565b5b80604052505050565b6000610576610314565b9050610582828261053b565b919050565b600067ffffffffffffffff8211156105a2576105a161050c565b5b6105ab826104fb565b9050602081019050919050565b82818337600083830152505050565b60006105da6105d584610587565b61056c565b9050828152602081018484840111156105f6576105f56104f6565b5b6106018482856105b8565b509392505050565b600082601f83011261061e5761061d6104f1565b5b813561062e8482602086016105c7565b91505092915050565b6000806000606084860312156106505761064f61031e565b5b600084013567ffffffffffffffff81111561066e5761066d610323565b5b61067a86828701610609565b935050602061068b86828701610349565b925050604061069c86828701610349565b9150509250925092565b600082825260208201905092915050565b7f4f6e6c7920746865206f776e65722063616e2063616c6c20746869732066756e60008201527f6374696f6e2e0000000000000000000000000000000000000000000000000000602082015250565b60006107136026836106a6565b915061071e826106b7565b604082019050919050565b6000602082019050818103600083015261074281610706565b9050919050565b600081519050919050565b7f4e487b7100000000000000000000000000000000000000000000000000000000600052602260045260246000fd5b6000600282049050600182168061079b57607f821691505b6020821081036107ae576107ad610754565b5b50919050565b60008190508160005260206000209050919050565b60006020601f8301049050919050565b600082821b905092915050565b6000600883026108167fffffffffffffffffffffffffffffffffffffffffffffffffffffffffffffffff826107d9565b61082086836107d9565b95508019841693508086168417925050509392505050565b6000819050919050565b600061085d61085861085384610328565b610838565b610328565b9050919050565b6000819050919050565b61087783610842565b61088b61088382610864565b8484546107e6565b825550505050565b600090565b6108a0610893565b6108ab81848461086e565b505050565b5b818110156108cf576108c4600082610898565b6001810190506108b1565b5050565b601f821115610914576108e5816107b4565b6108ee846107c9565b810160208510156108fd578190505b610911610909856107c9565b8301826108b0565b50505b505050565b600082821c905092915050565b600061093760001984600802610919565b1980831691505092915050565b60006109508383610926565b9150826002028217905092915050565b61096982610749565b67ffffffffffffffff8111156109825761098161050c565b5b61098c8254610783565b6109978282856108d3565b600060209050601f8311600181146109ca57600084156109b8578287015190505b6109c28582610944565b865550610a2a565b601f1984166109d8866107b4565b60005b82811015610a00578489015182556001820191506020850194506020810190506109db565b86831015610a1d5784890151610a19601f891682610926565b8355505b6001600288020188555050505b505050505050565b7f4e487b7100000000000000000000000000000000000000000000000000000000600052603260045260246000fd5b60008154610a6e81610783565b610a7881866106a6565b94506001821660008114610a935760018114610aa957610adc565b60ff198316865281151560200286019350610adc565b610ab2856107b4565b60005b83811015610ad457815481890152600182019150602081019050610ab5565b808801955050505b50505092915050565b60006060820190508181036000830152610aff8186610a61565b9050610b0e602083018561038b565b610b1b604083018461038b565b94935050505056fea26469706673582212202ee26b5e1bf9a35dc0bb028787662c53826aefc3250cbb357f6ae4a422b0d26464736f6c634300081c0033","opcodes":"PUSH1 0x80 PUSH1 0x40 MSTORE CALLVALUE DUP1 ISZERO PUSH1 0xF JUMPI PUSH1 0x0 DUP1 REVERT JUMPDEST POP CALLER PUSH1 0x2 PUSH1 0x0 PUSH2 0x100 EXP DUP2 SLOAD DUP2 PUSH20 0xFFFFFFFFFFFFFFFFFFFFFFFFFFFFFFFFFFFFFFFF MUL NOT AND SWAP1 DUP4 PUSH20 0xFFFFFFFFFFFFFFFFFFFFFFFFFFFFFFFFFFFFFFFF AND MUL OR SWAP1 SSTORE POP PUSH2 0xB59 DUP1 PUSH2 0x60 PUSH1 0x0 CODECOPY PUSH1 0x0 RETURN INVALID PUSH1 0x80 PUSH1 0x40 MSTORE CALLVALUE DUP1 ISZERO PUSH2 0x10 JUMPI PUSH1 0x0 DUP1 REVERT JUMPDEST POP PUSH1 0x4 CALLDATASIZE LT PUSH2 0x57 JUMPI PUSH1 0x0 CALLDATALOAD PUSH1 0xE0 SHR DUP1 PUSH4 0xF2A0919 EQ PUSH2 0x5C JUMPI DUP1 PUSH4 0x338D6C30 EQ PUSH2 0x8C JUMPI DUP1 PUSH4 0x893D20E8 EQ PUSH2 0xAA JUMPI DUP1 PUSH4 0x8B762E6C EQ PUSH2 0xC8 JUMPI DUP1 PUSH4 0x8E442468 EQ PUSH2 0xE4 JUMPI JUMPDEST PUSH1 0x0 DUP1 REVERT JUMPDEST PUSH2 0x76 PUSH1 0x4 DUP1 CALLDATASIZE SUB DUP2 ADD SWAP1 PUSH2 0x71 SWAP2 SWAP1 PUSH2 0x35E JUMP JUMPDEST PUSH2 0x100 JUMP JUMPDEST PUSH1 0x40 MLOAD PUSH2 0x83 SWAP2 SWAP1 PUSH2 0x39A JUMP JUMPDEST PUSH1 0x40 MLOAD DUP1 SWAP2 SUB SWAP1 RETURN JUMPDEST PUSH2 0x94 PUSH2 0x124 JUMP JUMPDEST PUSH1 0x40 MLOAD PUSH2 0xA1 SWAP2 SWAP1 PUSH2 0x473 JUMP JUMPDEST PUSH1 0x40 MLOAD DUP1 SWAP2 SUB SWAP1 RETURN JUMPDEST PUSH2 0xB2 PUSH2 0x20C JUMP JUMPDEST PUSH1 0x40 MLOAD PUSH2 0xBF SWAP2 SWAP1 PUSH2 0x4D6 JUMP JUMPDEST PUSH1 0x40 MLOAD DUP1 SWAP2 SUB SWAP1 RETURN JUMPDEST PUSH2 0xE2 PUSH1 0x4 DUP1 CALLDATASIZE SUB DUP2 ADD SWAP1 PUSH2 0xDD SWAP2 SWAP1 PUSH2 0x35E JUMP JUMPDEST PUSH2 0x236 JUMP JUMPDEST STOP JUMPDEST PUSH2 0xFE PUSH1 0x4 DUP1 CALLDATASIZE SUB DUP2 ADD SWAP1 PUSH2 0xF9 SWAP2 SWAP1 PUSH2 0x637 JUMP JUMPDEST PUSH2 0x262 JUMP JUMPDEST STOP JUMPDEST PUSH1 0x1 DUP2 DUP2 SLOAD DUP2 LT PUSH2 0x110 JUMPI PUSH1 0x0 DUP1 REVERT JUMPDEST SWAP1 PUSH1 0x0 MSTORE PUSH1 0x20 PUSH1 0x0 KECCAK256 ADD PUSH1 0x0 SWAP2 POP SWAP1 POP SLOAD DUP2 JUMP JUMPDEST PUSH1 0x60 PUSH1 0x2 PUSH1 0x0 SWAP1 SLOAD SWAP1 PUSH2 0x100 EXP SWAP1 DIV PUSH20 0xFFFFFFFFFFFFFFFFFFFFFFFFFFFFFFFFFFFFFFFF AND PUSH20 0xFFFFFFFFFFFFFFFFFFFFFFFFFFFFFFFFFFFFFFFF AND CALLER PUSH20 0xFFFFFFFFFFFFFFFFFFFFFFFFFFFFFFFFFFFFFFFF AND EQ PUSH2 0x1B6 JUMPI PUSH1 0x40 MLOAD PUSH32 0x8C379A000000000000000000000000000000000000000000000000000000000 DUP2 MSTORE PUSH1 0x4 ADD PUSH2 0x1AD SWAP1 PUSH2 0x729 JUMP JUMPDEST PUSH1 0x40 MLOAD DUP1 SWAP2 SUB SWAP1 REVERT JUMPDEST PUSH1 0x1 DUP1 SLOAD DUP1 PUSH1 0x20 MUL PUSH1 0x20 ADD PUSH1 0x40 MLOAD SWAP1 DUP2 ADD PUSH1 0x40 MSTORE DUP1 SWAP3 SWAP2 SWAP1 DUP2 DUP2 MSTORE PUSH1 0x20 ADD DUP3 DUP1 SLOAD DUP1 ISZERO PUSH2 0x202 JUMPI PUSH1 0x20 MUL DUP3 ADD SWAP2 SWAP1 PUSH1 0x0 MSTORE PUSH1 0x20 PUSH1 0x0 KECCAK256 SWAP1 JUMPDEST DUP2 SLOAD DUP2 MSTORE PUSH1 0x20 ADD SWAP1 PUSH1 0x1 ADD SWAP1 DUP1 DUP4 GT PUSH2 0x1EE JUMPI JUMPDEST POP POP POP POP POP SWAP1 POP SWAP1 JUMP JUMPDEST PUSH1 0x0 PUSH1 0x2 PUSH1 0x0 SWAP1 SLOAD SWAP1 PUSH2 0x100 EXP SWAP1 DIV PUSH20 0xFFFFFFFFFFFFFFFFFFFFFFFFFFFFFFFFFFFFFFFF AND SWAP1 POP SWAP1 JUMP JUMPDEST PUSH1 0x1 DUP2 SWAP1 DUP1 PUSH1 0x1 DUP2 SLOAD ADD DUP1 DUP3 SSTORE DUP1 SWAP2 POP POP PUSH1 0x1 SWAP1 SUB SWAP1 PUSH1 0x0 MSTORE PUSH1 0x20 PUSH1 0x0 KECCAK256 ADD PUSH1 0x0 SWAP1 SWAP2 SWAP1 SWAP2 SWAP1 SWAP2 POP SSTORE POP JUMP JUMPDEST PUSH1 0x0 DUP1 DUP3 DUP2 MSTORE PUSH1 0x20 ADD SWAP1 DUP2 MSTORE PUSH1 0x20 ADD PUSH1 0x0 KECCAK256 DUP4 SWAP1 DUP1 PUSH1 0x1 DUP2 SLOAD ADD DUP1 DUP3 SSTORE DUP1 SWAP2 POP POP PUSH1 0x1 SWAP1 SUB SWAP1 PUSH1 0x0 MSTORE PUSH1 0x20 PUSH1 0x0 KECCAK256 ADD PUSH1 0x0 SWAP1 SWAP2 SWAP1 SWAP2 SWAP1 SWAP2 POP SWAP1 DUP2 PUSH2 0x2A6 SWAP2 SWAP1 PUSH2 0x960 JUMP JUMPDEST POP PUSH32 0x3A421C4D4EC7017BB674A1B0E550AD67F9F4976F720622032587EC6A5A86F072 PUSH1 0x0 DUP1 DUP4 DUP2 MSTORE PUSH1 0x20 ADD SWAP1 DUP2 MSTORE PUSH1 0x20 ADD PUSH1 0x0 KECCAK256 DUP4 DUP2 SLOAD DUP2 LT PUSH2 0x2EC JUMPI PUSH2 0x2EB PUSH2 0xA32 JUMP JUMPDEST JUMPDEST SWAP1 PUSH1 0x0 MSTORE PUSH1 0x20 PUSH1 0x0 KECCAK256 ADD DUP4 DUP4 PUSH1 0x40 MLOAD PUSH2 0x307 SWAP4 SWAP3 SWAP2 SWAP1 PUSH2 0xAE5 JUMP JUMPDEST PUSH1 0x40 MLOAD DUP1 SWAP2 SUB SWAP1 LOG1 POP POP POP JUMP JUMPDEST PUSH1 0x0 PUSH1 0x40 MLOAD SWAP1 POP SWAP1 JUMP JUMPDEST PUSH1 0x0 DUP1 REVERT JUMPDEST PUSH1 0x0 DUP1 REVERT JUMPDEST PUSH1 0x0 DUP2 SWAP1 POP SWAP2 SWAP1 POP JUMP JUMPDEST PUSH2 0x33B DUP2 PUSH2 0x328 JUMP JUMPDEST DUP2 EQ PUSH2 0x346 JUMPI PUSH1 0x0 DUP1 REVERT JUMPDEST POP JUMP JUMPDEST PUSH1 0x0 DUP2 CALLDATALOAD SWAP1 POP PUSH2 0x358 DUP2 PUSH2 0x332 JUMP JUMPDEST SWAP3 SWAP2 POP POP JUMP JUMPDEST PUSH1 0x0 PUSH1 0x20 DUP3 DUP5 SUB SLT ISZERO PUSH2 0x374 JUMPI PUSH2 0x373 PUSH2 0x31E JUMP JUMPDEST JUMPDEST PUSH1 0x0 PUSH2 0x382 DUP5 DUP3 DUP6 ADD PUSH2 0x349 JUMP JUMPDEST SWAP2 POP POP SWAP3 SWAP2 POP POP JUMP JUMPDEST PUSH2 0x394 DUP2 PUSH2 0x328 JUMP JUMPDEST DUP3 MSTORE POP POP JUMP JUMPDEST PUSH1 0x0 PUSH1 0x20 DUP3 ADD SWAP1 POP PUSH2 0x3AF PUSH1 0x0 DUP4 ADD DUP5 PUSH2 0x38B JUMP JUMPDEST SWAP3 SWAP2 POP POP JUMP JUMPDEST PUSH1 0x0 DUP2 MLOAD SWAP1 POP SWAP2 SWAP1 POP JUMP JUMPDEST PUSH1 0x0 DUP3 DUP3 MSTORE PUSH1 0x20 DUP3 ADD SWAP1 POP SWAP3 SWAP2 POP POP JUMP JUMPDEST PUSH1 0x0 DUP2 SWAP1 POP PUSH1 0x20 DUP3 ADD SWAP1 POP SWAP2 SWAP1 POP JUMP JUMPDEST PUSH2 0x3EA DUP2 PUSH2 0x328 JUMP JUMPDEST DUP3 MSTORE POP POP JUMP JUMPDEST PUSH1 0x0 PUSH2 0x3FC DUP4 DUP4 PUSH2 0x3E1 JUMP JUMPDEST PUSH1 0x20 DUP4 ADD SWAP1 POP SWAP3 SWAP2 POP POP JUMP JUMPDEST PUSH1 0x0 PUSH1 0x20 DUP3 ADD SWAP1 POP SWAP2 SWAP1 POP JUMP JUMPDEST PUSH1 0x0 PUSH2 0x420 DUP3 PUSH2 0x3B5 JUMP JUMPDEST PUSH2 0x42A DUP2 DUP6 PUSH2 0x3C0 JUMP JUMPDEST SWAP4 POP PUSH2 0x435 DUP4 PUSH2 0x3D1 JUMP JUMPDEST DUP1 PUSH1 0x0 JUMPDEST DUP4 DUP2 LT ISZERO PUSH2 0x466 JUMPI DUP2 MLOAD PUSH2 0x44D DUP9 DUP3 PUSH2 0x3F0 JUMP JUMPDEST SWAP8 POP PUSH2 0x458 DUP4 PUSH2 0x408 JUMP JUMPDEST SWAP3 POP POP PUSH1 0x1 DUP2 ADD SWAP1 POP PUSH2 0x439 JUMP JUMPDEST POP DUP6 SWAP4 POP POP POP POP SWAP3 SWAP2 POP POP JUMP JUMPDEST PUSH1 0x0 PUSH1 0x20 DUP3 ADD SWAP1 POP DUP2 DUP2 SUB PUSH1 0x0 DUP4 ADD MSTORE PUSH2 0x48D DUP2 DUP5 PUSH2 0x415 JUMP JUMPDEST SWAP1 POP SWAP3 SWAP2 POP POP JUMP JUMPDEST PUSH1 0x0 PUSH20 0xFFFFFFFFFFFFFFFFFFFFFFFFFFFFFFFFFFFFFFFF DUP3 AND SWAP1 POP SWAP2 SWAP1 POP JUMP JUMPDEST PUSH1 0x0 PUSH2 0x4C0 DUP3 PUSH2 0x495 JUMP JUMPDEST SWAP1 POP SWAP2 SWAP1 POP JUMP JUMPDEST PUSH2 0x4D0 DUP2 PUSH2 0x4B5 JUMP JUMPDEST DUP3 MSTORE POP POP JUMP JUMPDEST PUSH1 0x0 PUSH1 0x20 DUP3 ADD SWAP1 POP PUSH2 0x4EB PUSH1 0x0 DUP4 ADD DUP5 PUSH2 0x4C7 JUMP JUMPDEST SWAP3 SWAP2 POP POP JUMP JUMPDEST PUSH1 0x0 DUP1 REVERT JUMPDEST PUSH1 0x0 DUP1 REVERT JUMPDEST PUSH1 0x0 PUSH1 0x1F NOT PUSH1 0x1F DUP4 ADD AND SWAP1 POP SWAP2 SWAP1 POP JUMP JUMPDEST PUSH32 0x4E487B7100000000000000000000000000000000000000000000000000000000 PUSH1 0x0 MSTORE PUSH1 0x41 PUSH1 0x4 MSTORE PUSH1 0x24 PUSH1 0x0 REVERT JUMPDEST PUSH2 0x544 DUP3 PUSH2 0x4FB JUMP JUMPDEST DUP2 ADD DUP2 DUP2 LT PUSH8 0xFFFFFFFFFFFFFFFF DUP3 GT OR ISZERO PUSH2 0x563 JUMPI PUSH2 0x562 PUSH2 0x50C JUMP JUMPDEST JUMPDEST DUP1 PUSH1 0x40 MSTORE POP POP POP JUMP JUMPDEST PUSH1 0x0 PUSH2 0x576 PUSH2 0x314 JUMP JUMPDEST SWAP1 POP PUSH2 0x582 DUP3 DUP3 PUSH2 0x53B JUMP JUMPDEST SWAP2 SWAP1 POP JUMP JUMPDEST PUSH1 0x0 PUSH8 0xFFFFFFFFFFFFFFFF DUP3 GT ISZERO PUSH2 0x5A2 JUMPI PUSH2 0x5A1 PUSH2 0x50C JUMP JUMPDEST JUMPDEST PUSH2 0x5AB DUP3 PUSH2 0x4FB JUMP JUMPDEST SWAP1 POP PUSH1 0x20 DUP2 ADD SWAP1 POP SWAP2 SWAP1 POP JUMP JUMPDEST DUP3 DUP2 DUP4 CALLDATACOPY PUSH1 0x0 DUP4 DUP4 ADD MSTORE POP POP POP JUMP JUMPDEST PUSH1 0x0 PUSH2 0x5DA PUSH2 0x5D5 DUP5 PUSH2 0x587 JUMP JUMPDEST PUSH2 0x56C JUMP JUMPDEST SWAP1 POP DUP3 DUP2 MSTORE PUSH1 0x20 DUP2 ADD DUP5 DUP5 DUP5 ADD GT ISZERO PUSH2 0x5F6 JUMPI PUSH2 0x5F5 PUSH2 0x4F6 JUMP JUMPDEST JUMPDEST PUSH2 0x601 DUP5 DUP3 DUP6 PUSH2 0x5B8 JUMP JUMPDEST POP SWAP4 SWAP3 POP POP POP JUMP JUMPDEST PUSH1 0x0 DUP3 PUSH1 0x1F DUP4 ADD SLT PUSH2 0x61E JUMPI PUSH2 0x61D PUSH2 0x4F1 JUMP JUMPDEST JUMPDEST DUP2 CALLDATALOAD PUSH2 0x62E DUP5 DUP3 PUSH1 0x20 DUP7 ADD PUSH2 0x5C7 JUMP JUMPDEST SWAP2 POP POP SWAP3 SWAP2 POP POP JUMP JUMPDEST PUSH1 0x0 DUP1 PUSH1 0x0 PUSH1 0x60 DUP5 DUP7 SUB SLT ISZERO PUSH2 0x650 JUMPI PUSH2 0x64F PUSH2 0x31E JUMP JUMPDEST JUMPDEST PUSH1 0x0 DUP5 ADD CALLDATALOAD PUSH8 0xFFFFFFFFFFFFFFFF DUP2 GT ISZERO PUSH2 0x66E JUMPI PUSH2 0x66D PUSH2 0x323 JUMP JUMPDEST JUMPDEST PUSH2 0x67A DUP7 DUP3 DUP8 ADD PUSH2 0x609 JUMP JUMPDEST SWAP4 POP POP PUSH1 0x20 PUSH2 0x68B DUP7 DUP3 DUP8 ADD PUSH2 0x349 JUMP JUMPDEST SWAP3 POP POP PUSH1 0x40 PUSH2 0x69C DUP7 DUP3 DUP8 ADD PUSH2 0x349 JUMP JUMPDEST SWAP2 POP POP SWAP3 POP SWAP3 POP SWAP3 JUMP JUMPDEST PUSH1 0x0 DUP3 DUP3 MSTORE PUSH1 0x20 DUP3 ADD SWAP1 POP SWAP3 SWAP2 POP POP JUMP JUMPDEST PUSH32 0x4F6E6C7920746865206F776E65722063616E2063616C6C20746869732066756E PUSH1 0x0 DUP3 ADD MSTORE PUSH32 0x6374696F6E2E0000000000000000000000000000000000000000000000000000 PUSH1 0x20 DUP3 ADD MSTORE POP JUMP JUMPDEST PUSH1 0x0 PUSH2 0x713 PUSH1 0x26 DUP4 PUSH2 0x6A6 JUMP JUMPDEST SWAP2 POP PUSH2 0x71E DUP3 PUSH2 0x6B7 JUMP JUMPDEST PUSH1 0x40 DUP3 ADD SWAP1 POP SWAP2 SWAP1 POP JUMP JUMPDEST PUSH1 0x0 PUSH1 0x20 DUP3 ADD SWAP1 POP DUP2 DUP2 SUB PUSH1 0x0 DUP4 ADD MSTORE PUSH2 0x742 DUP2 PUSH2 0x706 JUMP JUMPDEST SWAP1 POP SWAP2 SWAP1 POP JUMP JUMPDEST PUSH1 0x0 DUP2 MLOAD SWAP1 POP SWAP2 SWAP1 POP JUMP JUMPDEST PUSH32 0x4E487B7100000000000000000000000000000000000000000000000000000000 PUSH1 0x0 MSTORE PUSH1 0x22 PUSH1 0x4 MSTORE PUSH1 0x24 PUSH1 0x0 REVERT JUMPDEST PUSH1 0x0 PUSH1 0x2 DUP3 DIV SWAP1 POP PUSH1 0x1 DUP3 AND DUP1 PUSH2 0x79B JUMPI PUSH1 0x7F DUP3 AND SWAP2 POP JUMPDEST PUSH1 0x20 DUP3 LT DUP2 SUB PUSH2 0x7AE JUMPI PUSH2 0x7AD PUSH2 0x754 JUMP JUMPDEST JUMPDEST POP SWAP2 SWAP1 POP JUMP JUMPDEST PUSH1 0x0 DUP2 SWAP1 POP DUP2 PUSH1 0x0 MSTORE PUSH1 0x20 PUSH1 0x0 KECCAK256 SWAP1 POP SWAP2 SWAP1 POP JUMP JUMPDEST PUSH1 0x0 PUSH1 0x20 PUSH1 0x1F DUP4 ADD DIV SWAP1 POP SWAP2 SWAP1 POP JUMP JUMPDEST PUSH1 0x0 DUP3 DUP3 SHL SWAP1 POP SWAP3 SWAP2 POP POP JUMP JUMPDEST PUSH1 0x0 PUSH1 0x8 DUP4 MUL PUSH2 0x816 PUSH32 0xFFFFFFFFFFFFFFFFFFFFFFFFFFFFFFFFFFFFFFFFFFFFFFFFFFFFFFFFFFFFFFFF DUP3 PUSH2 0x7D9 JUMP JUMPDEST PUSH2 0x820 DUP7 DUP4 PUSH2 0x7D9 JUMP JUMPDEST SWAP6 POP DUP1 NOT DUP5 AND SWAP4 POP DUP1 DUP7 AND DUP5 OR SWAP3 POP POP POP SWAP4 SWAP3 POP POP POP JUMP JUMPDEST PUSH1 0x0 DUP2 SWAP1 POP SWAP2 SWAP1 POP JUMP JUMPDEST PUSH1 0x0 PUSH2 0x85D PUSH2 0x858 PUSH2 0x853 DUP5 PUSH2 0x328 JUMP JUMPDEST PUSH2 0x838 JUMP JUMPDEST PUSH2 0x328 JUMP JUMPDEST SWAP1 POP SWAP2 SWAP1 POP JUMP JUMPDEST PUSH1 0x0 DUP2 SWAP1 POP SWAP2 SWAP1 POP JUMP JUMPDEST PUSH2 0x877 DUP4 PUSH2 0x842 JUMP JUMPDEST PUSH2 0x88B PUSH2 0x883 DUP3 PUSH2 0x864 JUMP JUMPDEST DUP5 DUP5 SLOAD PUSH2 0x7E6 JUMP JUMPDEST DUP3 SSTORE POP POP POP POP JUMP JUMPDEST PUSH1 0x0 SWAP1 JUMP JUMPDEST PUSH2 0x8A0 PUSH2 0x893 JUMP JUMPDEST PUSH2 0x8AB DUP2 DUP5 DUP5 PUSH2 0x86E JUMP JUMPDEST POP POP POP JUMP JUMPDEST JUMPDEST DUP2 DUP2 LT ISZERO PUSH2 0x8CF JUMPI PUSH2 0x8C4 PUSH1 0x0 DUP3 PUSH2 0x898 JUMP JUMPDEST PUSH1 0x1 DUP2 ADD SWAP1 POP PUSH2 0x8B1 JUMP JUMPDEST POP POP JUMP JUMPDEST PUSH1 0x1F DUP3 GT ISZERO PUSH2 0x914 JUMPI PUSH2 0x8E5 DUP2 PUSH2 0x7B4 JUMP JUMPDEST PUSH2 0x8EE DUP5 PUSH2 0x7C9 JUMP JUMPDEST DUP2 ADD PUSH1 0x20 DUP6 LT ISZERO PUSH2 0x8FD JUMPI DUP2 SWAP1 POP JUMPDEST PUSH2 0x911 PUSH2 0x909 DUP6 PUSH2 0x7C9 JUMP JUMPDEST DUP4 ADD DUP3 PUSH2 0x8B0 JUMP JUMPDEST POP POP JUMPDEST POP POP POP JUMP JUMPDEST PUSH1 0x0 DUP3 DUP3 SHR SWAP1 POP SWAP3 SWAP2 POP POP JUMP JUMPDEST PUSH1 0x0 PUSH2 0x937 PUSH1 0x0 NOT DUP5 PUSH1 0x8 MUL PUSH2 0x919 JUMP JUMPDEST NOT DUP1 DUP4 AND SWAP2 POP POP SWAP3 SWAP2 POP POP JUMP JUMPDEST PUSH1 0x0 PUSH2 0x950 DUP4 DUP4 PUSH2 0x926 JUMP JUMPDEST SWAP2 POP DUP3 PUSH1 0x2 MUL DUP3 OR SWAP1 POP SWAP3 SWAP2 POP POP JUMP JUMPDEST PUSH2 0x969 DUP3 PUSH2 0x749 JUMP JUMPDEST PUSH8 0xFFFFFFFFFFFFFFFF DUP2 GT ISZERO PUSH2 0x982 JUMPI PUSH2 0x981 PUSH2 0x50C JUMP JUMPDEST JUMPDEST PUSH2 0x98C DUP3 SLOAD PUSH2 0x783 JUMP JUMPDEST PUSH2 0x997 DUP3 DUP3 DUP6 PUSH2 0x8D3 JUMP JUMPDEST PUSH1 0x0 PUSH1 0x20 SWAP1 POP PUSH1 0x1F DUP4 GT PUSH1 0x1 DUP2 EQ PUSH2 0x9CA JUMPI PUSH1 0x0 DUP5 ISZERO PUSH2 0x9B8 JUMPI DUP3 DUP8 ADD MLOAD SWAP1 POP JUMPDEST PUSH2 0x9C2 DUP6 DUP3 PUSH2 0x944 JUMP JUMPDEST DUP7 SSTORE POP PUSH2 0xA2A JUMP JUMPDEST PUSH1 0x1F NOT DUP5 AND PUSH2 0x9D8 DUP7 PUSH2 0x7B4 JUMP JUMPDEST PUSH1 0x0 JUMPDEST DUP3 DUP2 LT ISZERO PUSH2 0xA00 JUMPI DUP5 DUP10 ADD MLOAD DUP3 SSTORE PUSH1 0x1 DUP3 ADD SWAP2 POP PUSH1 0x20 DUP6 ADD SWAP5 POP PUSH1 0x20 DUP2 ADD SWAP1 POP PUSH2 0x9DB JUMP JUMPDEST DUP7 DUP4 LT ISZERO PUSH2 0xA1D JUMPI DUP5 DUP10 ADD MLOAD PUSH2 0xA19 PUSH1 0x1F DUP10 AND DUP3 PUSH2 0x926 JUMP JUMPDEST DUP4 SSTORE POP JUMPDEST PUSH1 0x1 PUSH1 0x2 DUP9 MUL ADD DUP9 SSTORE POP POP POP JUMPDEST POP POP POP POP POP POP JUMP JUMPDEST PUSH32 0x4E487B7100000000000000000000000000000000000000000000000000000000 PUSH1 0x0 MSTORE PUSH1 0x32 PUSH1 0x4 MSTORE PUSH1 0x24 PUSH1 0x0 REVERT JUMPDEST PUSH1 0x0 DUP2 SLOAD PUSH2 0xA6E DUP2 PUSH2 0x783 JUMP JUMPDEST PUSH2 0xA78 DUP2 DUP7 PUSH2 0x6A6 JUMP JUMPDEST SWAP5 POP PUSH1 0x1 DUP3 AND PUSH1 0x0 DUP2 EQ PUSH2 0xA93 JUMPI PUSH1 0x1 DUP2 EQ PUSH2 0xAA9 JUMPI PUSH2 0xADC JUMP JUMPDEST PUSH1 0xFF NOT DUP4 AND DUP7 MSTORE DUP2 ISZERO ISZERO PUSH1 0x20 MUL DUP7 ADD SWAP4 POP PUSH2 0xADC JUMP JUMPDEST PUSH2 0xAB2 DUP6 PUSH2 0x7B4 JUMP JUMPDEST PUSH1 0x0 JUMPDEST DUP4 DUP2 LT ISZERO PUSH2 0xAD4 JUMPI DUP2 SLOAD DUP2 DUP10 ADD MSTORE PUSH1 0x1 DUP3 ADD SWAP2 POP PUSH1 0x20 DUP2 ADD SWAP1 POP PUSH2 0xAB5 JUMP JUMPDEST DUP1 DUP9 ADD SWAP6 POP POP POP JUMPDEST POP POP POP SWAP3 SWAP2 POP POP JUMP JUMPDEST PUSH1 0x0 PUSH1 0x60 DUP3 ADD SWAP1 POP DUP2 DUP2 SUB PUSH1 0x0 DUP4 ADD MSTORE PUSH2 0xAFF DUP2 DUP7 PUSH2 0xA61 JUMP JUMPDEST SWAP1 POP PUSH2 0xB0E PUSH1 0x20 DUP4 ADD DUP6 PUSH2 0x38B JUMP JUMPDEST PUSH2 0xB1B PUSH1 0x40 DUP4 ADD DUP5 PUSH2 0x38B JUMP JUMPDEST SWAP5 SWAP4 POP POP POP POP JUMP INVALID LOG2 PUSH5 0x6970667358 0x22 SLT KECCAK256 0x2E 0xE2 PUSH12 0x5E1BF9A35DC0BB028787662C MSTORE8 DUP3 PUSH11 0xEFC3250CBB357F6AE4A422 0xB0 0xD2 PUSH5 0x64736F6C63 NUMBER STOP ADDMOD SHR STOP CALLER "},"methodIdentifiers":{"addRoundWeightsReference(string,uint256,uint256)":"8e442468","addToBlacklist(uint256)":"8b762e6c","blacklist(uint256)":"0f2a0919","getBlacklist()":"338d6c30","getOwner()":"893d20e8"}}}}}