{"src/blockchain/contracts/CheckWeights.sol":{"CheckWeights":{"abi":[{"inputs":[],"stateMutability":"nonpayable","type":"constructor"},{"anonymous":false,"inputs":[{"indexed":false,"internalType":"uint256","name":"round","type":"uint256"},{"indexed":false,"internalType":"uint256","name":"federatedCid","type":"uint256"}],"name":"WroteWeightsOfRoundForClient","type":"event"},{"inputs":[{"internalType":"string","name":"_weights","type":"string"},{"internalType":"uint256","name":"_round","type":"uint256"},{"internalType":"uint256","name":"_federatedCid","type":"uint256"}],"name":"addRoundWeightsReference","outputs":[],"stateMutability":"nonpayable","type":"function"},{"inputs":[{"internalType":"uint256","name":"_federatedCid","type":"uint256"}],"name":"addToBlacklist","outputs":[],"stateMutability":"nonpayable","type":"function"},{"inputs":[{"internalType":"uint256","name":"","type":"uint256"}],"name":"blacklist","outputs":[{"internalType":"uint256","name":"","type":"uint256"}],"stateMutability":"view","type":"function"},{"inputs":[],"name":"getOwner","outputs":[{"internalType":"address","name":"","type":"address"}],"stateMutability":"view","type":"function"},{"inputs":[{"internalType":"uint256","name":"_round","type":"uint256"},{"internalType":"uint256","name":"_federatedCid","type":"uint256"}],"name":"getWeightOfRoundOfClient","outputs":[{"internalType":"string","name":"","type":"string"}],"stateMutability":"view","type":"function"},{"inputs":[{"internalType":"uint256","name":"_federatedCid","type":"uint256"}],"name":"isPoisonerCid","outputs":[{"internalType":"bool","name":"","type":"bool"}],"stateMutability":"view","type":"function"},{"inputs":[{"internalType":"uint256","name":"","type":"uint256"}],"name":"weightsReferences","outputs":[{"internalType":"uint256","name":"federatedCid","type":"uint256"}],"stateMutability":"view","type":"function"}],"evm":{"bytecode":{"linkReferences":{},"object":"6080604052348015600f57600080fd5b5033600260006101000a81548173ffffffffffffffffffffffffffffffffffffffff021916908373ffffffffffffffffffffffffffffffffffffffff160217905550610d10806100606000396000f3fe608060405234801561001057600080fd5b506004361061007d5760003560e01c8063893d20e81161005b578063893d20e8146101125780638b762e6c146101305780638e4424681461014c578063e6cba98d146101685761007d565b80630f2a0919146100825780631c21cddc146100b2578063606e8a6b146100e2575b600080fd5b61009c600480360381019061009791906105b9565b610198565b6040516100a991906105f5565b60405180910390f35b6100cc60048036038101906100c791906105b9565b6101bc565b6040516100d991906105f5565b60405180910390f35b6100fc60048036038101906100f791906105b9565b6101ea565b604051610109919061062b565b60405180910390f35b61011a610246565b6040516101279190610687565b60405180910390f35b61014a600480360381019061014591906105b9565b610270565b005b610166600480360381019061016191906107e8565b61029c565b005b610182600480360381019061017d9190610857565b61039e565b60405161018f9190610916565b60405180910390f35b600181815481106101a857600080fd5b906000526020600020016000915090505481565b600081815481106101cc57600080fd5b90600052602060002090600202016000915090508060000154905081565b600080600090505b60018054905081101561023b57826001828154811061021457610213610938565b5b90600052602060002001540361022e576001915050610241565b80806001019150506101f2565b50600090505b919050565b6000600260009054906101000a900473ffffffffffffffffffffffffffffffffffffffff16905090565b600181908060018154018082558091505060019003906000526020600020016000909190919091505550565b60006102a782610474565b156102dd5760006102b7836104d7565b815481106102c8576102c7610938565b5b90600052602060002090600202019050610333565b6000808054905090506000600181600181540180825580915050039060005260206000209050506000818154811061031857610317610938565b5b90600052602060002090600202019150828260000181905550505b8381600101600085815260200190815260200160002090816103559190610b73565b5060028310610398577f49ab53cdea5f88886e786f4c17a329d3e9ac6800979f6b4341c16615da8071dd838360405161038f929190610c45565b60405180910390a15b50505050565b60606000806103ac846104d7565b815481106103bd576103bc610938565b5b9060005260206000209060020201905080600101600085815260200190815260200160002080546103ed90610996565b80601f016020809104026020016040519081016040528092919081815260200182805461041990610996565b80156104665780601f1061043b57610100808354040283529160200191610466565b820191906000526020600020905b81548152906001019060200180831161044957829003601f168201915b505050505091505092915050565b600080600090505b6000805490508110156104cc57826000828154811061049e5761049d610938565b5b906000526020600020906002020160000154036104bf5760019150506104d2565b808060010191505061047c565b50600090505b919050565b600080600090505b60008054905081101561052e57826000828154811061050157610500610938565b5b90600052602060002090600202016000015403610521578091505061056a565b80806001019150506104df565b506040517f08c379a000000000000000000000000000000000000000000000000000000000815260040161056190610cba565b60405180910390fd5b919050565b6000604051905090565b600080fd5b600080fd5b6000819050919050565b61059681610583565b81146105a157600080fd5b50565b6000813590506105b38161058d565b92915050565b6000602082840312156105cf576105ce610579565b5b60006105dd848285016105a4565b91505092915050565b6105ef81610583565b82525050565b600060208201905061060a60008301846105e6565b92915050565b60008115159050919050565b61062581610610565b82525050565b6000602082019050610640600083018461061c565b92915050565b600073ffffffffffffffffffffffffffffffffffffffff82169050919050565b600061067182610646565b9050919050565b61068181610666565b82525050565b600060208201905061069c6000830184610678565b92915050565b600080fd5b600080fd5b6000601f19601f8301169050919050565b7f4e487b7100000000000000000000000000000000000000000000000000000000600052604160045260246000fd5b6106f5826106ac565b810181811067ffffffffffffffff82111715610714576107136106bd565b5b80604052505050565b600061072761056f565b905061073382826106ec565b919050565b600067ffffffffffffffff821115610753576107526106bd565b5b61075c826106ac565b9050602081019050919050565b82818337600083830152505050565b600061078b61078684610738565b61071d565b9050828152602081018484840111156107a7576107a66106a7565b5b6107b2848285610769565b509392505050565b600082601f8301126107cf576107ce6106a2565b5b81356107df848260208601610778565b91505092915050565b60008060006060848603121561080157610800610579565b5b600084013567ffffffffffffffff81111561081f5761081e61057e565b5b61082b868287016107ba565b935050602061083c868287016105a4565b925050604061084d868287016105a4565b9150509250925092565b6000806040838503121561086e5761086d610579565b5b600061087c858286016105a4565b925050602061088d858286016105a4565b9150509250929050565b600081519050919050565b600082825260208201905092915050565b60005b838110156108d15780820151818401526020810190506108b6565b60008484015250505050565b60006108e882610897565b6108f281856108a2565b93506109028185602086016108b3565b61090b816106ac565b840191505092915050565b6000602082019050818103600083015261093081846108dd565b905092915050565b7f4e487b7100000000000000000000000000000000000000000000000000000000600052603260045260246000fd5b7f4e487b7100000000000000000000000000000000000000000000000000000000600052602260045260246000fd5b600060028204905060018216806109ae57607f821691505b6020821081036109c1576109c0610967565b5b50919050565b60008190508160005260206000209050919050565b60006020601f8301049050919050565b600082821b905092915050565b600060088302610a297fffffffffffffffffffffffffffffffffffffffffffffffffffffffffffffffff826109ec565b610a3386836109ec565b95508019841693508086168417925050509392505050565b6000819050919050565b6000610a70610a6b610a6684610583565b610a4b565b610583565b9050919050565b6000819050919050565b610a8a83610a55565b610a9e610a9682610a77565b8484546109f9565b825550505050565b600090565b610ab3610aa6565b610abe818484610a81565b505050565b5b81811015610ae257610ad7600082610aab565b600181019050610ac4565b5050565b601f821115610b2757610af8816109c7565b610b01846109dc565b81016020851015610b10578190505b610b24610b1c856109dc565b830182610ac3565b50505b505050565b600082821c905092915050565b6000610b4a60001984600802610b2c565b1980831691505092915050565b6000610b638383610b39565b9150826002028217905092915050565b610b7c82610897565b67ffffffffffffffff811115610b9557610b946106bd565b5b610b9f8254610996565b610baa828285610ae6565b600060209050601f831160018114610bdd5760008415610bcb578287015190505b610bd58582610b57565b865550610c3d565b601f198416610beb866109c7565b60005b82811015610c1357848901518255600182019150602085019450602081019050610bee565b86831015610c305784890151610c2c601f891682610b39565b8355505b6001600288020188555050505b505050505050565b6000604082019050610c5a60008301856105e6565b610c6760208301846105e6565b9392505050565b7f436c69656e74206e6f7420666f756e6400000000000000000000000000000000600082015250565b6000610ca46010836108a2565b9150610caf82610c6e565b602082019050919050565b60006020820190508181036000830152610cd381610c97565b905091905056fea2646970667358221220edf218d59935f8ce04327812e7a3b913811581e74dabf804210d039a675088a164736f6c634300081c0033","opcodes":"PUSH1 0x80 PUSH1 0x40 MSTORE CALLVALUE DUP1 ISZERO PUSH1 0xF JUMPI PUSH1 0x0 DUP1 REVERT JUMPDEST POP CALLER PUSH1 0x2 PUSH1 0x0 PUSH2 0x100 EXP DUP2 SLOAD DUP2 PUSH20 0xFFFFFFFFFFFFFFFFFFFFFFFFFFFFFFFFFFFFFFFF MUL NOT AND SWAP1 DUP4 PUSH20 0xFFFFFFFFFFFFFFFFFFFFFFFFFFFFFFFFFFFFFFFF AND MUL OR SWAP1 SSTORE POP PUSH2 0xD10 DUP1 PUSH2 0x60 PUSH1 0x0 CODECOPY PUSH1 0x0 RETURN INVALID PUSH1 0x80 PUSH1 0x40 MSTORE CALLVALUE DUP1 ISZERO PUSH2 0x10 JUMPI PUSH1 0x0 DUP1 REVERT JUMPDEST POP PUSH1 0x4 CALLDATASIZE LT PUSH2 0x7D JUMPI PUSH1 0x0 CALLDATALOAD PUSH1 0xE0 SHR DUP1 PUSH4 0x893D20E8 GT PUSH2 0x5B JUMPI DUP1 PUSH4 0x893D20E8 EQ PUSH2 0x112 JUMPI DUP1 PUSH4 0x8B762E6C EQ PUSH2 0x130 JUMPI DUP1 PUSH4 0x8E442468 EQ PUSH2 0x14C JUMPI DUP1 PUSH4 0xE6CBA98D EQ PUSH2 0x168 JUMPI PUSH2 0x7D JUMP JUMPDEST DUP1 PUSH4 0xF2A0919 EQ PUSH2 0x82 JUMPI DUP1 PUSH4 0x1C21CDDC EQ PUSH2 0xB2 JUMPI DUP1 PUSH4 0x606E8A6B EQ PUSH2 0xE2 JUMPI JUMPDEST PUSH1 0x0 DUP1 REVERT JUMPDEST PUSH2 0x9C PUSH1 0x4 DUP1 CALLDATASIZE SUB DUP2 ADD SWAP1 PUSH2 0x97 SWAP2 SWAP1 PUSH2 0x5B9 JUMP JUMPDEST PUSH2 0x198 JUMP JUMPDEST PUSH1 0x40 MLOAD PUSH2 0xA9 SWAP2 SWAP1 PUSH2 0x5F5 JUMP JUMPDEST PUSH1 0x40 MLOAD DUP1 SWAP2 SUB SWAP1 RETURN JUMPDEST PUSH2 0xCC PUSH1 0x4 DUP1 CALLDATASIZE SUB DUP2 ADD SWAP1 PUSH2 0xC7 SWAP2 SWAP1 PUSH2 0x5B9 JUMP JUMPDEST PUSH2 0x1BC JUMP JUMPDEST PUSH1 0x40 MLOAD PUSH2 0xD9 SWAP2 SWAP1 PUSH2 0x5F5 JUMP JUMPDEST PUSH1 0x40 MLOAD DUP1 SWAP2 SUB SWAP1 RETURN JUMPDEST PUSH2 0xFC PUSH1 0x4 DUP1 CALLDATASIZE SUB DUP2 ADD SWAP1 PUSH2 0xF7 SWAP2 SWAP1 PUSH2 0x5B9 JUMP JUMPDEST PUSH2 0x1EA JUMP JUMPDEST PUSH1 0x40 MLOAD PUSH2 0x109 SWAP2 SWAP1 PUSH2 0x62B JUMP JUMPDEST PUSH1 0x40 MLOAD DUP1 SWAP2 SUB SWAP1 RETURN JUMPDEST PUSH2 0x11A PUSH2 0x246 JUMP JUMPDEST PUSH1 0x40 MLOAD PUSH2 0x127 SWAP2 SWAP1 PUSH2 0x687 JUMP JUMPDEST PUSH1 0x40 MLOAD DUP1 SWAP2 SUB SWAP1 RETURN JUMPDEST PUSH2 0x14A PUSH1 0x4 DUP1 CALLDATASIZE SUB DUP2 ADD SWAP1 PUSH2 0x145 SWAP2 SWAP1 PUSH2 0x5B9 JUMP JUMPDEST PUSH2 0x270 JUMP JUMPDEST STOP JUMPDEST PUSH2 0x166 PUSH1 0x4 DUP1 CALLDATASIZE SUB DUP2 ADD SWAP1 PUSH2 0x161 SWAP2 SWAP1 PUSH2 0x7E8 JUMP JUMPDEST PUSH2 0x29C JUMP JUMPDEST STOP JUMPDEST PUSH2 0x182 PUSH1 0x4 DUP1 CALLDATASIZE SUB DUP2 ADD SWAP1 PUSH2 0x17D SWAP2 SWAP1 PUSH2 0x857 JUMP JUMPDEST PUSH2 0x39E JUMP JUMPDEST PUSH1 0x40 MLOAD PUSH2 0x18F SWAP2 SWAP1 PUSH2 0x916 JUMP JUMPDEST PUSH1 0x40 MLOAD DUP1 SWAP2 SUB SWAP1 RETURN JUMPDEST PUSH1 0x1 DUP2 DUP2 SLOAD DUP2 LT PUSH2 0x1A8 JUMPI PUSH1 0x0 DUP1 REVERT JUMPDEST SWAP1 PUSH1 0x0 MSTORE PUSH1 0x20 PUSH1 0x0 KECCAK256 ADD PUSH1 0x0 SWAP2 POP SWAP1 POP SLOAD DUP2 JUMP JUMPDEST PUSH1 0x0 DUP2 DUP2 SLOAD DUP2 LT PUSH2 0x1CC JUMPI PUSH1 0x0 DUP1 REVERT JUMPDEST SWAP1 PUSH1 0x0 MSTORE PUSH1 0x20 PUSH1 0x0 KECCAK256 SWAP1 PUSH1 0x2 MUL ADD PUSH1 0x0 SWAP2 POP SWAP1 POP DUP1 PUSH1 0x0 ADD SLOAD SWAP1 POP DUP2 JUMP JUMPDEST PUSH1 0x0 DUP1 PUSH1 0x0 SWAP1 POP JUMPDEST PUSH1 0x1 DUP1 SLOAD SWAP1 POP DUP2 LT ISZERO PUSH2 0x23B JUMPI DUP3 PUSH1 0x1 DUP3 DUP2 SLOAD DUP2 LT PUSH2 0x214 JUMPI PUSH2 0x213 PUSH2 0x938 JUMP JUMPDEST JUMPDEST SWAP1 PUSH1 0x0 MSTORE PUSH1 0x20 PUSH1 0x0 KECCAK256 ADD SLOAD SUB PUSH2 0x22E JUMPI PUSH1 0x1 SWAP2 POP POP PUSH2 0x241 JUMP JUMPDEST DUP1 DUP1 PUSH1 0x1 ADD SWAP2 POP POP PUSH2 0x1F2 JUMP JUMPDEST POP PUSH1 0x0 SWAP1 POP JUMPDEST SWAP2 SWAP1 POP JUMP JUMPDEST PUSH1 0x0 PUSH1 0x2 PUSH1 0x0 SWAP1 SLOAD SWAP1 PUSH2 0x100 EXP SWAP1 DIV PUSH20 0xFFFFFFFFFFFFFFFFFFFFFFFFFFFFFFFFFFFFFFFF AND SWAP1 POP SWAP1 JUMP JUMPDEST PUSH1 0x1 DUP2 SWAP1 DUP1 PUSH1 0x1 DUP2 SLOAD ADD DUP1 DUP3 SSTORE DUP1 SWAP2 POP POP PUSH1 0x1 SWAP1 SUB SWAP1 PUSH1 0x0 MSTORE PUSH1 0x20 PUSH1 0x0 KECCAK256 ADD PUSH1 0x0 SWAP1 SWAP2 SWAP1 SWAP2 SWAP1 SWAP2 POP SSTORE POP JUMP JUMPDEST PUSH1 0x0 PUSH2 0x2A7 DUP3 PUSH2 0x474 JUMP JUMPDEST ISZERO PUSH2 0x2DD JUMPI PUSH1 0x0 PUSH2 0x2B7 DUP4 PUSH2 0x4D7 JUMP JUMPDEST DUP2 SLOAD DUP2 LT PUSH2 0x2C8 JUMPI PUSH2 0x2C7 PUSH2 0x938 JUMP JUMPDEST JUMPDEST SWAP1 PUSH1 0x0 MSTORE PUSH1 0x20 PUSH1 0x0 KECCAK256 SWAP1 PUSH1 0x2 MUL ADD SWAP1 POP PUSH2 0x333 JUMP JUMPDEST PUSH1 0x0 DUP1 DUP1 SLOAD SWAP1 POP SWAP1 POP PUSH1 0x0 PUSH1 0x1 DUP2 PUSH1 0x1 DUP2 SLOAD ADD DUP1 DUP3 SSTORE DUP1 SWAP2 POP POP SUB SWAP1 PUSH1 0x0 MSTORE PUSH1 0x20 PUSH1 0x0 KECCAK256 SWAP1 POP POP PUSH1 0x0 DUP2 DUP2 SLOAD DUP2 LT PUSH2 0x318 JUMPI PUSH2 0x317 PUSH2 0x938 JUMP JUMPDEST JUMPDEST SWAP1 PUSH1 0x0 MSTORE PUSH1 0x20 PUSH1 0x0 KECCAK256 SWAP1 PUSH1 0x2 MUL ADD SWAP2 POP DUP3 DUP3 PUSH1 0x0 ADD DUP2 SWAP1 SSTORE POP POP JUMPDEST DUP4 DUP2 PUSH1 0x1 ADD PUSH1 0x0 DUP6 DUP2 MSTORE PUSH1 0x20 ADD SWAP1 DUP2 MSTORE PUSH1 0x20 ADD PUSH1 0x0 KECCAK256 SWAP1 DUP2 PUSH2 0x355 SWAP2 SWAP1 PUSH2 0xB73 JUMP JUMPDEST POP PUSH1 0x2 DUP4 LT PUSH2 0x398 JUMPI PUSH32 0x49AB53CDEA5F88886E786F4C17A329D3E9AC6800979F6B4341C16615DA8071DD DUP4 DUP4 PUSH1 0x40 MLOAD PUSH2 0x38F SWAP3 SWAP2 SWAP1 PUSH2 0xC45 JUMP JUMPDEST PUSH1 0x40 MLOAD DUP1 SWAP2 SUB SWAP1 LOG1 JUMPDEST POP POP POP POP JUMP JUMPDEST PUSH1 0x60 PUSH1 0x0 DUP1 PUSH2 0x3AC DUP5 PUSH2 0x4D7 JUMP JUMPDEST DUP2 SLOAD DUP2 LT PUSH2 0x3BD JUMPI PUSH2 0x3BC PUSH2 0x938 JUMP JUMPDEST JUMPDEST SWAP1 PUSH1 0x0 MSTORE PUSH1 0x20 PUSH1 0x0 KECCAK256 SWAP1 PUSH1 0x2 MUL ADD SWAP1 POP DUP1 PUSH1 0x1 ADD PUSH1 0x0 DUP6 DUP2 MSTORE PUSH1 0x20 ADD SWAP1 DUP2 MSTORE PUSH1 0x20 ADD PUSH1 0x0 KECCAK256 DUP1 SLOAD PUSH2 0x3ED SWAP1 PUSH2 0x996 JUMP JUMPDEST DUP1 PUSH1 0x1F ADD PUSH1 0x20 DUP1 SWAP2 DIV MUL PUSH1 0x20 ADD PUSH1 0x40 MLOAD SWAP1 DUP2 ADD PUSH1 0x40 MSTORE DUP1 SWAP3 SWAP2 SWAP1 DUP2 DUP2 MSTORE PUSH1 0x20 ADD DUP3 DUP1 SLOAD PUSH2 0x419 SWAP1 PUSH2 0x996 JUMP JUMPDEST DUP1 ISZERO PUSH2 0x466 JUMPI DUP1 PUSH1 0x1F LT PUSH2 0x43B JUMPI PUSH2 0x100 DUP1 DUP4 SLOAD DIV MUL DUP4 MSTORE SWAP2 PUSH1 0x20 ADD SWAP2 PUSH2 0x466 JUMP JUMPDEST DUP3 ADD SWAP2 SWAP1 PUSH1 0x0 MSTORE PUSH1 0x20 PUSH1 0x0 KECCAK256 SWAP1 JUMPDEST DUP2 SLOAD DUP2 MSTORE SWAP1 PUSH1 0x1 ADD SWAP1 PUSH1 0x20 ADD DUP1 DUP4 GT PUSH2 0x449 JUMPI DUP3 SWAP1 SUB PUSH1 0x1F AND DUP3 ADD SWAP2 JUMPDEST POP POP POP POP POP SWAP2 POP POP SWAP3 SWAP2 POP POP JUMP JUMPDEST PUSH1 0x0 DUP1 PUSH1 0x0 SWAP1 POP JUMPDEST PUSH1 0x0 DUP1 SLOAD SWAP1 POP DUP2 LT ISZERO PUSH2 0x4CC JUMPI DUP3 PUSH1 0x0 DUP3 DUP2 SLOAD DUP2 LT PUSH2 0x49E JUMPI PUSH2 0x49D PUSH2 0x938 JUMP JUMPDEST JUMPDEST SWAP1 PUSH1 0x0 MSTORE PUSH1 0x20 PUSH1 0x0 KECCAK256 SWAP1 PUSH1 0x2 MUL ADD PUSH1 0x0 ADD SLOAD SUB PUSH2 0x4BF JUMPI PUSH1 0x1 SWAP2 POP POP PUSH2 0x4D2 JUMP JUMPDEST DUP1 DUP1 PUSH1 0x1 ADD SWAP2 POP POP PUSH2 0x47C JUMP JUMPDEST POP PUSH1 0x0 SWAP1 POP JUMPDEST SWAP2 SWAP1 POP JUMP JUMPDEST PUSH1 0x0 DUP1 PUSH1 0x0 SWAP1 POP JUMPDEST PUSH1 0x0 DUP1 SLOAD SWAP1 POP DUP2 LT ISZERO PUSH2 0x52E JUMPI DUP3 PUSH1 0x0 DUP3 DUP2 SLOAD DUP2 LT PUSH2 0x501 JUMPI PUSH2 0x500 PUSH2 0x938 JUMP JUMPDEST JUMPDEST SWAP1 PUSH1 0x0 MSTORE PUSH1 0x20 PUSH1 0x0 KECCAK256 SWAP1 PUSH1 0x2 MUL ADD PUSH1 0x0 ADD SLOAD SUB PUSH2 0x521 JUMPI DUP1 SWAP2 POP POP PUSH2 0x56A JUMP JUMPDEST DUP1 DUP1 PUSH1 0x1 ADD SWAP2 POP POP PUSH2 0x4DF JUMP JUMPDEST POP PUSH1 0x40 MLOAD PUSH32 0x8C379A000000000000000000000000000000000000000000000000000000000 DUP2 MSTORE PUSH1 0x4 ADD PUSH2 0x561 SWAP1 PUSH2 0xCBA JUMP JUMPDEST PUSH1 0x40 MLOAD DUP1 SWAP2 SUB SWAP1 REVERT JUMPDEST SWAP2 SWAP1 POP JUMP JUMPDEST PUSH1 0x0 PUSH1 0x40 MLOAD SWAP1 POP SWAP1 JUMP JUMPDEST PUSH1 0x0 DUP1 REVERT JUMPDEST PUSH1 0x0 DUP1 REVERT JUMPDEST PUSH1 0x0 DUP2 SWAP1 POP SWAP2 SWAP1 POP JUMP JUMPDEST PUSH2 0x596 DUP2 PUSH2 0x583 JUMP JUMPDEST DUP2 EQ PUSH2 0x5A1 JUMPI PUSH1 0x0 DUP1 REVERT JUMPDEST POP JUMP JUMPDEST PUSH1 0x0 DUP2 CALLDATALOAD SWAP1 POP PUSH2 0x5B3 DUP2 PUSH2 0x58D JUMP JUMPDEST SWAP3 SWAP2 POP POP JUMP JUMPDEST PUSH1 0x0 PUSH1 0x20 DUP3 DUP5 SUB SLT ISZERO PUSH2 0x5CF JUMPI PUSH2 0x5CE PUSH2 0x579 JUMP JUMPDEST JUMPDEST PUSH1 0x0 PUSH2 0x5DD DUP5 DUP3 DUP6 ADD PUSH2 0x5A4 JUMP JUMPDEST SWAP2 POP POP SWAP3 SWAP2 POP POP JUMP JUMPDEST PUSH2 0x5EF DUP2 PUSH2 0x583 JUMP JUMPDEST DUP3 MSTORE POP POP JUMP JUMPDEST PUSH1 0x0 PUSH1 0x20 DUP3 ADD SWAP1 POP PUSH2 0x60A PUSH1 0x0 DUP4 ADD DUP5 PUSH2 0x5E6 JUMP JUMPDEST SWAP3 SWAP2 POP POP JUMP JUMPDEST PUSH1 0x0 DUP2 ISZERO ISZERO SWAP1 POP SWAP2 SWAP1 POP JUMP JUMPDEST PUSH2 0x625 DUP2 PUSH2 0x610 JUMP JUMPDEST DUP3 MSTORE POP POP JUMP JUMPDEST PUSH1 0x0 PUSH1 0x20 DUP3 ADD SWAP1 POP PUSH2 0x640 PUSH1 0x0 DUP4 ADD DUP5 PUSH2 0x61C JUMP JUMPDEST SWAP3 SWAP2 POP POP JUMP JUMPDEST PUSH1 0x0 PUSH20 0xFFFFFFFFFFFFFFFFFFFFFFFFFFFFFFFFFFFFFFFF DUP3 AND SWAP1 POP SWAP2 SWAP1 POP JUMP JUMPDEST PUSH1 0x0 PUSH2 0x671 DUP3 PUSH2 0x646 JUMP JUMPDEST SWAP1 POP SWAP2 SWAP1 POP JUMP JUMPDEST PUSH2 0x681 DUP2 PUSH2 0x666 JUMP JUMPDEST DUP3 MSTORE POP POP JUMP JUMPDEST PUSH1 0x0 PUSH1 0x20 DUP3 ADD SWAP1 POP PUSH2 0x69C PUSH1 0x0 DUP4 ADD DUP5 PUSH2 0x678 JUMP JUMPDEST SWAP3 SWAP2 POP POP JUMP JUMPDEST PUSH1 0x0 DUP1 REVERT JUMPDEST PUSH1 0x0 DUP1 REVERT JUMPDEST PUSH1 0x0 PUSH1 0x1F NOT PUSH1 0x1F DUP4 ADD AND SWAP1 POP SWAP2 SWAP1 POP JUMP JUMPDEST PUSH32 0x4E487B7100000000000000000000000000000000000000000000000000000000 PUSH1 0x0 MSTORE PUSH1 0x41 PUSH1 0x4 MSTORE PUSH1 0x24 PUSH1 0x0 REVERT JUMPDEST PUSH2 0x6F5 DUP3 PUSH2 0x6AC JUMP JUMPDEST DUP2 ADD DUP2 DUP2 LT PUSH8 0xFFFFFFFFFFFFFFFF DUP3 GT OR ISZERO PUSH2 0x714 JUMPI PUSH2 0x713 PUSH2 0x6BD JUMP JUMPDEST JUMPDEST DUP1 PUSH1 0x40 MSTORE POP POP POP JUMP JUMPDEST PUSH1 0x0 PUSH2 0x727 PUSH2 0x56F JUMP JUMPDEST SWAP1 POP PUSH2 0x733 DUP3 DUP3 PUSH2 0x6EC JUMP JUMPDEST SWAP2 SWAP1 POP JUMP JUMPDEST PUSH1 0x0 PUSH8 0xFFFFFFFFFFFFFFFF DUP3 GT ISZERO PUSH2 0x753 JUMPI PUSH2 0x752 PUSH2 0x6BD JUMP JUMPDEST JUMPDEST PUSH2 0x75C DUP3 PUSH2 0x6AC JUMP JUMPDEST SWAP1 POP PUSH1 0x20 DUP2 ADD SWAP1 POP SWAP2 SWAP1 POP JUMP JUMPDEST DUP3 DUP2 DUP4 CALLDATACOPY PUSH1 0x0 DUP4 DUP4 ADD MSTORE POP POP POP JUMP JUMPDEST PUSH1 0x0 PUSH2 0x78B PUSH2 0x786 DUP5 PUSH2 0x738 JUMP JUMPDEST PUSH2 0x71D JUMP JUMPDEST SWAP1 POP DUP3 DUP2 MSTORE PUSH1 0x20 DUP2 ADD DUP5 DUP5 DUP5 ADD GT ISZERO PUSH2 0x7A7 JUMPI PUSH2 0x7A6 PUSH2 0x6A7 JUMP JUMPDEST JUMPDEST PUSH2 0x7B2 DUP5 DUP3 DUP6 PUSH2 0x769 JUMP JUMPDEST POP SWAP4 SWAP3 POP POP POP JUMP JUMPDEST PUSH1 0x0 DUP3 PUSH1 0x1F DUP4 ADD SLT PUSH2 0x7CF JUMPI PUSH2 0x7CE PUSH2 0x6A2 JUMP JUMPDEST JUMPDEST DUP2 CALLDATALOAD PUSH2 0x7DF DUP5 DUP3 PUSH1 0x20 DUP7 ADD PUSH2 0x778 JUMP JUMPDEST SWAP2 POP POP SWAP3 SWAP2 POP POP JUMP JUMPDEST PUSH1 0x0 DUP1 PUSH1 0x0 PUSH1 0x60 DUP5 DUP7 SUB SLT ISZERO PUSH2 0x801 JUMPI PUSH2 0x800 PUSH2 0x579 JUMP JUMPDEST JUMPDEST PUSH1 0x0 DUP5 ADD CALLDATALOAD PUSH8 0xFFFFFFFFFFFFFFFF DUP2 GT ISZERO PUSH2 0x81F JUMPI PUSH2 0x81E PUSH2 0x57E JUMP JUMPDEST JUMPDEST PUSH2 0x82B DUP7 DUP3 DUP8 ADD PUSH2 0x7BA JUMP JUMPDEST SWAP4 POP POP PUSH1 0x20 PUSH2 0x83C DUP7 DUP3 DUP8 ADD PUSH2 0x5A4 JUMP JUMPDEST SWAP3 POP POP PUSH1 0x40 PUSH2 0x84D DUP7 DUP3 DUP8 ADD PUSH2 0x5A4 JUMP JUMPDEST SWAP2 POP POP SWAP3 POP SWAP3 POP SWAP3 JUMP JUMPDEST PUSH1 0x0 DUP1 PUSH1 0x40 DUP4 DUP6 SUB SLT ISZERO PUSH2 0x86E JUMPI PUSH2 0x86D PUSH2 0x579 JUMP JUMPDEST JUMPDEST PUSH1 0x0 PUSH2 0x87C DUP6 DUP3 DUP7 ADD PUSH2 0x5A4 JUMP JUMPDEST SWAP3 POP POP PUSH1 0x20 PUSH2 0x88D DUP6 DUP3 DUP7 ADD PUSH2 0x5A4 JUMP JUMPDEST SWAP2 POP POP SWAP3 POP SWAP3 SWAP1 POP JUMP JUMPDEST PUSH1 0x0 DUP2 MLOAD SWAP1 POP SWAP2 SWAP1 POP JUMP JUMPDEST PUSH1 0x0 DUP3 DUP3 MSTORE PUSH1 0x20 DUP3 ADD SWAP1 POP SWAP3 SWAP2 POP POP JUMP JUMPDEST PUSH1 0x0 JUMPDEST DUP4 DUP2 LT ISZERO PUSH2 0x8D1 JUMPI DUP1 DUP3 ADD MLOAD DUP2 DUP5 ADD MSTORE PUSH1 0x20 DUP2 ADD SWAP1 POP PUSH2 0x8B6 JUMP JUMPDEST PUSH1 0x0 DUP5 DUP5 ADD MSTORE POP POP POP POP JUMP JUMPDEST PUSH1 0x0 PUSH2 0x8E8 DUP3 PUSH2 0x897 JUMP JUMPDEST PUSH2 0x8F2 DUP2 DUP6 PUSH2 0x8A2 JUMP JUMPDEST SWAP4 POP PUSH2 0x902 DUP2 DUP6 PUSH1 0x20 DUP7 ADD PUSH2 0x8B3 JUMP JUMPDEST PUSH2 0x90B DUP2 PUSH2 0x6AC JUMP JUMPDEST DUP5 ADD SWAP2 POP POP SWAP3 SWAP2 POP POP JUMP JUMPDEST PUSH1 0x0 PUSH1 0x20 DUP3 ADD SWAP1 POP DUP2 DUP2 SUB PUSH1 0x0 DUP4 ADD MSTORE PUSH2 0x930 DUP2 DUP5 PUSH2 0x8DD JUMP JUMPDEST SWAP1 POP SWAP3 SWAP2 POP POP JUMP JUMPDEST PUSH32 0x4E487B7100000000000000000000000000000000000000000000000000000000 PUSH1 0x0 MSTORE PUSH1 0x32 PUSH1 0x4 MSTORE PUSH1 0x24 PUSH1 0x0 REVERT JUMPDEST PUSH32 0x4E487B7100000000000000000000000000000000000000000000000000000000 PUSH1 0x0 MSTORE PUSH1 0x22 PUSH1 0x4 MSTORE PUSH1 0x24 PUSH1 0x0 REVERT JUMPDEST PUSH1 0x0 PUSH1 0x2 DUP3 DIV SWAP1 POP PUSH1 0x1 DUP3 AND DUP1 PUSH2 0x9AE JUMPI PUSH1 0x7F DUP3 AND SWAP2 POP JUMPDEST PUSH1 0x20 DUP3 LT DUP2 SUB PUSH2 0x9C1 JUMPI PUSH2 0x9C0 PUSH2 0x967 JUMP JUMPDEST JUMPDEST POP SWAP2 SWAP1 POP JUMP JUMPDEST PUSH1 0x0 DUP2 SWAP1 POP DUP2 PUSH1 0x0 MSTORE PUSH1 0x20 PUSH1 0x0 KECCAK256 SWAP1 POP SWAP2 SWAP1 POP JUMP JUMPDEST PUSH1 0x0 PUSH1 0x20 PUSH1 0x1F DUP4 ADD DIV SWAP1 POP SWAP2 SWAP1 POP JUMP JUMPDEST PUSH1 0x0 DUP3 DUP3 SHL SWAP1 POP SWAP3 SWAP2 POP POP JUMP JUMPDEST PUSH1 0x0 PUSH1 0x8 DUP4 MUL PUSH2 0xA29 PUSH32 0xFFFFFFFFFFFFFFFFFFFFFFFFFFFFFFFFFFFFFFFFFFFFFFFFFFFFFFFFFFFFFFFF DUP3 PUSH2 0x9EC JUMP JUMPDEST PUSH2 0xA33 DUP7 DUP4 PUSH2 0x9EC JUMP JUMPDEST SWAP6 POP DUP1 NOT DUP5 AND SWAP4 POP DUP1 DUP7 AND DUP5 OR SWAP3 POP POP POP SWAP4 SWAP3 POP POP POP JUMP JUMPDEST PUSH1 0x0 DUP2 SWAP1 POP SWAP2 SWAP1 POP JUMP JUMPDEST PUSH1 0x0 PUSH2 0xA70 PUSH2 0xA6B PUSH2 0xA66 DUP5 PUSH2 0x583 JUMP JUMPDEST PUSH2 0xA4B JUMP JUMPDEST PUSH2 0x583 JUMP JUMPDEST SWAP1 POP SWAP2 SWAP1 POP JUMP JUMPDEST PUSH1 0x0 DUP2 SWAP1 POP SWAP2 SWAP1 POP JUMP JUMPDEST PUSH2 0xA8A DUP4 PUSH2 0xA55 JUMP JUMPDEST PUSH2 0xA9E PUSH2 0xA96 DUP3 PUSH2 0xA77 JUMP JUMPDEST DUP5 DUP5 SLOAD PUSH2 0x9F9 JUMP JUMPDEST DUP3 SSTORE POP POP POP POP JUMP JUMPDEST PUSH1 0x0 SWAP1 JUMP JUMPDEST PUSH2 0xAB3 PUSH2 0xAA6 JUMP JUMPDEST PUSH2 0xABE DUP2 DUP5 DUP5 PUSH2 0xA81 JUMP JUMPDEST POP POP POP JUMP JUMPDEST JUMPDEST DUP2 DUP2 LT ISZERO PUSH2 0xAE2 JUMPI PUSH2 0xAD7 PUSH1 0x0 DUP3 PUSH2 0xAAB JUMP JUMPDEST PUSH1 0x1 DUP2 ADD SWAP1 POP PUSH2 0xAC4 JUMP JUMPDEST POP POP JUMP JUMPDEST PUSH1 0x1F DUP3 GT ISZERO PUSH2 0xB27 JUMPI PUSH2 0xAF8 DUP2 PUSH2 0x9C7 JUMP JUMPDEST PUSH2 0xB01 DUP5 PUSH2 0x9DC JUMP JUMPDEST DUP2 ADD PUSH1 0x20 DUP6 LT ISZERO PUSH2 0xB10 JUMPI DUP2 SWAP1 POP JUMPDEST PUSH2 0xB24 PUSH2 0xB1C DUP6 PUSH2 0x9DC JUMP JUMPDEST DUP4 ADD DUP3 PUSH2 0xAC3 JUMP JUMPDEST POP POP JUMPDEST POP POP POP JUMP JUMPDEST PUSH1 0x0 DUP3 DUP3 SHR SWAP1 POP SWAP3 SWAP2 POP POP JUMP JUMPDEST PUSH1 0x0 PUSH2 0xB4A PUSH1 0x0 NOT DUP5 PUSH1 0x8 MUL PUSH2 0xB2C JUMP JUMPDEST NOT DUP1 DUP4 AND SWAP2 POP POP SWAP3 SWAP2 POP POP JUMP JUMPDEST PUSH1 0x0 PUSH2 0xB63 DUP4 DUP4 PUSH2 0xB39 JUMP JUMPDEST SWAP2 POP DUP3 PUSH1 0x2 MUL DUP3 OR SWAP1 POP SWAP3 SWAP2 POP POP JUMP JUMPDEST PUSH2 0xB7C DUP3 PUSH2 0x897 JUMP JUMPDEST PUSH8 0xFFFFFFFFFFFFFFFF DUP2 GT ISZERO PUSH2 0xB95 JUMPI PUSH2 0xB94 PUSH2 0x6BD JUMP JUMPDEST JUMPDEST PUSH2 0xB9F DUP3 SLOAD PUSH2 0x996 JUMP JUMPDEST PUSH2 0xBAA DUP3 DUP3 DUP6 PUSH2 0xAE6 JUMP JUMPDEST PUSH1 0x0 PUSH1 0x20 SWAP1 POP PUSH1 0x1F DUP4 GT PUSH1 0x1 DUP2 EQ PUSH2 0xBDD JUMPI PUSH1 0x0 DUP5 ISZERO PUSH2 0xBCB JUMPI DUP3 DUP8 ADD MLOAD SWAP1 POP JUMPDEST PUSH2 0xBD5 DUP6 DUP3 PUSH2 0xB57 JUMP JUMPDEST DUP7 SSTORE POP PUSH2 0xC3D JUMP JUMPDEST PUSH1 0x1F NOT DUP5 AND PUSH2 0xBEB DUP7 PUSH2 0x9C7 JUMP JUMPDEST PUSH1 0x0 JUMPDEST DUP3 DUP2 LT ISZERO PUSH2 0xC13 JUMPI DUP5 DUP10 ADD MLOAD DUP3 SSTORE PUSH1 0x1 DUP3 ADD SWAP2 POP PUSH1 0x20 DUP6 ADD SWAP5 POP PUSH1 0x20 DUP2 ADD SWAP1 POP PUSH2 0xBEE JUMP JUMPDEST DUP7 DUP4 LT ISZERO PUSH2 0xC30 JUMPI DUP5 DUP10 ADD MLOAD PUSH2 0xC2C PUSH1 0x1F DUP10 AND DUP3 PUSH2 0xB39 JUMP JUMPDEST DUP4 SSTORE POP JUMPDEST PUSH1 0x1 PUSH1 0x2 DUP9 MUL ADD DUP9 SSTORE POP POP POP JUMPDEST POP POP POP POP POP POP JUMP JUMPDEST PUSH1 0x0 PUSH1 0x40 DUP3 ADD SWAP1 POP PUSH2 0xC5A PUSH1 0x0 DUP4 ADD DUP6 PUSH2 0x5E6 JUMP JUMPDEST PUSH2 0xC67 PUSH1 0x20 DUP4 ADD DUP5 PUSH2 0x5E6 JUMP JUMPDEST SWAP4 SWAP3 POP POP POP JUMP JUMPDEST PUSH32 0x436C69656E74206E6F7420666F756E6400000000000000000000000000000000 PUSH1 0x0 DUP3 ADD MSTORE POP JUMP JUMPDEST PUSH1 0x0 PUSH2 0xCA4 PUSH1 0x10 DUP4 PUSH2 0x8A2 JUMP JUMPDEST SWAP2 POP PUSH2 0xCAF DUP3 PUSH2 0xC6E JUMP JUMPDEST PUSH1 0x20 DUP3 ADD SWAP1 POP SWAP2 SWAP1 POP JUMP JUMPDEST PUSH1 0x0 PUSH1 0x20 DUP3 ADD SWAP1 POP DUP2 DUP2 SUB PUSH1 0x0 DUP4 ADD MSTORE PUSH2 0xCD3 DUP2 PUSH2 0xC97 JUMP JUMPDEST SWAP1 POP SWAP2 SWAP1 POP JUMP INVALID LOG2 PUSH5 0x6970667358 0x22 SLT KECCAK256 0xED CALLCODE XOR 0xD5 SWAP10 CALLDATALOAD 0xF8 0xCE DIV ORIGIN PUSH25 0x12E7A3B913811581E74DABF804210D039A675088A164736F6C PUSH4 0x4300081C STOP CALLER "},"methodIdentifiers":{"addRoundWeightsReference(string,uint256,uint256)":"8e442468","addToBlacklist(uint256)":"8b762e6c","blacklist(uint256)":"0f2a0919","getOwner()":"893d20e8","getWeightOfRoundOfClient(uint256,uint256)":"e6cba98d","isPoisonerCid(uint256)":"606e8a6b","weightsReferences(uint256)":"1c21cddc"}}}}}