{
  "_format": "hh-sol-artifact-1",
  "contractName": "CheckWeights",
  "sourceName": "src/blockchain/contracts/CheckWeights.sol",
  "abi": [
    {
      "inputs": [],
      "stateMutability": "nonpayable",
      "type": "constructor"
    },
    {
      "anonymous": false,
      "inputs": [
        {
          "indexed": false,
          "internalType": "string",
          "name": "weightsHash",
          "type": "string"
        },
        {
          "indexed": false,
          "internalType": "uint256",
          "name": "round",
          "type": "uint256"
        },
        {
          "indexed": false,
          "internalType": "uint256",
          "name": "federatedCid",
          "type": "uint256"
        }
      ],
      "name": "WroteWeightsOfRoundForClient",
      "type": "event"
    },
    {
      "inputs": [
        {
          "internalType": "string",
          "name": "_weightsHash",
          "type": "string"
        },
        {
          "internalType": "uint256",
          "name": "_round",
          "type": "uint256"
        },
        {
          "internalType": "uint256",
          "name": "_federatedCid",
          "type": "uint256"
        }
      ],
      "name": "addRoundWeightsReference",
      "outputs": [],
      "stateMutability": "nonpayable",
      "type": "function"
    },
    {
      "inputs": [
        {
          "internalType": "uint256",
          "name": "_federatedCid",
          "type": "uint256"
        }
      ],
      "name": "addToBlacklist",
      "outputs": [],
      "stateMutability": "nonpayable",
      "type": "function"
    },
    {
      "inputs": [
        {
          "internalType": "uint256",
          "name": "",
          "type": "uint256"
        }
      ],
      "name": "blacklist",
      "outputs": [
        {
          "internalType": "uint256",
          "name": "",
          "type": "uint256"
        }
      ],
      "stateMutability": "view",
      "type": "function"
    },
    {
      "inputs": [],
      "name": "getBlacklist",
      "outputs": [
        {
          "internalType": "uint256[]",
          "name": "",
          "type": "uint256[]"
        }
      ],
      "stateMutability": "view",
      "type": "function"
    },
    {
      "inputs": [],
      "name": "getOwner",
      "outputs": [
        {
          "internalType": "address",
          "name": "",
          "type": "address"
        }
      ],
      "stateMutability": "view",
      "type": "function"
    }
  ],
  "bytecode": "0x6080604052348015600f57600080fd5b5033600260006101000a81548173ffffffffffffffffffffffffffffffffffffffff021916908373ffffffffffffffffffffffffffffffffffffffff160217905550610b59806100606000396000f3fe608060405234801561001057600080fd5b50600436106100575760003560e01c80630f2a09191461005c578063338d6c301461008c578063893d20e8146100aa5780638b762e6c146100c85780638e442468146100e4575b600080fd5b6100766004803603810190610071919061035e565b610100565b604051610083919061039a565b60405180910390f35b610094610124565b6040516100a19190610473565b60405180910390f35b6100b261020c565b6040516100bf91906104d6565b60405180910390f35b6100e260048036038101906100dd919061035e565b610236565b005b6100fe60048036038101906100f99190610637565b610262565b005b6001818154811061011057600080fd5b906000526020600020016000915090505481565b6060600260009054906101000a900473ffffffffffffffffffffffffffffffffffffffff1673ffffffffffffffffffffffffffffffffffffffff163373ffffffffffffffffffffffffffffffffffffffff16146101b6576040517f08c379a00000000000000000000000000000000000000000000000000000000081526004016101ad90610729565b60405180910390fd5b600180548060200260200160405190810160405280929190818152602001828054801561020257602002820191906000526020600020905b8154815260200190600101908083116101ee575b5050505050905090565b6000600260009054906101000a900473ffffffffffffffffffffffffffffffffffffffff16905090565b600181908060018154018082558091505060019003906000526020600020016000909190919091505550565b600080828152602001908152602001600020839080600181540180825580915050600190039060005260206000200160009091909190915090816102a69190610960565b507f3a421c4d4ec7017bb674a1b0e550ad67f9f4976f720622032587ec6a5a86f07260008083815260200190815260200160002083815481106102ec576102eb610a32565b5b90600052602060002001838360405161030793929190610ae5565b60405180910390a1505050565b6000604051905090565b600080fd5b600080fd5b6000819050919050565b61033b81610328565b811461034657600080fd5b50565b60008135905061035881610332565b92915050565b6000602082840312156103745761037361031e565b5b600061038284828501610349565b91505092915050565b61039481610328565b82525050565b60006020820190506103af600083018461038b565b92915050565b600081519050919050565b600082825260208201905092915050565b6000819050602082019050919050565b6103ea81610328565b82525050565b60006103fc83836103e1565b60208301905092915050565b6000602082019050919050565b6000610420826103b5565b61042a81856103c0565b9350610435836103d1565b8060005b8381101561046657815161044d88826103f0565b975061045883610408565b925050600181019050610439565b5085935050505092915050565b6000602082019050818103600083015261048d8184610415565b905092915050565b600073ffffffffffffffffffffffffffffffffffffffff82169050919050565b60006104c082610495565b9050919050565b6104d0816104b5565b82525050565b60006020820190506104eb60008301846104c7565b92915050565b600080fd5b600080fd5b6000601f19601f8301169050919050565b7f4e487b7100000000000000000000000000000000000000000000000000000000600052604160045260246000fd5b610544826104fb565b810181811067ffffffffffffffff821117156105635761056261050c565b5b80604052505050565b6000610576610314565b9050610582828261053b565b919050565b600067ffffffffffffffff8211156105a2576105a161050c565b5b6105ab826104fb565b9050602081019050919050565b82818337600083830152505050565b60006105da6105d584610587565b61056c565b9050828152602081018484840111156105f6576105f56104f6565b5b6106018482856105b8565b509392505050565b600082601f83011261061e5761061d6104f1565b5b813561062e8482602086016105c7565b91505092915050565b6000806000606084860312156106505761064f61031e565b5b600084013567ffffffffffffffff81111561066e5761066d610323565b5b61067a86828701610609565b935050602061068b86828701610349565b925050604061069c86828701610349565b9150509250925092565b600082825260208201905092915050565b7f4f6e6c7920746865206f776e65722063616e2063616c6c20746869732066756e60008201527f6374696f6e2e0000000000000000000000000000000000000000000000000000602082015250565b60006107136026836106a6565b915061071e826106b7565b604082019050919050565b6000602082019050818103600083015261074281610706565b9050919050565b600081519050919050565b7f4e487b7100000000000000000000000000000000000000000000000000000000600052602260045260246000fd5b6000600282049050600182168061079b57607f821691505b6020821081036107ae576107ad610754565b5b50919050565b60008190508160005260206000209050919050565b60006020601f8301049050919050565b600082821b905092915050565b6000600883026108167fffffffffffffffffffffffffffffffffffffffffffffffffffffffffffffffff826107d9565b61082086836107d9565b95508019841693508086168417925050509392505050565b6000819050919050565b600061085d61085861085384610328565b610838565b610328565b9050919050565b6000819050919050565b61087783610842565b61088b61088382610864565b8484546107e6565b825550505050565b600090565b6108a0610893565b6108ab81848461086e565b505050565b5b818110156108cf576108c4600082610898565b6001810190506108b1565b5050565b601f821115610914576108e5816107b4565b6108ee846107c9565b810160208510156108fd578190505b610911610909856107c9565b8301826108b0565b50505b505050565b600082821c905092915050565b600061093760001984600802610919565b1980831691505092915050565b60006109508383610926565b9150826002028217905092915050565b61096982610749565b67ffffffffffffffff8111156109825761098161050c565b5b61098c8254610783565b6109978282856108d3565b600060209050601f8311600181146109ca57600084156109b8578287015190505b6109c28582610944565b865550610a2a565b601f1984166109d8866107b4565b60005b82811015610a00578489015182556001820191506020850194506020810190506109db565b86831015610a1d5784890151610a19601f891682610926565b8355505b6001600288020188555050505b505050505050565b7f4e487b7100000000000000000000000000000000000000000000000000000000600052603260045260246000fd5b60008154610a6e81610783565b610a7881866106a6565b94506001821660008114610a935760018114610aa957610adc565b60ff198316865281151560200286019350610adc565b610ab2856107b4565b60005b83811015610ad457815481890152600182019150602081019050610ab5565b808801955050505b50505092915050565b60006060820190508181036000830152610aff8186610a61565b9050610b0e602083018561038b565b610b1b604083018461038b565b94935050505056fea26469706673582212202ee26b5e1bf9a35dc0bb028787662c53826aefc3250cbb357f6ae4a422b0d26464736f6c634300081c0033",
  "linkReferences": {},
  "deployedLinkReferences": {}
}