{
  "_format": "hh-sol-artifact-1",
  "contractName": "CheckWeights",
  "sourceName": "src/blockchain/contracts/CheckWeights.sol",
  "abi": [
    {
      "inputs": [],
      "stateMutability": "nonpayable",
      "type": "constructor"
    },
    {
      "anonymous": false,
      "inputs": [
        {
          "indexed": false,
          "internalType": "uint256",
          "name": "round",
          "type": "uint256"
        },
        {
          "indexed": false,
          "internalType": "uint256",
          "name": "federatedCid",
          "type": "uint256"
        }
      ],
      "name": "WroteWeightsOfRoundForClient",
      "type": "event"
    },
    {
      "inputs": [
        {
          "internalType": "string",
          "name": "_weights",
          "type": "string"
        },
        {
          "internalType": "uint256",
          "name": "_round",
          "type": "uint256"
        },
        {
          "internalType": "uint256",
          "name": "_federatedCid",
          "type": "uint256"
        }
      ],
      "name": "addRoundWeightsReference",
      "outputs": [],
      "stateMutability": "nonpayable",
      "type": "function"
    },
    {
      "inputs": [
        {
          "internalType": "uint256",
          "name": "_federatedCid",
          "type": "uint256"
        }
      ],
      "name": "addToBlacklist",
      "outputs": [],
      "stateMutability": "nonpayable",
      "type": "function"
    },
    {
      "inputs": [
        {
          "internalType": "uint256",
          "name": "",
          "type": "uint256"
        }
      ],
      "name": "blacklist",
      "outputs": [
        {
          "internalType": "uint256",
          "name": "",
          "type": "uint256"
        }
      ],
      "stateMutability": "view",
      "type": "function"
    },
    {
      "inputs": [],
      "name": "getOwner",
      "outputs": [
        {
          "internalType": "address",
          "name": "",
          "type": "address"
        }
      ],
      "stateMutability": "view",
      "type": "function"
    },
    {
      "inputs": [
        {
          "internalType": "uint256",
          "name": "_round",
          "type": "uint256"
        },
        {
          "internalType": "uint256",
          "name": "_federatedCid",
          "type": "uint256"
        }
      ],
      "name": "getWeightOfRoundOfClient",
      "outputs": [
        {
          "internalType": "string",
          "name": "",
          "type": "string"
        }
      ],
      "stateMutability": "view",
      "type": "function"
    },
    {
      "inputs": [
        {
          "internalType": "uint256",
          "name": "",
          "type": "uint256"
        }
      ],
      "name": "weightsReferences",
      "outputs": [
        {
          "internalType": "uint256",
          "name": "federatedCid",
          "type": "uint256"
        }
      ],
      "stateMutability": "view",
      "type": "function"
    }
  ],
  "bytecode": "0x6080604052348015600f57600080fd5b5033600260006101000a81548173ffffffffffffffffffffffffffffffffffffffff021916908373ffffffffffffffffffffffffffffffffffffffff160217905550610e5e806100606000396000f3fe608060405234801561001057600080fd5b50600436106100625760003560e01c80630f2a0919146100675780631c21cddc14610097578063893d20e8146100c75780638b762e6c146100e55780638e44246814610101578063e6cba98d1461011d575b600080fd5b610081600480360381019061007c91906105f1565b61014d565b60405161008e919061062d565b60405180910390f35b6100b160048036038101906100ac91906105f1565b610171565b6040516100be919061062d565b60405180910390f35b6100cf61019f565b6040516100dc9190610689565b60405180910390f35b6100ff60048036038101906100fa91906105f1565b6101c9565b005b61011b600480360381019061011691906107ea565b6101f5565b005b61013760048036038101906101329190610859565b61033c565b6040516101449190610918565b60405180910390f35b6001818154811061015d57600080fd5b906000526020600020016000915090505481565b6000818154811061018157600080fd5b90600052602060002090600202016000915090508060000154905081565b6000600260009054906101000a900473ffffffffffffffffffffffffffffffffffffffff16905090565b600181908060018154018082558091505060019003906000526020600020016000909190919091505550565b600061020082610412565b1561023657600061021083610475565b815481106102215761022061093a565b5b9060005260206000209060020201905061028c565b600080805490509050600060018160018154018082558091505003906000526020600020905050600081815481106102715761027061093a565b5b90600052602060002090600202019150828260000181905550505b610296838361050d565b6102fb578381600101600085815260200190815260200160002090816102bc9190610b75565b507f49ab53cdea5f88886e786f4c17a329d3e9ac6800979f6b4341c16615da8071dd83836040516102ee929190610c47565b60405180910390a1610336565b6040517f08c379a000000000000000000000000000000000000000000000000000000000815260040161032d90610cbc565b60405180910390fd5b50505050565b606060008061034a84610475565b8154811061035b5761035a61093a565b5b90600052602060002090600202019050806001016000858152602001908152602001600020805461038b90610998565b80601f01602080910402602001604051908101604052809291908181526020018280546103b790610998565b80156104045780601f106103d957610100808354040283529160200191610404565b820191906000526020600020905b8154815290600101906020018083116103e757829003601f168201915b505050505091505092915050565b600080600090505b60008054905081101561046a57826000828154811061043c5761043b61093a565b5b9060005260206000209060020201600001540361045d576001915050610470565b808060010191505061041a565b50600090505b919050565b600080600090505b6000805490508110156104cc57826000828154811061049f5761049e61093a565b5b906000526020600020906002020160000154036104bf5780915050610508565b808060010191505061047d565b506040517f08c379a00000000000000000000000000000000000000000000000000000000081526004016104ff90610d28565b60405180910390fd5b919050565b600080600061051b84610475565b8154811061052c5761052b61093a565b5b9060005260206000209060020201905060405160200161054b90610d79565b604051602081830303815290604052805190602001208160010160008681526020019081526020016000206040516020016105869190610e11565b60405160208183030381529060405280519060200120141591505092915050565b6000604051905090565b600080fd5b600080fd5b6000819050919050565b6105ce816105bb565b81146105d957600080fd5b50565b6000813590506105eb816105c5565b92915050565b600060208284031215610607576106066105b1565b5b6000610615848285016105dc565b91505092915050565b610627816105bb565b82525050565b6000602082019050610642600083018461061e565b92915050565b600073ffffffffffffffffffffffffffffffffffffffff82169050919050565b600061067382610648565b9050919050565b61068381610668565b82525050565b600060208201905061069e600083018461067a565b92915050565b600080fd5b600080fd5b6000601f19601f8301169050919050565b7f4e487b7100000000000000000000000000000000000000000000000000000000600052604160045260246000fd5b6106f7826106ae565b810181811067ffffffffffffffff82111715610716576107156106bf565b5b80604052505050565b60006107296105a7565b905061073582826106ee565b919050565b600067ffffffffffffffff821115610755576107546106bf565b5b61075e826106ae565b9050602081019050919050565b82818337600083830152505050565b600061078d6107888461073a565b61071f565b9050828152602081018484840111156107a9576107a86106a9565b5b6107b484828561076b565b509392505050565b600082601f8301126107d1576107d06106a4565b5b81356107e184826020860161077a565b91505092915050565b600080600060608486031215610803576108026105b1565b5b600084013567ffffffffffffffff811115610821576108206105b6565b5b61082d868287016107bc565b935050602061083e868287016105dc565b925050604061084f868287016105dc565b9150509250925092565b600080604083850312156108705761086f6105b1565b5b600061087e858286016105dc565b925050602061088f858286016105dc565b9150509250929050565b600081519050919050565b600082825260208201905092915050565b60005b838110156108d35780820151818401526020810190506108b8565b60008484015250505050565b60006108ea82610899565b6108f481856108a4565b93506109048185602086016108b5565b61090d816106ae565b840191505092915050565b6000602082019050818103600083015261093281846108df565b905092915050565b7f4e487b7100000000000000000000000000000000000000000000000000000000600052603260045260246000fd5b7f4e487b7100000000000000000000000000000000000000000000000000000000600052602260045260246000fd5b600060028204905060018216806109b057607f821691505b6020821081036109c3576109c2610969565b5b50919050565b60008190508160005260206000209050919050565b60006020601f8301049050919050565b600082821b905092915050565b600060088302610a2b7fffffffffffffffffffffffffffffffffffffffffffffffffffffffffffffffff826109ee565b610a3586836109ee565b95508019841693508086168417925050509392505050565b6000819050919050565b6000610a72610a6d610a68846105bb565b610a4d565b6105bb565b9050919050565b6000819050919050565b610a8c83610a57565b610aa0610a9882610a79565b8484546109fb565b825550505050565b600090565b610ab5610aa8565b610ac0818484610a83565b505050565b5b81811015610ae457610ad9600082610aad565b600181019050610ac6565b5050565b601f821115610b2957610afa816109c9565b610b03846109de565b81016020851015610b12578190505b610b26610b1e856109de565b830182610ac5565b50505b505050565b600082821c905092915050565b6000610b4c60001984600802610b2e565b1980831691505092915050565b6000610b658383610b3b565b9150826002028217905092915050565b610b7e82610899565b67ffffffffffffffff811115610b9757610b966106bf565b5b610ba18254610998565b610bac828285610ae8565b600060209050601f831160018114610bdf5760008415610bcd578287015190505b610bd78582610b59565b865550610c3f565b601f198416610bed866109c9565b60005b82811015610c1557848901518255600182019150602085019450602081019050610bf0565b86831015610c325784890151610c2e601f891682610b3b565b8355505b6001600288020188555050505b505050505050565b6000604082019050610c5c600083018561061e565b610c69602083018461061e565b9392505050565b7f5765696768747320616c72656164792077726f74650000000000000000000000600082015250565b6000610ca66015836108a4565b9150610cb182610c70565b602082019050919050565b60006020820190508181036000830152610cd581610c99565b9050919050565b7f436c69656e74206e6f7420666f756e6400000000000000000000000000000000600082015250565b6000610d126010836108a4565b9150610d1d82610cdc565b602082019050919050565b60006020820190508181036000830152610d4181610d05565b9050919050565b600081905092915050565b50565b6000610d63600083610d48565b9150610d6e82610d53565b600082019050919050565b6000610d8482610d56565b9150819050919050565b60008154610d9b81610998565b610da58186610d48565b94506001821660008114610dc05760018114610dd557610e08565b60ff1983168652811515820286019350610e08565b610dde856109c9565b60005b83811015610e0057815481890152600182019150602081019050610de1565b838801955050505b50505092915050565b6000610e1d8284610d8e565b91508190509291505056fea2646970667358221220cd6d7f3332022153ce8274919a01e34e0c7d4665ecfc253911f2805174d56d1264736f6c634300081c0033",
  "linkReferences": {},
  "deployedLinkReferences": {}
}