{
  "_format": "hh-sol-artifact-1",
  "contractName": "CheckWeights",
  "sourceName": "src/blockchain/contracts/CheckWeights.sol",
  "abi": [
    {
      "inputs": [],
      "stateMutability": "nonpayable",
      "type": "constructor"
    },
    {
      "anonymous": false,
      "inputs": [
        {
          "indexed": false,
          "internalType": "uint256",
          "name": "round",
          "type": "uint256"
        },
        {
          "indexed": false,
          "internalType": "uint256",
          "name": "federatedCid",
          "type": "uint256"
        }
      ],
      "name": "WroteWeightsOfRoundForClient",
      "type": "event"
    },
    {
      "inputs": [
        {
          "internalType": "string",
          "name": "_weights",
          "type": "string"
        },
        {
          "internalType": "uint256",
          "name": "_round",
          "type": "uint256"
        },
        {
          "internalType": "uint256",
          "name": "_federatedCid",
          "type": "uint256"
        }
      ],
      "name": "addRoundWeightsReference",
      "outputs": [],
      "stateMutability": "nonpayable",
      "type": "function"
    },
    {
      "inputs": [
        {
          "internalType": "uint256",
          "name": "_federatedCid",
          "type": "uint256"
        }
      ],
      "name": "addToBlacklist",
      "outputs": [],
      "stateMutability": "nonpayable",
      "type": "function"
    },
    {
      "inputs": [
        {
          "internalType": "uint256",
          "name": "",
          "type": "uint256"
        }
      ],
      "name": "blacklist",
      "outputs": [
        {
          "internalType": "uint256",
          "name": "",
          "type": "uint256"
        }
      ],
      "stateMutability": "view",
      "type": "function"
    },
    {
      "inputs": [],
      "name": "getBlackList",
      "outputs": [
        {
          "internalType": "uint256[]",
          "name": "",
          "type": "uint256[]"
        }
      ],
      "stateMutability": "view",
      "type": "function"
    },
    {
      "inputs": [],
      "name": "getOwner",
      "outputs": [
        {
          "internalType": "address",
          "name": "",
          "type": "address"
        }
      ],
      "stateMutability": "view",
      "type": "function"
    },
    {
      "inputs": [
        {
          "internalType": "uint256",
          "name": "_round",
          "type": "uint256"
        },
        {
          "internalType": "uint256",
          "name": "_federatedCid",
          "type": "uint256"
        }
      ],
      "name": "getWeightOfRoundOfClient",
      "outputs": [
        {
          "internalType": "string",
          "name": "",
          "type": "string"
        }
      ],
      "stateMutability": "view",
      "type": "function"
    },
    {
      "inputs": [
        {
          "internalType": "uint256",
          "name": "_federatedCid",
          "type": "uint256"
        }
      ],
      "name": "isPoisonerCid",
      "outputs": [
        {
          "internalType": "bool",
          "name": "",
          "type": "bool"
        }
      ],
      "stateMutability": "view",
      "type": "function"
    },
    {
      "inputs": [
        {
          "internalType": "uint256",
          "name": "",
          "type": "uint256"
        }
      ],
      "name": "weightsReferences",
      "outputs": [
        {
          "internalType": "uint256",
          "name": "federatedCid",
          "type": "uint256"
        }
      ],
      "stateMutability": "view",
      "type": "function"
    }
  ],
  "bytecode": "0x6080604052348015600f57600080fd5b5033600260006101000a81548173ffffffffffffffffffffffffffffffffffffffff021916908373ffffffffffffffffffffffffffffffffffffffff16021790555061109c806100606000396000f3fe608060405234801561001057600080fd5b50600436106100885760003560e01c8063893d20e81161005b578063893d20e81461013b5780638b762e6c146101595780638e44246814610175578063e6cba98d1461019157610088565b80630f2a09191461008d5780631c21cddc146100bd578063360b97b9146100ed578063606e8a6b1461010b575b600080fd5b6100a760048036038101906100a29190610719565b6101c1565b6040516100b49190610755565b60405180910390f35b6100d760048036038101906100d29190610719565b6101e5565b6040516100e49190610755565b60405180910390f35b6100f5610213565b604051610102919061082e565b60405180910390f35b61012560048036038101906101209190610719565b61026b565b604051610132919061086b565b60405180910390f35b6101436102c7565b60405161015091906108c7565b60405180910390f35b610173600480360381019061016e9190610719565b6102f1565b005b61018f600480360381019061018a9190610a28565b61031d565b005b6101ab60048036038101906101a69190610a97565b610464565b6040516101b89190610b56565b60405180910390f35b600181815481106101d157600080fd5b906000526020600020016000915090505481565b600081815481106101f557600080fd5b90600052602060002090600202016000915090508060000154905081565b6060600180548060200260200160405190810160405280929190818152602001828054801561026157602002820191906000526020600020905b81548152602001906001019080831161024d575b5050505050905090565b600080600090505b6001805490508110156102bc57826001828154811061029557610294610b78565b5b9060005260206000200154036102af5760019150506102c2565b8080600101915050610273565b50600090505b919050565b6000600260009054906101000a900473ffffffffffffffffffffffffffffffffffffffff16905090565b600181908060018154018082558091505060019003906000526020600020016000909190919091505550565b60006103288261053a565b1561035e5760006103388361059d565b8154811061034957610348610b78565b5b906000526020600020906002020190506103b4565b6000808054905090506000600181600181540180825580915050039060005260206000209050506000818154811061039957610398610b78565b5b90600052602060002090600202019150828260000181905550505b6103be8383610635565b610423578381600101600085815260200190815260200160002090816103e49190610db3565b507f49ab53cdea5f88886e786f4c17a329d3e9ac6800979f6b4341c16615da8071dd8383604051610416929190610e85565b60405180910390a161045e565b6040517f08c379a000000000000000000000000000000000000000000000000000000000815260040161045590610efa565b60405180910390fd5b50505050565b60606000806104728461059d565b8154811061048357610482610b78565b5b9060005260206000209060020201905080600101600085815260200190815260200160002080546104b390610bd6565b80601f01602080910402602001604051908101604052809291908181526020018280546104df90610bd6565b801561052c5780601f106105015761010080835404028352916020019161052c565b820191906000526020600020905b81548152906001019060200180831161050f57829003601f168201915b505050505091505092915050565b600080600090505b60008054905081101561059257826000828154811061056457610563610b78565b5b90600052602060002090600202016000015403610585576001915050610598565b8080600101915050610542565b50600090505b919050565b600080600090505b6000805490508110156105f45782600082815481106105c7576105c6610b78565b5b906000526020600020906002020160000154036105e75780915050610630565b80806001019150506105a5565b506040517f08c379a000000000000000000000000000000000000000000000000000000000815260040161062790610f66565b60405180910390fd5b919050565b60008060006106438461059d565b8154811061065457610653610b78565b5b9060005260206000209060020201905060405160200161067390610fb7565b604051602081830303815290604052805190602001208160010160008681526020019081526020016000206040516020016106ae919061104f565b60405160208183030381529060405280519060200120141591505092915050565b6000604051905090565b600080fd5b600080fd5b6000819050919050565b6106f6816106e3565b811461070157600080fd5b50565b600081359050610713816106ed565b92915050565b60006020828403121561072f5761072e6106d9565b5b600061073d84828501610704565b91505092915050565b61074f816106e3565b82525050565b600060208201905061076a6000830184610746565b92915050565b600081519050919050565b600082825260208201905092915050565b6000819050602082019050919050565b6107a5816106e3565b82525050565b60006107b7838361079c565b60208301905092915050565b6000602082019050919050565b60006107db82610770565b6107e5818561077b565b93506107f08361078c565b8060005b8381101561082157815161080888826107ab565b9750610813836107c3565b9250506001810190506107f4565b5085935050505092915050565b6000602082019050818103600083015261084881846107d0565b905092915050565b60008115159050919050565b61086581610850565b82525050565b6000602082019050610880600083018461085c565b92915050565b600073ffffffffffffffffffffffffffffffffffffffff82169050919050565b60006108b182610886565b9050919050565b6108c1816108a6565b82525050565b60006020820190506108dc60008301846108b8565b92915050565b600080fd5b600080fd5b6000601f19601f8301169050919050565b7f4e487b7100000000000000000000000000000000000000000000000000000000600052604160045260246000fd5b610935826108ec565b810181811067ffffffffffffffff82111715610954576109536108fd565b5b80604052505050565b60006109676106cf565b9050610973828261092c565b919050565b600067ffffffffffffffff821115610993576109926108fd565b5b61099c826108ec565b9050602081019050919050565b82818337600083830152505050565b60006109cb6109c684610978565b61095d565b9050828152602081018484840111156109e7576109e66108e7565b5b6109f28482856109a9565b509392505050565b600082601f830112610a0f57610a0e6108e2565b5b8135610a1f8482602086016109b8565b91505092915050565b600080600060608486031215610a4157610a406106d9565b5b600084013567ffffffffffffffff811115610a5f57610a5e6106de565b5b610a6b868287016109fa565b9350506020610a7c86828701610704565b9250506040610a8d86828701610704565b9150509250925092565b60008060408385031215610aae57610aad6106d9565b5b6000610abc85828601610704565b9250506020610acd85828601610704565b9150509250929050565b600081519050919050565b600082825260208201905092915050565b60005b83811015610b11578082015181840152602081019050610af6565b60008484015250505050565b6000610b2882610ad7565b610b328185610ae2565b9350610b42818560208601610af3565b610b4b816108ec565b840191505092915050565b60006020820190508181036000830152610b708184610b1d565b905092915050565b7f4e487b7100000000000000000000000000000000000000000000000000000000600052603260045260246000fd5b7f4e487b7100000000000000000000000000000000000000000000000000000000600052602260045260246000fd5b60006002820490506001821680610bee57607f821691505b602082108103610c0157610c00610ba7565b5b50919050565b60008190508160005260206000209050919050565b60006020601f8301049050919050565b600082821b905092915050565b600060088302610c697fffffffffffffffffffffffffffffffffffffffffffffffffffffffffffffffff82610c2c565b610c738683610c2c565b95508019841693508086168417925050509392505050565b6000819050919050565b6000610cb0610cab610ca6846106e3565b610c8b565b6106e3565b9050919050565b6000819050919050565b610cca83610c95565b610cde610cd682610cb7565b848454610c39565b825550505050565b600090565b610cf3610ce6565b610cfe818484610cc1565b505050565b5b81811015610d2257610d17600082610ceb565b600181019050610d04565b5050565b601f821115610d6757610d3881610c07565b610d4184610c1c565b81016020851015610d50578190505b610d64610d5c85610c1c565b830182610d03565b50505b505050565b600082821c905092915050565b6000610d8a60001984600802610d6c565b1980831691505092915050565b6000610da38383610d79565b9150826002028217905092915050565b610dbc82610ad7565b67ffffffffffffffff811115610dd557610dd46108fd565b5b610ddf8254610bd6565b610dea828285610d26565b600060209050601f831160018114610e1d5760008415610e0b578287015190505b610e158582610d97565b865550610e7d565b601f198416610e2b86610c07565b60005b82811015610e5357848901518255600182019150602085019450602081019050610e2e565b86831015610e705784890151610e6c601f891682610d79565b8355505b6001600288020188555050505b505050505050565b6000604082019050610e9a6000830185610746565b610ea76020830184610746565b9392505050565b7f5765696768747320616c72656164792077726f74650000000000000000000000600082015250565b6000610ee4601583610ae2565b9150610eef82610eae565b602082019050919050565b60006020820190508181036000830152610f1381610ed7565b9050919050565b7f436c69656e74206e6f7420666f756e6400000000000000000000000000000000600082015250565b6000610f50601083610ae2565b9150610f5b82610f1a565b602082019050919050565b60006020820190508181036000830152610f7f81610f43565b9050919050565b600081905092915050565b50565b6000610fa1600083610f86565b9150610fac82610f91565b600082019050919050565b6000610fc282610f94565b9150819050919050565b60008154610fd981610bd6565b610fe38186610f86565b94506001821660008114610ffe576001811461101357611046565b60ff1983168652811515820286019350611046565b61101c85610c07565b60005b8381101561103e5781548189015260018201915060208101905061101f565b838801955050505b50505092915050565b600061105b8284610fcc565b91508190509291505056fea2646970667358221220d92bc10f9d8087fb009c02fa170b0736b9e040fbf724e745ff1608c679ec29cf64736f6c634300081c0033",
  "linkReferences": {},
  "deployedLinkReferences": {}
}