{
  "_format": "hh-sol-artifact-1",
  "contractName": "CheckWeights",
  "sourceName": "src/blockchain/contracts/CheckWeights.sol",
  "abi": [
    {
      "inputs": [],
      "stateMutability": "nonpayable",
      "type": "constructor"
    },
    {
      "anonymous": false,
      "inputs": [
        {
          "indexed": false,
          "internalType": "uint256",
          "name": "round",
          "type": "uint256"
        },
        {
          "indexed": false,
          "internalType": "uint256",
          "name": "federatedCid",
          "type": "uint256"
        }
      ],
      "name": "WroteWeightsOfRoundForClient",
      "type": "event"
    },
    {
      "inputs": [
        {
          "internalType": "string",
          "name": "_weights",
          "type": "string"
        },
        {
          "internalType": "uint256",
          "name": "_round",
          "type": "uint256"
        },
        {
          "internalType": "uint256",
          "name": "_federatedCid",
          "type": "uint256"
        }
      ],
      "name": "addRoundWeightsReference",
      "outputs": [],
      "stateMutability": "nonpayable",
      "type": "function"
    },
    {
      "inputs": [
        {
          "internalType": "uint256",
          "name": "_federatedCid",
          "type": "uint256"
        }
      ],
      "name": "addToBlacklist",
      "outputs": [],
      "stateMutability": "nonpayable",
      "type": "function"
    },
    {
      "inputs": [
        {
          "internalType": "uint256",
          "name": "",
          "type": "uint256"
        }
      ],
      "name": "blacklist",
      "outputs": [
        {
          "internalType": "uint256",
          "name": "",
          "type": "uint256"
        }
      ],
      "stateMutability": "view",
      "type": "function"
    },
    {
      "inputs": [],
      "name": "getOwner",
      "outputs": [
        {
          "internalType": "address",
          "name": "",
          "type": "address"
        }
      ],
      "stateMutability": "view",
      "type": "function"
    },
    {
      "inputs": [
        {
          "internalType": "uint256",
          "name": "_round",
          "type": "uint256"
        },
        {
          "internalType": "uint256",
          "name": "_federatedCid",
          "type": "uint256"
        }
      ],
      "name": "getWeightOfRoundOfClient",
      "outputs": [
        {
          "internalType": "string",
          "name": "",
          "type": "string"
        }
      ],
      "stateMutability": "view",
      "type": "function"
    },
    {
      "inputs": [
        {
          "internalType": "uint256",
          "name": "_federatedCid",
          "type": "uint256"
        }
      ],
      "name": "isClientInBlacklist",
      "outputs": [
        {
          "internalType": "bool",
          "name": "",
          "type": "bool"
        }
      ],
      "stateMutability": "view",
      "type": "function"
    },
    {
      "inputs": [
        {
          "internalType": "uint256",
          "name": "_federatedCid",
          "type": "uint256"
        }
      ],
      "name": "isPoisonerCid",
      "outputs": [
        {
          "internalType": "bool",
          "name": "",
          "type": "bool"
        }
      ],
      "stateMutability": "view",
      "type": "function"
    },
    {
      "inputs": [
        {
          "internalType": "bool",
          "name": "_serverCorrupted",
          "type": "bool"
        }
      ],
      "name": "setServerCorrupted",
      "outputs": [],
      "stateMutability": "nonpayable",
      "type": "function"
    },
    {
      "inputs": [
        {
          "internalType": "uint256",
          "name": "",
          "type": "uint256"
        }
      ],
      "name": "weightsReferences",
      "outputs": [
        {
          "internalType": "uint256",
          "name": "federatedCid",
          "type": "uint256"
        }
      ],
      "stateMutability": "view",
      "type": "function"
    }
  ],
  "bytecode": "0x6080604052348015600f57600080fd5b5033600260006101000a81548173ffffffffffffffffffffffffffffffffffffffff021916908373ffffffffffffffffffffffffffffffffffffffff160217905550610faf806100606000396000f3fe608060405234801561001057600080fd5b50600436106100935760003560e01c8063606e8a6b11610066578063606e8a6b14610144578063893d20e8146101745780638b762e6c146101925780638e442468146101ae578063e6cba98d146101ca57610093565b80630f2a0919146100985780631c21cddc146100c8578063319e4199146100f85780633dff540314610128575b600080fd5b6100b260048036038101906100ad9190610793565b6101fa565b6040516100bf91906107cf565b60405180910390f35b6100e260048036038101906100dd9190610793565b61021e565b6040516100ef91906107cf565b60405180910390f35b610112600480360381019061010d9190610793565b61024c565b60405161011f9190610805565b60405180910390f35b610142600480360381019061013d919061084c565b6102a8565b005b61015e60048036038101906101599190610793565b6102c5565b60405161016b9190610805565b60405180910390f35b61017c610321565b60405161018991906108ba565b60405180910390f35b6101ac60048036038101906101a79190610793565b61034b565b005b6101c860048036038101906101c39190610a1b565b610377565b005b6101e460048036038101906101df9190610a8a565b610578565b6040516101f19190610b49565b60405180910390f35b6001818154811061020a57600080fd5b906000526020600020016000915090505481565b6000818154811061022e57600080fd5b90600052602060002090600202016000915090508060000154905081565b600080600090505b60018054905081101561029d57826001828154811061027657610275610b6b565b5b9060005260206000200154036102905760019150506102a3565b8080600101915050610254565b50600090505b919050565b80600260146101000a81548160ff02191690831515021790555050565b600080600090505b6001805490508110156103165782600182815481106102ef576102ee610b6b565b5b90600052602060002001540361030957600191505061031c565b80806001019150506102cd565b50600090505b919050565b6000600260009054906101000a900473ffffffffffffffffffffffffffffffffffffffff16905090565b600181908060018154018082558091505060019003906000526020600020016000909190919091505550565b6103808161024c565b80156103da5750600260009054906101000a900473ffffffffffffffffffffffffffffffffffffffff1673ffffffffffffffffffffffffffffffffffffffff163373ffffffffffffffffffffffffffffffffffffffff1614155b1561041a576040517f08c379a000000000000000000000000000000000000000000000000000000000815260040161041190610be6565b60405180910390fd5b60006104258261064e565b1561045b576000610435836106b1565b8154811061044657610445610b6b565b5b906000526020600020906002020190506104b1565b6000808054905090506000600181600181540180825580915050039060005260206000209050506000818154811061049657610495610b6b565b5b90600052602060002090600202019150828260000181905550505b8381600101600085815260200190815260200160002090816104d39190610e12565b50600283101580156105335750600260009054906101000a900473ffffffffffffffffffffffffffffffffffffffff1673ffffffffffffffffffffffffffffffffffffffff163373ffffffffffffffffffffffffffffffffffffffff1614155b15610572577f49ab53cdea5f88886e786f4c17a329d3e9ac6800979f6b4341c16615da8071dd8383604051610569929190610ee4565b60405180910390a15b50505050565b6060600080610586846106b1565b8154811061059757610596610b6b565b5b9060005260206000209060020201905080600101600085815260200190815260200160002080546105c790610c35565b80601f01602080910402602001604051908101604052809291908181526020018280546105f390610c35565b80156106405780601f1061061557610100808354040283529160200191610640565b820191906000526020600020905b81548152906001019060200180831161062357829003601f168201915b505050505091505092915050565b600080600090505b6000805490508110156106a657826000828154811061067857610677610b6b565b5b906000526020600020906002020160000154036106995760019150506106ac565b8080600101915050610656565b50600090505b919050565b600080600090505b6000805490508110156107085782600082815481106106db576106da610b6b565b5b906000526020600020906002020160000154036106fb5780915050610744565b80806001019150506106b9565b506040517f08c379a000000000000000000000000000000000000000000000000000000000815260040161073b90610f59565b60405180910390fd5b919050565b6000604051905090565b600080fd5b600080fd5b6000819050919050565b6107708161075d565b811461077b57600080fd5b50565b60008135905061078d81610767565b92915050565b6000602082840312156107a9576107a8610753565b5b60006107b78482850161077e565b91505092915050565b6107c98161075d565b82525050565b60006020820190506107e460008301846107c0565b92915050565b60008115159050919050565b6107ff816107ea565b82525050565b600060208201905061081a60008301846107f6565b92915050565b610829816107ea565b811461083457600080fd5b50565b60008135905061084681610820565b92915050565b60006020828403121561086257610861610753565b5b600061087084828501610837565b91505092915050565b600073ffffffffffffffffffffffffffffffffffffffff82169050919050565b60006108a482610879565b9050919050565b6108b481610899565b82525050565b60006020820190506108cf60008301846108ab565b92915050565b600080fd5b600080fd5b6000601f19601f8301169050919050565b7f4e487b7100000000000000000000000000000000000000000000000000000000600052604160045260246000fd5b610928826108df565b810181811067ffffffffffffffff82111715610947576109466108f0565b5b80604052505050565b600061095a610749565b9050610966828261091f565b919050565b600067ffffffffffffffff821115610986576109856108f0565b5b61098f826108df565b9050602081019050919050565b82818337600083830152505050565b60006109be6109b98461096b565b610950565b9050828152602081018484840111156109da576109d96108da565b5b6109e584828561099c565b509392505050565b600082601f830112610a0257610a016108d5565b5b8135610a128482602086016109ab565b91505092915050565b600080600060608486031215610a3457610a33610753565b5b600084013567ffffffffffffffff811115610a5257610a51610758565b5b610a5e868287016109ed565b9350506020610a6f8682870161077e565b9250506040610a808682870161077e565b9150509250925092565b60008060408385031215610aa157610aa0610753565b5b6000610aaf8582860161077e565b9250506020610ac08582860161077e565b9150509250929050565b600081519050919050565b600082825260208201905092915050565b60005b83811015610b04578082015181840152602081019050610ae9565b60008484015250505050565b6000610b1b82610aca565b610b258185610ad5565b9350610b35818560208601610ae6565b610b3e816108df565b840191505092915050565b60006020820190508181036000830152610b638184610b10565b905092915050565b7f4e487b7100000000000000000000000000000000000000000000000000000000600052603260045260246000fd5b7f436c69656e7420697320696e20626c61636b6c69737400000000000000000000600082015250565b6000610bd0601683610ad5565b9150610bdb82610b9a565b602082019050919050565b60006020820190508181036000830152610bff81610bc3565b9050919050565b7f4e487b7100000000000000000000000000000000000000000000000000000000600052602260045260246000fd5b60006002820490506001821680610c4d57607f821691505b602082108103610c6057610c5f610c06565b5b50919050565b60008190508160005260206000209050919050565b60006020601f8301049050919050565b600082821b905092915050565b600060088302610cc87fffffffffffffffffffffffffffffffffffffffffffffffffffffffffffffffff82610c8b565b610cd28683610c8b565b95508019841693508086168417925050509392505050565b6000819050919050565b6000610d0f610d0a610d058461075d565b610cea565b61075d565b9050919050565b6000819050919050565b610d2983610cf4565b610d3d610d3582610d16565b848454610c98565b825550505050565b600090565b610d52610d45565b610d5d818484610d20565b505050565b5b81811015610d8157610d76600082610d4a565b600181019050610d63565b5050565b601f821115610dc657610d9781610c66565b610da084610c7b565b81016020851015610daf578190505b610dc3610dbb85610c7b565b830182610d62565b50505b505050565b600082821c905092915050565b6000610de960001984600802610dcb565b1980831691505092915050565b6000610e028383610dd8565b9150826002028217905092915050565b610e1b82610aca565b67ffffffffffffffff811115610e3457610e336108f0565b5b610e3e8254610c35565b610e49828285610d85565b600060209050601f831160018114610e7c5760008415610e6a578287015190505b610e748582610df6565b865550610edc565b601f198416610e8a86610c66565b60005b82811015610eb257848901518255600182019150602085019450602081019050610e8d565b86831015610ecf5784890151610ecb601f891682610dd8565b8355505b6001600288020188555050505b505050505050565b6000604082019050610ef960008301856107c0565b610f0660208301846107c0565b9392505050565b7f436c69656e74206e6f7420666f756e6400000000000000000000000000000000600082015250565b6000610f43601083610ad5565b9150610f4e82610f0d565b602082019050919050565b60006020820190508181036000830152610f7281610f36565b905091905056fea264697066735822122052f366309b8ed84bbcf60b67e058d93cc0106b8dd4a7289d795fa4560b34578464736f6c634300081c0033",
  "linkReferences": {},
  "deployedLinkReferences": {}
}