{
  "_format": "hh-sol-artifact-1",
  "contractName": "CheckWeights",
  "sourceName": "src/blockchain/contracts/CheckWeights.sol",
  "abi": [
    {
      "inputs": [],
      "stateMutability": "nonpayable",
      "type": "constructor"
    },
    {
      "anonymous": false,
      "inputs": [
        {
          "indexed": false,
          "internalType": "uint256",
          "name": "round",
          "type": "uint256"
        },
        {
          "indexed": false,
          "internalType": "uint256",
          "name": "federatedCid",
          "type": "uint256"
        }
      ],
      "name": "WroteWeightsOfRoundForClient",
      "type": "event"
    },
    {
      "inputs": [
        {
          "internalType": "string",
          "name": "_weights",
          "type": "string"
        },
        {
          "internalType": "uint256",
          "name": "_round",
          "type": "uint256"
        },
        {
          "internalType": "uint256",
          "name": "_federatedCid",
          "type": "uint256"
        }
      ],
      "name": "addRoundWeightsReference",
      "outputs": [],
      "stateMutability": "nonpayable",
      "type": "function"
    },
    {
      "inputs": [
        {
          "internalType": "uint256",
          "name": "_federatedCid",
          "type": "uint256"
        }
      ],
      "name": "addToBlacklist",
      "outputs": [],
      "stateMutability": "nonpayable",
      "type": "function"
    },
    {
      "inputs": [
        {
          "internalType": "uint256",
          "name": "",
          "type": "uint256"
        }
      ],
      "name": "blacklist",
      "outputs": [
        {
          "internalType": "uint256",
          "name": "",
          "type": "uint256"
        }
      ],
      "stateMutability": "view",
      "type": "function"
    },
    {
      "inputs": [],
      "name": "getOwner",
      "outputs": [
        {
          "internalType": "address",
          "name": "",
          "type": "address"
        }
      ],
      "stateMutability": "view",
      "type": "function"
    },
    {
      "inputs": [
        {
          "internalType": "uint256",
          "name": "_round",
          "type": "uint256"
        },
        {
          "internalType": "uint256",
          "name": "_federatedCid",
          "type": "uint256"
        }
      ],
      "name": "getWeightOfRoundOfClient",
      "outputs": [
        {
          "internalType": "string",
          "name": "",
          "type": "string"
        }
      ],
      "stateMutability": "view",
      "type": "function"
    },
    {
      "inputs": [
        {
          "internalType": "uint256",
          "name": "_federatedCid",
          "type": "uint256"
        }
      ],
      "name": "isPoisonerCid",
      "outputs": [
        {
          "internalType": "bool",
          "name": "",
          "type": "bool"
        }
      ],
      "stateMutability": "view",
      "type": "function"
    },
    {
      "inputs": [
        {
          "internalType": "uint256",
          "name": "",
          "type": "uint256"
        }
      ],
      "name": "weightsReferences",
      "outputs": [
        {
          "internalType": "uint256",
          "name": "federatedCid",
          "type": "uint256"
        }
      ],
      "stateMutability": "view",
      "type": "function"
    }
  ],
  "bytecode": "0x6080604052348015600f57600080fd5b5033600260006101000a81548173ffffffffffffffffffffffffffffffffffffffff021916908373ffffffffffffffffffffffffffffffffffffffff160217905550610d10806100606000396000f3fe608060405234801561001057600080fd5b506004361061007d5760003560e01c8063893d20e81161005b578063893d20e8146101125780638b762e6c146101305780638e4424681461014c578063e6cba98d146101685761007d565b80630f2a0919146100825780631c21cddc146100b2578063606e8a6b146100e2575b600080fd5b61009c600480360381019061009791906105b9565b610198565b6040516100a991906105f5565b60405180910390f35b6100cc60048036038101906100c791906105b9565b6101bc565b6040516100d991906105f5565b60405180910390f35b6100fc60048036038101906100f791906105b9565b6101ea565b604051610109919061062b565b60405180910390f35b61011a610246565b6040516101279190610687565b60405180910390f35b61014a600480360381019061014591906105b9565b610270565b005b610166600480360381019061016191906107e8565b61029c565b005b610182600480360381019061017d9190610857565b61039e565b60405161018f9190610916565b60405180910390f35b600181815481106101a857600080fd5b906000526020600020016000915090505481565b600081815481106101cc57600080fd5b90600052602060002090600202016000915090508060000154905081565b600080600090505b60018054905081101561023b57826001828154811061021457610213610938565b5b90600052602060002001540361022e576001915050610241565b80806001019150506101f2565b50600090505b919050565b6000600260009054906101000a900473ffffffffffffffffffffffffffffffffffffffff16905090565b600181908060018154018082558091505060019003906000526020600020016000909190919091505550565b60006102a782610474565b156102dd5760006102b7836104d7565b815481106102c8576102c7610938565b5b90600052602060002090600202019050610333565b6000808054905090506000600181600181540180825580915050039060005260206000209050506000818154811061031857610317610938565b5b90600052602060002090600202019150828260000181905550505b8381600101600085815260200190815260200160002090816103559190610b73565b5060028310610398577f49ab53cdea5f88886e786f4c17a329d3e9ac6800979f6b4341c16615da8071dd838360405161038f929190610c45565b60405180910390a15b50505050565b60606000806103ac846104d7565b815481106103bd576103bc610938565b5b9060005260206000209060020201905080600101600085815260200190815260200160002080546103ed90610996565b80601f016020809104026020016040519081016040528092919081815260200182805461041990610996565b80156104665780601f1061043b57610100808354040283529160200191610466565b820191906000526020600020905b81548152906001019060200180831161044957829003601f168201915b505050505091505092915050565b600080600090505b6000805490508110156104cc57826000828154811061049e5761049d610938565b5b906000526020600020906002020160000154036104bf5760019150506104d2565b808060010191505061047c565b50600090505b919050565b600080600090505b60008054905081101561052e57826000828154811061050157610500610938565b5b90600052602060002090600202016000015403610521578091505061056a565b80806001019150506104df565b506040517f08c379a000000000000000000000000000000000000000000000000000000000815260040161056190610cba565b60405180910390fd5b919050565b6000604051905090565b600080fd5b600080fd5b6000819050919050565b61059681610583565b81146105a157600080fd5b50565b6000813590506105b38161058d565b92915050565b6000602082840312156105cf576105ce610579565b5b60006105dd848285016105a4565b91505092915050565b6105ef81610583565b82525050565b600060208201905061060a60008301846105e6565b92915050565b60008115159050919050565b61062581610610565b82525050565b6000602082019050610640600083018461061c565b92915050565b600073ffffffffffffffffffffffffffffffffffffffff82169050919050565b600061067182610646565b9050919050565b61068181610666565b82525050565b600060208201905061069c6000830184610678565b92915050565b600080fd5b600080fd5b6000601f19601f8301169050919050565b7f4e487b7100000000000000000000000000000000000000000000000000000000600052604160045260246000fd5b6106f5826106ac565b810181811067ffffffffffffffff82111715610714576107136106bd565b5b80604052505050565b600061072761056f565b905061073382826106ec565b919050565b600067ffffffffffffffff821115610753576107526106bd565b5b61075c826106ac565b9050602081019050919050565b82818337600083830152505050565b600061078b61078684610738565b61071d565b9050828152602081018484840111156107a7576107a66106a7565b5b6107b2848285610769565b509392505050565b600082601f8301126107cf576107ce6106a2565b5b81356107df848260208601610778565b91505092915050565b60008060006060848603121561080157610800610579565b5b600084013567ffffffffffffffff81111561081f5761081e61057e565b5b61082b868287016107ba565b935050602061083c868287016105a4565b925050604061084d868287016105a4565b9150509250925092565b6000806040838503121561086e5761086d610579565b5b600061087c858286016105a4565b925050602061088d858286016105a4565b9150509250929050565b600081519050919050565b600082825260208201905092915050565b60005b838110156108d15780820151818401526020810190506108b6565b60008484015250505050565b60006108e882610897565b6108f281856108a2565b93506109028185602086016108b3565b61090b816106ac565b840191505092915050565b6000602082019050818103600083015261093081846108dd565b905092915050565b7f4e487b7100000000000000000000000000000000000000000000000000000000600052603260045260246000fd5b7f4e487b7100000000000000000000000000000000000000000000000000000000600052602260045260246000fd5b600060028204905060018216806109ae57607f821691505b6020821081036109c1576109c0610967565b5b50919050565b60008190508160005260206000209050919050565b60006020601f8301049050919050565b600082821b905092915050565b600060088302610a297fffffffffffffffffffffffffffffffffffffffffffffffffffffffffffffffff826109ec565b610a3386836109ec565b95508019841693508086168417925050509392505050565b6000819050919050565b6000610a70610a6b610a6684610583565b610a4b565b610583565b9050919050565b6000819050919050565b610a8a83610a55565b610a9e610a9682610a77565b8484546109f9565b825550505050565b600090565b610ab3610aa6565b610abe818484610a81565b505050565b5b81811015610ae257610ad7600082610aab565b600181019050610ac4565b5050565b601f821115610b2757610af8816109c7565b610b01846109dc565b81016020851015610b10578190505b610b24610b1c856109dc565b830182610ac3565b50505b505050565b600082821c905092915050565b6000610b4a60001984600802610b2c565b1980831691505092915050565b6000610b638383610b39565b9150826002028217905092915050565b610b7c82610897565b67ffffffffffffffff811115610b9557610b946106bd565b5b610b9f8254610996565b610baa828285610ae6565b600060209050601f831160018114610bdd5760008415610bcb578287015190505b610bd58582610b57565b865550610c3d565b601f198416610beb866109c7565b60005b82811015610c1357848901518255600182019150602085019450602081019050610bee565b86831015610c305784890151610c2c601f891682610b39565b8355505b6001600288020188555050505b505050505050565b6000604082019050610c5a60008301856105e6565b610c6760208301846105e6565b9392505050565b7f436c69656e74206e6f7420666f756e6400000000000000000000000000000000600082015250565b6000610ca46010836108a2565b9150610caf82610c6e565b602082019050919050565b60006020820190508181036000830152610cd381610c97565b905091905056fea2646970667358221220b40d72e78c0c44c9edde8427e8305e871fbbf6c687584e57e29adf1349057add64736f6c634300081c0033",
  "linkReferences": {},
  "deployedLinkReferences": {}
}