{
  "_format": "hh-sol-artifact-1",
  "contractName": "CheckWeights",
  "sourceName": "src/blockchain/contracts/CheckWeights.sol",
  "abi": [
    {
      "inputs": [],
      "stateMutability": "nonpayable",
      "type": "constructor"
    },
    {
      "anonymous": false,
      "inputs": [
        {
          "indexed": false,
          "internalType": "address",
          "name": "weights",
          "type": "address"
        },
        {
          "indexed": false,
          "internalType": "uint256",
          "name": "round",
          "type": "uint256"
        },
        {
          "indexed": false,
          "internalType": "uint256",
          "name": "federatedCid",
          "type": "uint256"
        }
      ],
      "name": "WroteWeightsOfRoundForClient",
      "type": "event"
    },
    {
      "inputs": [
        {
          "internalType": "uint256",
          "name": "_federatedCid",
          "type": "uint256"
        }
      ],
      "name": "addToBlacklist",
      "outputs": [],
      "stateMutability": "nonpayable",
      "type": "function"
    },
    {
      "inputs": [
        {
          "internalType": "uint256",
          "name": "",
          "type": "uint256"
        }
      ],
      "name": "blacklist",
      "outputs": [
        {
          "internalType": "uint256",
          "name": "",
          "type": "uint256"
        }
      ],
      "stateMutability": "view",
      "type": "function"
    },
    {
      "inputs": [
        {
          "internalType": "uint256",
          "name": "",
          "type": "uint256"
        }
      ],
      "name": "client",
      "outputs": [
        {
          "internalType": "uint256",
          "name": "federatedCid",
          "type": "uint256"
        }
      ],
      "stateMutability": "view",
      "type": "function"
    },
    {
      "inputs": [],
      "name": "getBlacklist",
      "outputs": [
        {
          "internalType": "uint256[]",
          "name": "",
          "type": "uint256[]"
        }
      ],
      "stateMutability": "view",
      "type": "function"
    },
    {
      "inputs": [],
      "name": "getOwner",
      "outputs": [
        {
          "internalType": "address",
          "name": "",
          "type": "address"
        }
      ],
      "stateMutability": "view",
      "type": "function"
    },
    {
      "inputs": [
        {
          "internalType": "string",
          "name": "_weights",
          "type": "string"
        },
        {
          "internalType": "uint256",
          "name": "_round",
          "type": "uint256"
        },
        {
          "internalType": "uint256",
          "name": "_federatedCid",
          "type": "uint256"
        }
      ],
      "name": "storeWeightOfRoundForClient",
      "outputs": [],
      "stateMutability": "nonpayable",
      "type": "function"
    }
  ],
  "bytecode": "0x6080604052348015600f57600080fd5b5033600260006101000a81548173ffffffffffffffffffffffffffffffffffffffff021916908373ffffffffffffffffffffffffffffffffffffffff160217905550610b7e806100606000396000f3fe608060405234801561001057600080fd5b50600436106100625760003560e01c80630f2a091914610067578063338d6c30146100975780636efd9b44146100b5578063812e3219146100d1578063893d20e8146101015780638b762e6c1461011f575b600080fd5b610081600480360381019061007c91906105bb565b61013b565b60405161008e91906105f7565b60405180910390f35b61009f61015f565b6040516100ac91906106d0565b60405180910390f35b6100cf60048036038101906100ca9190610838565b610247565b005b6100eb60048036038101906100e691906105bb565b6103f2565b6040516100f891906105f7565b60405180910390f35b610109610420565b60405161011691906108e8565b60405180910390f35b610139600480360381019061013491906105bb565b61044a565b005b6001818154811061014b57600080fd5b906000526020600020016000915090505481565b6060600260009054906101000a900473ffffffffffffffffffffffffffffffffffffffff1673ffffffffffffffffffffffffffffffffffffffff163373ffffffffffffffffffffffffffffffffffffffff16146101f1576040517f08c379a00000000000000000000000000000000000000000000000000000000081526004016101e890610986565b60405180910390fd5b600180548060200260200160405190810160405280929190818152602001828054801561023d57602002820191906000526020600020905b815481526020019060010190808311610229575b5050505050905090565b600061025282610476565b905080156102ed57600080610266846104d9565b81548110610277576102766109a6565b5b906000526020600020906002020190508461029190610a3e565b60601c81600101600086815260200190815260200160002060006101000a81548173ffffffffffffffffffffffffffffffffffffffff021916908373ffffffffffffffffffffffffffffffffffffffff160217905550506103a5565b6000808054905090506000600181600181540180825580915050039060005260206000209050506000808281548110610329576103286109a6565b5b906000526020600020906002020190508381600001819055508561034c90610a3e565b60601c81600101600087815260200190815260200160002060006101000a81548173ffffffffffffffffffffffffffffffffffffffff021916908373ffffffffffffffffffffffffffffffffffffffff16021790555050505b7f05728d7ce0a1782be219184367ff5268f7c056f57bc7d7db1fb4e2da03b9d9c8846103d090610a3e565b60601c84846040516103e493929190610aa5565b60405180910390a150505050565b6000818154811061040257600080fd5b90600052602060002090600202016000915090508060000154905081565b6000600260009054906101000a900473ffffffffffffffffffffffffffffffffffffffff16905090565b600181908060018154018082558091505060019003906000526020600020016000909190919091505550565b600080600090505b6000805490508110156104ce5782600082815481106104a05761049f6109a6565b5b906000526020600020906002020160000154036104c15760019150506104d4565b808060010191505061047e565b50600090505b919050565b600080600090505b600080549050811015610530578260008281548110610503576105026109a6565b5b90600052602060002090600202016000015403610523578091505061056c565b80806001019150506104e1565b506040517f08c379a000000000000000000000000000000000000000000000000000000000815260040161056390610b28565b60405180910390fd5b919050565b6000604051905090565b600080fd5b600080fd5b6000819050919050565b61059881610585565b81146105a357600080fd5b50565b6000813590506105b58161058f565b92915050565b6000602082840312156105d1576105d061057b565b5b60006105df848285016105a6565b91505092915050565b6105f181610585565b82525050565b600060208201905061060c60008301846105e8565b92915050565b600081519050919050565b600082825260208201905092915050565b6000819050602082019050919050565b61064781610585565b82525050565b6000610659838361063e565b60208301905092915050565b6000602082019050919050565b600061067d82610612565b610687818561061d565b93506106928361062e565b8060005b838110156106c35781516106aa888261064d565b97506106b583610665565b925050600181019050610696565b5085935050505092915050565b600060208201905081810360008301526106ea8184610672565b905092915050565b600080fd5b600080fd5b6000601f19601f8301169050919050565b7f4e487b7100000000000000000000000000000000000000000000000000000000600052604160045260246000fd5b610745826106fc565b810181811067ffffffffffffffff821117156107645761076361070d565b5b80604052505050565b6000610777610571565b9050610783828261073c565b919050565b600067ffffffffffffffff8211156107a3576107a261070d565b5b6107ac826106fc565b9050602081019050919050565b82818337600083830152505050565b60006107db6107d684610788565b61076d565b9050828152602081018484840111156107f7576107f66106f7565b5b6108028482856107b9565b509392505050565b600082601f83011261081f5761081e6106f2565b5b813561082f8482602086016107c8565b91505092915050565b6000806000606084860312156108515761085061057b565b5b600084013567ffffffffffffffff81111561086f5761086e610580565b5b61087b8682870161080a565b935050602061088c868287016105a6565b925050604061089d868287016105a6565b9150509250925092565b600073ffffffffffffffffffffffffffffffffffffffff82169050919050565b60006108d2826108a7565b9050919050565b6108e2816108c7565b82525050565b60006020820190506108fd60008301846108d9565b92915050565b600082825260208201905092915050565b7f4f6e6c7920746865206f776e65722063616e2063616c6c20746869732066756e60008201527f6374696f6e2e0000000000000000000000000000000000000000000000000000602082015250565b6000610970602683610903565b915061097b82610914565b604082019050919050565b6000602082019050818103600083015261099f81610963565b9050919050565b7f4e487b7100000000000000000000000000000000000000000000000000000000600052603260045260246000fd5b600081519050919050565b6000819050602082019050919050565b60007fffffffffffffffffffffffffffffffffffffffff00000000000000000000000082169050919050565b6000610a2882516109f0565b80915050919050565b600082821b905092915050565b6000610a49826109d5565b82610a53846109e0565b9050610a5e81610a1c565b92506014821015610a9e57610a997fffffffffffffffffffffffffffffffffffffffff00000000000000000000000083601403600802610a31565b831692505b5050919050565b6000606082019050610aba60008301866108d9565b610ac760208301856105e8565b610ad460408301846105e8565b949350505050565b7f436c69656e74206e6f7420666f756e6400000000000000000000000000000000600082015250565b6000610b12601083610903565b9150610b1d82610adc565b602082019050919050565b60006020820190508181036000830152610b4181610b05565b905091905056fea264697066735822122076aa8db66e28640d5e93ad0e3f5e37a10ba63d937975a7e0c595e10f035fb49f64736f6c634300081c0033",
  "linkReferences": {},
  "deployedLinkReferences": {}
}