{
  "_format": "hh-sol-artifact-1",
  "contractName": "CheckWeights",
  "sourceName": "src/blockchain/contracts/CheckWeights.sol",
  "abi": [
    {
      "inputs": [],
      "stateMutability": "nonpayable",
      "type": "constructor"
    },
    {
      "anonymous": false,
      "inputs": [
        {
          "indexed": false,
          "internalType": "uint256",
          "name": "round",
          "type": "uint256"
        },
        {
          "indexed": false,
          "internalType": "uint256",
          "name": "federatedCid",
          "type": "uint256"
        }
      ],
      "name": "WroteWeightsOfRoundForClient",
      "type": "event"
    },
    {
      "inputs": [
        {
          "internalType": "string",
          "name": "_weights",
          "type": "string"
        },
        {
          "internalType": "uint256",
          "name": "_round",
          "type": "uint256"
        },
        {
          "internalType": "uint256",
          "name": "_federatedCid",
          "type": "uint256"
        }
      ],
      "name": "addRoundWeightsReference",
      "outputs": [],
      "stateMutability": "nonpayable",
      "type": "function"
    },
    {
      "inputs": [
        {
          "internalType": "uint256",
          "name": "_federatedCid",
          "type": "uint256"
        }
      ],
      "name": "addToBlacklist",
      "outputs": [],
      "stateMutability": "nonpayable",
      "type": "function"
    },
    {
      "inputs": [
        {
          "internalType": "uint256",
          "name": "",
          "type": "uint256"
        }
      ],
      "name": "blacklist",
      "outputs": [
        {
          "internalType": "uint256",
          "name": "",
          "type": "uint256"
        }
      ],
      "stateMutability": "view",
      "type": "function"
    },
    {
      "inputs": [],
      "name": "getOwner",
      "outputs": [
        {
          "internalType": "address",
          "name": "",
          "type": "address"
        }
      ],
      "stateMutability": "view",
      "type": "function"
    },
    {
      "inputs": [
        {
          "internalType": "uint256",
          "name": "_round",
          "type": "uint256"
        },
        {
          "internalType": "uint256",
          "name": "_federatedCid",
          "type": "uint256"
        }
      ],
      "name": "getWeightOfRoundOfClient",
      "outputs": [
        {
          "internalType": "string",
          "name": "",
          "type": "string"
        }
      ],
      "stateMutability": "view",
      "type": "function"
    },
    {
      "inputs": [
        {
          "internalType": "uint256",
          "name": "_federatedCid",
          "type": "uint256"
        }
      ],
      "name": "isPoisonerCid",
      "outputs": [
        {
          "internalType": "bool",
          "name": "",
          "type": "bool"
        }
      ],
      "stateMutability": "view",
      "type": "function"
    },
    {
      "inputs": [
        {
          "internalType": "uint256",
          "name": "",
          "type": "uint256"
        }
      ],
      "name": "weightsReferences",
      "outputs": [
        {
          "internalType": "uint256",
          "name": "federatedCid",
          "type": "uint256"
        }
      ],
      "stateMutability": "view",
      "type": "function"
    }
  ],
  "bytecode": "0x6080604052348015600f57600080fd5b5033600260006101000a81548173ffffffffffffffffffffffffffffffffffffffff021916908373ffffffffffffffffffffffffffffffffffffffff160217905550610d6c806100606000396000f3fe608060405234801561001057600080fd5b506004361061007d5760003560e01c8063893d20e81161005b578063893d20e8146101125780638b762e6c146101305780638e4424681461014c578063e6cba98d146101685761007d565b80630f2a0919146100825780631c21cddc146100b2578063606e8a6b146100e2575b600080fd5b61009c60048036038101906100979190610615565b610198565b6040516100a99190610651565b60405180910390f35b6100cc60048036038101906100c79190610615565b6101bc565b6040516100d99190610651565b60405180910390f35b6100fc60048036038101906100f79190610615565b6101ea565b6040516101099190610687565b60405180910390f35b61011a610246565b60405161012791906106e3565b60405180910390f35b61014a60048036038101906101459190610615565b610270565b005b61016660048036038101906101619190610844565b61029c565b005b610182600480360381019061017d91906108b3565b6103fa565b60405161018f9190610972565b60405180910390f35b600181815481106101a857600080fd5b906000526020600020016000915090505481565b600081815481106101cc57600080fd5b90600052602060002090600202016000915090508060000154905081565b600080600090505b60018054905081101561023b57826001828154811061021457610213610994565b5b90600052602060002001540361022e576001915050610241565b80806001019150506101f2565b50600090505b919050565b6000600260009054906101000a900473ffffffffffffffffffffffffffffffffffffffff16905090565b600181908060018154018082558091505060019003906000526020600020016000909190919091505550565b60006102a7826104d0565b156102dd5760006102b783610533565b815481106102c8576102c7610994565b5b90600052602060002090600202019050610333565b6000808054905090506000600181600181540180825580915050039060005260206000209050506000818154811061031857610317610994565b5b90600052602060002090600202019150828260000181905550505b8381600101600085815260200190815260200160002090816103559190610bcf565b50600283101580156103b55750600260009054906101000a900473ffffffffffffffffffffffffffffffffffffffff1673ffffffffffffffffffffffffffffffffffffffff163373ffffffffffffffffffffffffffffffffffffffff1614155b156103f4577f49ab53cdea5f88886e786f4c17a329d3e9ac6800979f6b4341c16615da8071dd83836040516103eb929190610ca1565b60405180910390a15b50505050565b606060008061040884610533565b8154811061041957610418610994565b5b906000526020600020906002020190508060010160008581526020019081526020016000208054610449906109f2565b80601f0160208091040260200160405190810160405280929190818152602001828054610475906109f2565b80156104c25780601f10610497576101008083540402835291602001916104c2565b820191906000526020600020905b8154815290600101906020018083116104a557829003601f168201915b505050505091505092915050565b600080600090505b6000805490508110156105285782600082815481106104fa576104f9610994565b5b9060005260206000209060020201600001540361051b57600191505061052e565b80806001019150506104d8565b50600090505b919050565b600080600090505b60008054905081101561058a57826000828154811061055d5761055c610994565b5b9060005260206000209060020201600001540361057d57809150506105c6565b808060010191505061053b565b506040517f08c379a00000000000000000000000000000000000000000000000000000000081526004016105bd90610d16565b60405180910390fd5b919050565b6000604051905090565b600080fd5b600080fd5b6000819050919050565b6105f2816105df565b81146105fd57600080fd5b50565b60008135905061060f816105e9565b92915050565b60006020828403121561062b5761062a6105d5565b5b600061063984828501610600565b91505092915050565b61064b816105df565b82525050565b60006020820190506106666000830184610642565b92915050565b60008115159050919050565b6106818161066c565b82525050565b600060208201905061069c6000830184610678565b92915050565b600073ffffffffffffffffffffffffffffffffffffffff82169050919050565b60006106cd826106a2565b9050919050565b6106dd816106c2565b82525050565b60006020820190506106f860008301846106d4565b92915050565b600080fd5b600080fd5b6000601f19601f8301169050919050565b7f4e487b7100000000000000000000000000000000000000000000000000000000600052604160045260246000fd5b61075182610708565b810181811067ffffffffffffffff821117156107705761076f610719565b5b80604052505050565b60006107836105cb565b905061078f8282610748565b919050565b600067ffffffffffffffff8211156107af576107ae610719565b5b6107b882610708565b9050602081019050919050565b82818337600083830152505050565b60006107e76107e284610794565b610779565b90508281526020810184848401111561080357610802610703565b5b61080e8482856107c5565b509392505050565b600082601f83011261082b5761082a6106fe565b5b813561083b8482602086016107d4565b91505092915050565b60008060006060848603121561085d5761085c6105d5565b5b600084013567ffffffffffffffff81111561087b5761087a6105da565b5b61088786828701610816565b935050602061089886828701610600565b92505060406108a986828701610600565b9150509250925092565b600080604083850312156108ca576108c96105d5565b5b60006108d885828601610600565b92505060206108e985828601610600565b9150509250929050565b600081519050919050565b600082825260208201905092915050565b60005b8381101561092d578082015181840152602081019050610912565b60008484015250505050565b6000610944826108f3565b61094e81856108fe565b935061095e81856020860161090f565b61096781610708565b840191505092915050565b6000602082019050818103600083015261098c8184610939565b905092915050565b7f4e487b7100000000000000000000000000000000000000000000000000000000600052603260045260246000fd5b7f4e487b7100000000000000000000000000000000000000000000000000000000600052602260045260246000fd5b60006002820490506001821680610a0a57607f821691505b602082108103610a1d57610a1c6109c3565b5b50919050565b60008190508160005260206000209050919050565b60006020601f8301049050919050565b600082821b905092915050565b600060088302610a857fffffffffffffffffffffffffffffffffffffffffffffffffffffffffffffffff82610a48565b610a8f8683610a48565b95508019841693508086168417925050509392505050565b6000819050919050565b6000610acc610ac7610ac2846105df565b610aa7565b6105df565b9050919050565b6000819050919050565b610ae683610ab1565b610afa610af282610ad3565b848454610a55565b825550505050565b600090565b610b0f610b02565b610b1a818484610add565b505050565b5b81811015610b3e57610b33600082610b07565b600181019050610b20565b5050565b601f821115610b8357610b5481610a23565b610b5d84610a38565b81016020851015610b6c578190505b610b80610b7885610a38565b830182610b1f565b50505b505050565b600082821c905092915050565b6000610ba660001984600802610b88565b1980831691505092915050565b6000610bbf8383610b95565b9150826002028217905092915050565b610bd8826108f3565b67ffffffffffffffff811115610bf157610bf0610719565b5b610bfb82546109f2565b610c06828285610b42565b600060209050601f831160018114610c395760008415610c27578287015190505b610c318582610bb3565b865550610c99565b601f198416610c4786610a23565b60005b82811015610c6f57848901518255600182019150602085019450602081019050610c4a565b86831015610c8c5784890151610c88601f891682610b95565b8355505b6001600288020188555050505b505050505050565b6000604082019050610cb66000830185610642565b610cc36020830184610642565b9392505050565b7f436c69656e74206e6f7420666f756e6400000000000000000000000000000000600082015250565b6000610d006010836108fe565b9150610d0b82610cca565b602082019050919050565b60006020820190508181036000830152610d2f81610cf3565b905091905056fea26469706673582212204612925f4dc3fc5d7b34fd6b2db231e85c3f2021ca35bfb747ab87f5322900aa64736f6c634300081c0033",
  "linkReferences": {},
  "deployedLinkReferences": {}
}