{
  "_format": "hh-sol-artifact-1",
  "contractName": "CheckWeights",
  "sourceName": "src/blockchain/contracts/CheckWeights.sol",
  "abi": [
    {
      "inputs": [],
      "stateMutability": "nonpayable",
      "type": "constructor"
    },
    {
      "anonymous": false,
      "inputs": [
        {
          "indexed": false,
          "internalType": "uint256",
          "name": "round",
          "type": "uint256"
        },
        {
          "indexed": false,
          "internalType": "uint256",
          "name": "federatedCid",
          "type": "uint256"
        }
      ],
      "name": "WroteWeightsOfRoundForClient",
      "type": "event"
    },
    {
      "inputs": [
        {
          "internalType": "string",
          "name": "_weights",
          "type": "string"
        },
        {
          "internalType": "uint256",
          "name": "_round",
          "type": "uint256"
        },
        {
          "internalType": "uint256",
          "name": "_federatedCid",
          "type": "uint256"
        }
      ],
      "name": "addRoundWeightsReference",
      "outputs": [],
      "stateMutability": "nonpayable",
      "type": "function"
    },
    {
      "inputs": [
        {
          "internalType": "uint256",
          "name": "_federatedCid",
          "type": "uint256"
        }
      ],
      "name": "addToBlacklist",
      "outputs": [],
      "stateMutability": "nonpayable",
      "type": "function"
    },
    {
      "inputs": [
        {
          "internalType": "uint256",
          "name": "",
          "type": "uint256"
        }
      ],
      "name": "blacklist",
      "outputs": [
        {
          "internalType": "uint256",
          "name": "",
          "type": "uint256"
        }
      ],
      "stateMutability": "view",
      "type": "function"
    },
    {
      "inputs": [],
      "name": "getBlackList",
      "outputs": [
        {
          "internalType": "uint256[]",
          "name": "",
          "type": "uint256[]"
        }
      ],
      "stateMutability": "view",
      "type": "function"
    },
    {
      "inputs": [],
      "name": "getOwner",
      "outputs": [
        {
          "internalType": "address",
          "name": "",
          "type": "address"
        }
      ],
      "stateMutability": "view",
      "type": "function"
    },
    {
      "inputs": [
        {
          "internalType": "uint256",
          "name": "_round",
          "type": "uint256"
        },
        {
          "internalType": "uint256",
          "name": "_federatedCid",
          "type": "uint256"
        }
      ],
      "name": "getWeightOfRoundOfClient",
      "outputs": [
        {
          "internalType": "string",
          "name": "",
          "type": "string"
        }
      ],
      "stateMutability": "view",
      "type": "function"
    },
    {
      "inputs": [
        {
          "internalType": "uint256",
          "name": "_federatedCid",
          "type": "uint256"
        }
      ],
      "name": "isPoisonerCid",
      "outputs": [
        {
          "internalType": "bool",
          "name": "",
          "type": "bool"
        }
      ],
      "stateMutability": "view",
      "type": "function"
    },
    {
      "inputs": [
        {
          "internalType": "uint256",
          "name": "",
          "type": "uint256"
        }
      ],
      "name": "weightsReferences",
      "outputs": [
        {
          "internalType": "uint256",
          "name": "federatedCid",
          "type": "uint256"
        }
      ],
      "stateMutability": "view",
      "type": "function"
    }
  ],
  "bytecode": "0x6080604052348015600f57600080fd5b5033600260006101000a81548173ffffffffffffffffffffffffffffffffffffffff021916908373ffffffffffffffffffffffffffffffffffffffff1602179055506110a5806100606000396000f3fe608060405234801561001057600080fd5b50600436106100885760003560e01c8063893d20e81161005b578063893d20e81461013b5780638b762e6c146101595780638e44246814610175578063e6cba98d1461019157610088565b80630f2a09191461008d5780631c21cddc146100bd578063360b97b9146100ed578063606e8a6b1461010b575b600080fd5b6100a760048036038101906100a29190610722565b6101c1565b6040516100b4919061075e565b60405180910390f35b6100d760048036038101906100d29190610722565b6101e5565b6040516100e4919061075e565b60405180910390f35b6100f5610213565b6040516101029190610837565b60405180910390f35b61012560048036038101906101209190610722565b61026b565b6040516101329190610874565b60405180910390f35b6101436102c7565b60405161015091906108d0565b60405180910390f35b610173600480360381019061016e9190610722565b6102f1565b005b61018f600480360381019061018a9190610a31565b61031d565b005b6101ab60048036038101906101a69190610aa0565b61046d565b6040516101b89190610b5f565b60405180910390f35b600181815481106101d157600080fd5b906000526020600020016000915090505481565b600081815481106101f557600080fd5b90600052602060002090600202016000915090508060000154905081565b6060600180548060200260200160405190810160405280929190818152602001828054801561026157602002820191906000526020600020905b81548152602001906001019080831161024d575b5050505050905090565b600080600090505b6001805490508110156102bc57826001828154811061029557610294610b81565b5b9060005260206000200154036102af5760019150506102c2565b8080600101915050610273565b50600090505b919050565b6000600260009054906101000a900473ffffffffffffffffffffffffffffffffffffffff16905090565b600181908060018154018082558091505060019003906000526020600020016000909190919091505550565b600061032882610543565b1561035e576000610338836105a6565b8154811061034957610348610b81565b5b906000526020600020906002020190506103b4565b6000808054905090506000600181600181540180825580915050039060005260206000209050506000818154811061039957610398610b81565b5b90600052602060002090600202019150828260000181905550505b6103be838361063e565b61042c578381600101600085815260200190815260200160002090816103e49190610dbc565b5060008214610427577f49ab53cdea5f88886e786f4c17a329d3e9ac6800979f6b4341c16615da8071dd838360405161041e929190610e8e565b60405180910390a15b610467565b6040517f08c379a000000000000000000000000000000000000000000000000000000000815260040161045e90610f03565b60405180910390fd5b50505050565b606060008061047b846105a6565b8154811061048c5761048b610b81565b5b9060005260206000209060020201905080600101600085815260200190815260200160002080546104bc90610bdf565b80601f01602080910402602001604051908101604052809291908181526020018280546104e890610bdf565b80156105355780601f1061050a57610100808354040283529160200191610535565b820191906000526020600020905b81548152906001019060200180831161051857829003601f168201915b505050505091505092915050565b600080600090505b60008054905081101561059b57826000828154811061056d5761056c610b81565b5b9060005260206000209060020201600001540361058e5760019150506105a1565b808060010191505061054b565b50600090505b919050565b600080600090505b6000805490508110156105fd5782600082815481106105d0576105cf610b81565b5b906000526020600020906002020160000154036105f05780915050610639565b80806001019150506105ae565b506040517f08c379a000000000000000000000000000000000000000000000000000000000815260040161063090610f6f565b60405180910390fd5b919050565b600080600061064c846105a6565b8154811061065d5761065c610b81565b5b9060005260206000209060020201905060405160200161067c90610fc0565b604051602081830303815290604052805190602001208160010160008681526020019081526020016000206040516020016106b79190611058565b60405160208183030381529060405280519060200120141591505092915050565b6000604051905090565b600080fd5b600080fd5b6000819050919050565b6106ff816106ec565b811461070a57600080fd5b50565b60008135905061071c816106f6565b92915050565b600060208284031215610738576107376106e2565b5b60006107468482850161070d565b91505092915050565b610758816106ec565b82525050565b6000602082019050610773600083018461074f565b92915050565b600081519050919050565b600082825260208201905092915050565b6000819050602082019050919050565b6107ae816106ec565b82525050565b60006107c083836107a5565b60208301905092915050565b6000602082019050919050565b60006107e482610779565b6107ee8185610784565b93506107f983610795565b8060005b8381101561082a57815161081188826107b4565b975061081c836107cc565b9250506001810190506107fd565b5085935050505092915050565b6000602082019050818103600083015261085181846107d9565b905092915050565b60008115159050919050565b61086e81610859565b82525050565b60006020820190506108896000830184610865565b92915050565b600073ffffffffffffffffffffffffffffffffffffffff82169050919050565b60006108ba8261088f565b9050919050565b6108ca816108af565b82525050565b60006020820190506108e560008301846108c1565b92915050565b600080fd5b600080fd5b6000601f19601f8301169050919050565b7f4e487b7100000000000000000000000000000000000000000000000000000000600052604160045260246000fd5b61093e826108f5565b810181811067ffffffffffffffff8211171561095d5761095c610906565b5b80604052505050565b60006109706106d8565b905061097c8282610935565b919050565b600067ffffffffffffffff82111561099c5761099b610906565b5b6109a5826108f5565b9050602081019050919050565b82818337600083830152505050565b60006109d46109cf84610981565b610966565b9050828152602081018484840111156109f0576109ef6108f0565b5b6109fb8482856109b2565b509392505050565b600082601f830112610a1857610a176108eb565b5b8135610a288482602086016109c1565b91505092915050565b600080600060608486031215610a4a57610a496106e2565b5b600084013567ffffffffffffffff811115610a6857610a676106e7565b5b610a7486828701610a03565b9350506020610a858682870161070d565b9250506040610a968682870161070d565b9150509250925092565b60008060408385031215610ab757610ab66106e2565b5b6000610ac58582860161070d565b9250506020610ad68582860161070d565b9150509250929050565b600081519050919050565b600082825260208201905092915050565b60005b83811015610b1a578082015181840152602081019050610aff565b60008484015250505050565b6000610b3182610ae0565b610b3b8185610aeb565b9350610b4b818560208601610afc565b610b54816108f5565b840191505092915050565b60006020820190508181036000830152610b798184610b26565b905092915050565b7f4e487b7100000000000000000000000000000000000000000000000000000000600052603260045260246000fd5b7f4e487b7100000000000000000000000000000000000000000000000000000000600052602260045260246000fd5b60006002820490506001821680610bf757607f821691505b602082108103610c0a57610c09610bb0565b5b50919050565b60008190508160005260206000209050919050565b60006020601f8301049050919050565b600082821b905092915050565b600060088302610c727fffffffffffffffffffffffffffffffffffffffffffffffffffffffffffffffff82610c35565b610c7c8683610c35565b95508019841693508086168417925050509392505050565b6000819050919050565b6000610cb9610cb4610caf846106ec565b610c94565b6106ec565b9050919050565b6000819050919050565b610cd383610c9e565b610ce7610cdf82610cc0565b848454610c42565b825550505050565b600090565b610cfc610cef565b610d07818484610cca565b505050565b5b81811015610d2b57610d20600082610cf4565b600181019050610d0d565b5050565b601f821115610d7057610d4181610c10565b610d4a84610c25565b81016020851015610d59578190505b610d6d610d6585610c25565b830182610d0c565b50505b505050565b600082821c905092915050565b6000610d9360001984600802610d75565b1980831691505092915050565b6000610dac8383610d82565b9150826002028217905092915050565b610dc582610ae0565b67ffffffffffffffff811115610dde57610ddd610906565b5b610de88254610bdf565b610df3828285610d2f565b600060209050601f831160018114610e265760008415610e14578287015190505b610e1e8582610da0565b865550610e86565b601f198416610e3486610c10565b60005b82811015610e5c57848901518255600182019150602085019450602081019050610e37565b86831015610e795784890151610e75601f891682610d82565b8355505b6001600288020188555050505b505050505050565b6000604082019050610ea3600083018561074f565b610eb0602083018461074f565b9392505050565b7f5765696768747320616c72656164792077726f74650000000000000000000000600082015250565b6000610eed601583610aeb565b9150610ef882610eb7565b602082019050919050565b60006020820190508181036000830152610f1c81610ee0565b9050919050565b7f436c69656e74206e6f7420666f756e6400000000000000000000000000000000600082015250565b6000610f59601083610aeb565b9150610f6482610f23565b602082019050919050565b60006020820190508181036000830152610f8881610f4c565b9050919050565b600081905092915050565b50565b6000610faa600083610f8f565b9150610fb582610f9a565b600082019050919050565b6000610fcb82610f9d565b9150819050919050565b60008154610fe281610bdf565b610fec8186610f8f565b94506001821660008114611007576001811461101c5761104f565b60ff198316865281151582028601935061104f565b61102585610c10565b60005b8381101561104757815481890152600182019150602081019050611028565b838801955050505b50505092915050565b60006110648284610fd5565b91508190509291505056fea264697066735822122074e0c819b1891636cb7ee996be5f6c5f4d27490a01fcb4a93d42d3015b55a58464736f6c634300081c0033",
  "linkReferences": {},
  "deployedLinkReferences": {}
}